{
	"data": {
		"bytecode": {
			"linkReferences": {},
			"object": "608060405260006007556040518060400160405280600581526020017f2e6a736f6e000000000000000000000000000000000000000000000000000000815250600c908051906020019062000056929190620007ae565b503480156200006457600080fd5b506040518060400160405280601081526020017f456e64616c6c20426174616e204e4654000000000000000000000000000000008152506040518060400160405280600681526020017f45422d4e465400000000000000000000000000000000000000000000000000008152508160009080519060200190620000e9929190620007ae565b50806001908051906020019062000102929190620007ae565b50505062000125620001196200019660201b60201c565b6200019e60201b60201c565b604051806060016040528060248152602001620041ba60249139600b908051906020019062000156929190620007ae565b506000600190505b600181116200018f576200017933826200026460201b60201c565b8080620001869062000897565b9150506200015e565b5062000cb9565b600033905090565b6000600660009054906101000a900473ffffffffffffffffffffffffffffffffffffffff16905081600660006101000a81548173ffffffffffffffffffffffffffffffffffffffff021916908373ffffffffffffffffffffffffffffffffffffffff1602179055508173ffffffffffffffffffffffffffffffffffffffff168173ffffffffffffffffffffffffffffffffffffffff167f8be0079c531659141344cd1fd0a4f28419497f9722a3daafe3b4186f6b6457e060405160405180910390a35050565b620002868282604051806020016040528060008152506200028a60201b60201c565b5050565b6200029c8383620002f860201b60201c565b620002b160008484846200053f60201b60201c565b620002f3576040517f08c379a0000000000000000000000000000000000000000000000000000000008152600401620002ea906200096c565b60405180910390fd5b505050565b600073ffffffffffffffffffffffffffffffffffffffff168273ffffffffffffffffffffffffffffffffffffffff1614156200036b576040517f08c379a00000000000000000000000000000000000000000000000000000000081526004016200036290620009de565b60405180910390fd5b6200037c81620006f960201b60201c565b15620003bf576040517f08c379a0000000000000000000000000000000000000000000000000000000008152600401620003b69062000a50565b60405180910390fd5b620003d56000838360016200074260201b60201c565b620003e681620006f960201b60201c565b1562000429576040517f08c379a0000000000000000000000000000000000000000000000000000000008152600401620004209062000a50565b60405180910390fd5b6001600360008473ffffffffffffffffffffffffffffffffffffffff1673ffffffffffffffffffffffffffffffffffffffff16815260200190815260200160002060008282540192505081905550816002600083815260200190815260200160002060006101000a81548173ffffffffffffffffffffffffffffffffffffffff021916908373ffffffffffffffffffffffffffffffffffffffff160217905550808273ffffffffffffffffffffffffffffffffffffffff16600073ffffffffffffffffffffffffffffffffffffffff167fddf252ad1be2c89b69c2b068fc378daa952ba7f163c4a11628f55a4df523b3ef60405160405180910390a46200053b6000838360016200074860201b60201c565b5050565b60006200056d8473ffffffffffffffffffffffffffffffffffffffff166200074e60201b620012071760201c565b15620006ec578373ffffffffffffffffffffffffffffffffffffffff1663150b7a026200059f6200019660201b60201c565b8786866040518563ffffffff1660e01b8152600401620005c3949392919062000b6c565b602060405180830381600087803b158015620005de57600080fd5b505af19250505080156200061257506040513d601f19601f820116820180604052508101906200060f919062000c22565b60015b6200069b573d806000811462000645576040519150601f19603f3d011682016040523d82523d6000602084013e6200064a565b606091505b5060008151141562000693576040517f08c379a00000000000000000000000000000000000000000000000000000000081526004016200068a906200096c565b60405180910390fd5b805181602001fd5b63150b7a0260e01b7bffffffffffffffffffffffffffffffffffffffffffffffffffffffff1916817bffffffffffffffffffffffffffffffffffffffffffffffffffffffff191614915050620006f1565b600190505b949350505050565b60008073ffffffffffffffffffffffffffffffffffffffff1662000723836200077160201b60201c565b73ffffffffffffffffffffffffffffffffffffffff1614159050919050565b50505050565b50505050565b6000808273ffffffffffffffffffffffffffffffffffffffff163b119050919050565b60006002600083815260200190815260200160002060009054906101000a900473ffffffffffffffffffffffffffffffffffffffff169050919050565b828054620007bc9062000c83565b90600052602060002090601f016020900481019282620007e057600085556200082c565b82601f10620007fb57805160ff19168380011785556200082c565b828001600101855582156200082c579182015b828111156200082b5782518255916020019190600101906200080e565b5b5090506200083b91906200083f565b5090565b5b808211156200085a57600081600090555060010162000840565b5090565b7f4e487b7100000000000000000000000000000000000000000000000000000000600052601160045260246000fd5b6000819050919050565b6000620008a4826200088d565b91507fffffffffffffffffffffffffffffffffffffffffffffffffffffffffffffffff821415620008da57620008d96200085e565b5b600182019050919050565b600082825260208201905092915050565b7f4552433732313a207472616e7366657220746f206e6f6e20455243373231526560008201527f63656976657220696d706c656d656e7465720000000000000000000000000000602082015250565b600062000954603283620008e5565b91506200096182620008f6565b604082019050919050565b60006020820190508181036000830152620009878162000945565b9050919050565b7f4552433732313a206d696e7420746f20746865207a65726f2061646472657373600082015250565b6000620009c6602083620008e5565b9150620009d3826200098e565b602082019050919050565b60006020820190508181036000830152620009f981620009b7565b9050919050565b7f4552433732313a20746f6b656e20616c7265616479206d696e74656400000000600082015250565b600062000a38601c83620008e5565b915062000a458262000a00565b602082019050919050565b6000602082019050818103600083015262000a6b8162000a29565b9050919050565b600073ffffffffffffffffffffffffffffffffffffffff82169050919050565b600062000a9f8262000a72565b9050919050565b62000ab18162000a92565b82525050565b62000ac2816200088d565b82525050565b600081519050919050565b600082825260208201905092915050565b60005b8381101562000b0457808201518184015260208101905062000ae7565b8381111562000b14576000848401525b50505050565b6000601f19601f8301169050919050565b600062000b388262000ac8565b62000b44818562000ad3565b935062000b5681856020860162000ae4565b62000b618162000b1a565b840191505092915050565b600060808201905062000b83600083018762000aa6565b62000b92602083018662000aa6565b62000ba1604083018562000ab7565b818103606083015262000bb5818462000b2b565b905095945050505050565b600080fd5b60007fffffffff0000000000000000000000000000000000000000000000000000000082169050919050565b62000bfc8162000bc5565b811462000c0857600080fd5b50565b60008151905062000c1c8162000bf1565b92915050565b60006020828403121562000c3b5762000c3a62000bc0565b5b600062000c4b8482850162000c0b565b91505092915050565b7f4e487b7100000000000000000000000000000000000000000000000000000000600052602260045260246000fd5b6000600282049050600182168062000c9c57607f821691505b6020821081141562000cb35762000cb262000c54565b5b50919050565b6134f18062000cc96000396000f3fe6080604052600436106101b75760003560e01c80638ecad721116100ec578063a22cb4651161008a578063c87b56dd11610064578063c87b56dd146105c7578063e985e9c514610604578063f2fde38b14610641578063f47c84c51461066a576101b7565b8063a22cb4651461054a578063b88d4fde14610573578063c66828621461059c576101b7565b80639abc8320116100c65780639abc8320146104ad5780639fd07cf0146104d8578063a035b1fe14610503578063a0712d681461052e576101b7565b80638ecad7211461042e57806391b7f5ed1461045957806395d89b4114610482576101b7565b806342842e0e1161015957806363daa09b1161013357806363daa09b1461038657806370a08231146103af578063715018a6146103ec5780638da5cb5b14610403576101b7565b806342842e0e146102f5578063564566a81461031e5780636352211e14610349576101b7565b8063095ea7b311610195578063095ea7b31461026157806318160ddd1461028a57806323b872dd146102b557806334918dfd146102de576101b7565b806301ffc9a7146101bc57806306fdde03146101f9578063081812fc14610224575b600080fd5b3480156101c857600080fd5b506101e360048036038101906101de9190612245565b610695565b6040516101f0919061228d565b60405180910390f35b34801561020557600080fd5b5061020e610777565b60405161021b9190612341565b60405180910390f35b34801561023057600080fd5b5061024b60048036038101906102469190612399565b610809565b6040516102589190612407565b60405180910390f35b34801561026d57600080fd5b506102886004803603810190610283919061244e565b61084f565b005b34801561029657600080fd5b5061029f610967565b6040516102ac919061249d565b60405180910390f35b3480156102c157600080fd5b506102dc60048036038101906102d791906124b8565b61096d565b005b3480156102ea57600080fd5b506102f36109cd565b005b34801561030157600080fd5b5061031c600480360381019061031791906124b8565b610a01565b005b34801561032a57600080fd5b50610333610a21565b604051610340919061228d565b60405180910390f35b34801561035557600080fd5b50610370600480360381019061036b9190612399565b610a34565b60405161037d9190612407565b60405180910390f35b34801561039257600080fd5b506103ad60048036038101906103a89190612640565b610abb565b005b3480156103bb57600080fd5b506103d660048036038101906103d19190612689565b610add565b6040516103e3919061249d565b60405180910390f35b3480156103f857600080fd5b50610401610b95565b005b34801561040f57600080fd5b50610418610ba9565b6040516104259190612407565b60405180910390f35b34801561043a57600080fd5b50610443610bd3565b604051610450919061249d565b60405180910390f35b34801561046557600080fd5b50610480600480360381019061047b9190612399565b610bd8565b005b34801561048e57600080fd5b50610497610bea565b6040516104a49190612341565b60405180910390f35b3480156104b957600080fd5b506104c2610c7c565b6040516104cf9190612341565b60405180910390f35b3480156104e457600080fd5b506104ed610d0a565b6040516104fa919061249d565b60405180910390f35b34801561050f57600080fd5b50610518610d0f565b604051610525919061249d565b60405180910390f35b61054860048036038101906105439190612399565b610d15565b005b34801561055657600080fd5b50610571600480360381019061056c91906126e2565b610f7c565b005b34801561057f57600080fd5b5061059a600480360381019061059591906127c3565b610f92565b005b3480156105a857600080fd5b506105b1610ff4565b6040516105be9190612341565b60405180910390f35b3480156105d357600080fd5b506105ee60048036038101906105e99190612399565b611082565b6040516105fb9190612341565b60405180910390f35b34801561061057600080fd5b5061062b60048036038101906106269190612846565b6110ea565b604051610638919061228d565b60405180910390f35b34801561064d57600080fd5b5061066860048036038101906106639190612689565b61117e565b005b34801561067657600080fd5b5061067f611202565b60405161068c919061249d565b60405180910390f35b60007f80ac58cd000000000000000000000000000000000000000000000000000000007bffffffffffffffffffffffffffffffffffffffffffffffffffffffff1916827bffffffffffffffffffffffffffffffffffffffffffffffffffffffff1916148061076057507f5b5e139f000000000000000000000000000000000000000000000000000000007bffffffffffffffffffffffffffffffffffffffffffffffffffffffff1916827bffffffffffffffffffffffffffffffffffffffffffffffffffffffff1916145b80610770575061076f8261122a565b5b9050919050565b606060008054610786906128b5565b80601f01602080910402602001604051908101604052809291908181526020018280546107b2906128b5565b80156107ff5780601f106107d4576101008083540402835291602001916107ff565b820191906000526020600020905b8154815290600101906020018083116107e257829003601f168201915b5050505050905090565b600061081482611294565b6004600083815260200190815260200160002060009054906101000a900473ffffffffffffffffffffffffffffffffffffffff169050919050565b600061085a82610a34565b90508073ffffffffffffffffffffffffffffffffffffffff168373ffffffffffffffffffffffffffffffffffffffff1614156108cb576040517f08c379a00000000000000000000000000000000000000000000000000000000081526004016108c290612959565b60405180910390fd5b8073ffffffffffffffffffffffffffffffffffffffff166108ea6112df565b73ffffffffffffffffffffffffffffffffffffffff1614806109195750610918816109136112df565b6110ea565b5b610958576040517f08c379a000000000000000000000000000000000000000000000000000000000815260040161094f906129eb565b60405180910390fd5b61096283836112e7565b505050565b60095481565b61097e6109786112df565b826113a0565b6109bd576040517f08c379a00000000000000000000000000000000000000000000000000000000081526004016109b490612a7d565b60405180910390fd5b6109c8838383611435565b505050565b6109d561172f565b600860009054906101000a900460ff1615600860006101000a81548160ff021916908315150217905550565b610a1c83838360405180602001604052806000815250610f92565b505050565b600860009054906101000a900460ff1681565b600080610a40836117ad565b9050600073ffffffffffffffffffffffffffffffffffffffff168173ffffffffffffffffffffffffffffffffffffffff161415610ab2576040517f08c379a0000000000000000000000000000000000000000000000000000000008152600401610aa990612ae9565b60405180910390fd5b80915050919050565b610ac361172f565b80600b9080519060200190610ad9929190612136565b5050565b60008073ffffffffffffffffffffffffffffffffffffffff168273ffffffffffffffffffffffffffffffffffffffff161415610b4e576040517f08c379a0000000000000000000000000000000000000000000000000000000008152600401610b4590612b7b565b60405180910390fd5b600360008373ffffffffffffffffffffffffffffffffffffffff1673ffffffffffffffffffffffffffffffffffffffff168152602001908152602001600020549050919050565b610b9d61172f565b610ba760006117ea565b565b6000600660009054906101000a900473ffffffffffffffffffffffffffffffffffffffff16905090565b600181565b610be061172f565b8060078190555050565b606060018054610bf9906128b5565b80601f0160208091040260200160405190810160405280929190818152602001828054610c25906128b5565b8015610c725780601f10610c4757610100808354040283529160200191610c72565b820191906000526020600020905b815481529060010190602001808311610c5557829003601f168201915b5050505050905090565b600b8054610c89906128b5565b80601f0160208091040260200160405190810160405280929190818152602001828054610cb5906128b5565b8015610d025780601f10610cd757610100808354040283529160200191610d02565b820191906000526020600020905b815481529060010190602001808311610ce557829003601f168201915b505050505081565b600181565b60075481565b600860009054906101000a900460ff16610d64576040517f08c379a0000000000000000000000000000000000000000000000000000000008152600401610d5b90612be7565b60405180910390fd5b6001811115610da8576040517f08c379a0000000000000000000000000000000000000000000000000000000008152600401610d9f90612c79565b60405180910390fd5b600a81600a60003373ffffffffffffffffffffffffffffffffffffffff1673ffffffffffffffffffffffffffffffffffffffff16815260200190815260200160002054610df59190612cc8565b1115610e36576040517f08c379a0000000000000000000000000000000000000000000000000000000008152600401610e2d90612d90565b60405180910390fd5b60006009549050600a8282610e4b9190612cc8565b1115610e8c576040517f08c379a0000000000000000000000000000000000000000000000000000000008152600401610e8390612dfc565b60405180910390fd5b3460075483610e9b9190612e1c565b1115610edc576040517f08c379a0000000000000000000000000000000000000000000000000000000008152600401610ed390612ee8565b60405180910390fd5b6000600190505b828111610f1357610f0033600184610efb9190612cc8565b6118b0565b8080610f0b90612f08565b915050610ee3565b5081600a60003373ffffffffffffffffffffffffffffffffffffffff1673ffffffffffffffffffffffffffffffffffffffff1681526020019081526020016000206000828254610f639190612cc8565b925050819055508181610f769190612cc8565b90505050565b610f8e610f876112df565b83836118ce565b5050565b610fa3610f9d6112df565b836113a0565b610fe2576040517f08c379a0000000000000000000000000000000000000000000000000000000008152600401610fd990612a7d565b60405180910390fd5b610fee84848484611a3b565b50505050565b600c8054611001906128b5565b80601f016020809104026020016040519081016040528092919081815260200182805461102d906128b5565b801561107a5780601f1061104f5761010080835404028352916020019161107a565b820191906000526020600020905b81548152906001019060200180831161105d57829003601f168201915b505050505081565b606061108d82611294565b6000611097611a97565b905060008151116110b757604051806020016040528060008152506110e2565b806110c184611aae565b6040516020016110d2929190612f8d565b6040516020818303038152906040525b915050919050565b6000600560008473ffffffffffffffffffffffffffffffffffffffff1673ffffffffffffffffffffffffffffffffffffffff16815260200190815260200160002060008373ffffffffffffffffffffffffffffffffffffffff1673ffffffffffffffffffffffffffffffffffffffff16815260200190815260200160002060009054906101000a900460ff16905092915050565b61118661172f565b600073ffffffffffffffffffffffffffffffffffffffff168173ffffffffffffffffffffffffffffffffffffffff1614156111f6576040517f08c379a00000000000000000000000000000000000000000000000000000000081526004016111ed90613023565b60405180910390fd5b6111ff816117ea565b50565b600a81565b6000808273ffffffffffffffffffffffffffffffffffffffff163b119050919050565b60007f01ffc9a7000000000000000000000000000000000000000000000000000000007bffffffffffffffffffffffffffffffffffffffffffffffffffffffff1916827bffffffffffffffffffffffffffffffffffffffffffffffffffffffff1916149050919050565b61129d81611b86565b6112dc576040517f08c379a00000000000000000000000000000000000000000000000000000000081526004016112d390612ae9565b60405180910390fd5b50565b600033905090565b816004600083815260200190815260200160002060006101000a81548173ffffffffffffffffffffffffffffffffffffffff021916908373ffffffffffffffffffffffffffffffffffffffff160217905550808273ffffffffffffffffffffffffffffffffffffffff1661135a83610a34565b73ffffffffffffffffffffffffffffffffffffffff167f8c5be1e5ebec7d5bd14f71427d1e84f3dd0314c0f7b2291e5b200ac8c7c3b92560405160405180910390a45050565b6000806113ac83610a34565b90508073ffffffffffffffffffffffffffffffffffffffff168473ffffffffffffffffffffffffffffffffffffffff1614806113ee57506113ed81856110ea565b5b8061142c57508373ffffffffffffffffffffffffffffffffffffffff1661141484610809565b73ffffffffffffffffffffffffffffffffffffffff16145b91505092915050565b8273ffffffffffffffffffffffffffffffffffffffff1661145582610a34565b73ffffffffffffffffffffffffffffffffffffffff16146114ab576040517f08c379a00000000000000000000000000000000000000000000000000000000081526004016114a2906130b5565b60405180910390fd5b600073ffffffffffffffffffffffffffffffffffffffff168273ffffffffffffffffffffffffffffffffffffffff16141561151b576040517f08c379a000000000000000000000000000000000000000000000000000000000815260040161151290613147565b60405180910390fd5b6115288383836001611bc7565b8273ffffffffffffffffffffffffffffffffffffffff1661154882610a34565b73ffffffffffffffffffffffffffffffffffffffff161461159e576040517f08c379a0000000000000000000000000000000000000000000000000000000008152600401611595906130b5565b60405180910390fd5b6004600082815260200190815260200160002060006101000a81549073ffffffffffffffffffffffffffffffffffffffff02191690556001600360008573ffffffffffffffffffffffffffffffffffffffff1673ffffffffffffffffffffffffffffffffffffffff168152602001908152602001600020600082825403925050819055506001600360008473ffffffffffffffffffffffffffffffffffffffff1673ffffffffffffffffffffffffffffffffffffffff16815260200190815260200160002060008282540192505081905550816002600083815260200190815260200160002060006101000a81548173ffffffffffffffffffffffffffffffffffffffff021916908373ffffffffffffffffffffffffffffffffffffffff160217905550808273ffffffffffffffffffffffffffffffffffffffff168473ffffffffffffffffffffffffffffffffffffffff167fddf252ad1be2c89b69c2b068fc378daa952ba7f163c4a11628f55a4df523b3ef60405160405180910390a461172a8383836001611bcd565b505050565b6117376112df565b73ffffffffffffffffffffffffffffffffffffffff16611755610ba9565b73ffffffffffffffffffffffffffffffffffffffff16146117ab576040517f08c379a00000000000000000000000000000000000000000000000000000000081526004016117a2906131b3565b60405180910390fd5b565b60006002600083815260200190815260200160002060009054906101000a900473ffffffffffffffffffffffffffffffffffffffff169050919050565b6000600660009054906101000a900473ffffffffffffffffffffffffffffffffffffffff16905081600660006101000a81548173ffffffffffffffffffffffffffffffffffffffff021916908373ffffffffffffffffffffffffffffffffffffffff1602179055508173ffffffffffffffffffffffffffffffffffffffff168173ffffffffffffffffffffffffffffffffffffffff167f8be0079c531659141344cd1fd0a4f28419497f9722a3daafe3b4186f6b6457e060405160405180910390a35050565b6118ca828260405180602001604052806000815250611bd3565b5050565b8173ffffffffffffffffffffffffffffffffffffffff168373ffffffffffffffffffffffffffffffffffffffff16141561193d576040517f08c379a00000000000000000000000000000000000000000000000000000000081526004016119349061321f565b60405180910390fd5b80600560008573ffffffffffffffffffffffffffffffffffffffff1673ffffffffffffffffffffffffffffffffffffffff16815260200190815260200160002060008473ffffffffffffffffffffffffffffffffffffffff1673ffffffffffffffffffffffffffffffffffffffff16815260200190815260200160002060006101000a81548160ff0219169083151502179055508173ffffffffffffffffffffffffffffffffffffffff168373ffffffffffffffffffffffffffffffffffffffff167f17307eab39ab6107e8899845ad3d59bd9653f200f220920489ca2b5937696c3183604051611a2e919061228d565b60405180910390a3505050565b611a46848484611435565b611a5284848484611c2e565b611a91576040517f08c379a0000000000000000000000000000000000000000000000000000000008152600401611a88906132b1565b60405180910390fd5b50505050565b606060405180602001604052806000815250905090565b606060006001611abd84611dc5565b01905060008167ffffffffffffffff811115611adc57611adb612515565b5b6040519080825280601f01601f191660200182016040528015611b0e5781602001600182028036833780820191505090505b509050600082602001820190505b600115611b7b578080600190039150507f3031323334353637383961626364656600000000000000000000000000000000600a86061a8153600a8581611b6557611b646132d1565b5b0494506000851415611b7657611b7b565b611b1c565b819350505050919050565b60008073ffffffffffffffffffffffffffffffffffffffff16611ba8836117ad565b73ffffffffffffffffffffffffffffffffffffffff1614159050919050565b50505050565b50505050565b611bdd8383611f18565b611bea6000848484611c2e565b611c29576040517f08c379a0000000000000000000000000000000000000000000000000000000008152600401611c20906132b1565b60405180910390fd5b505050565b6000611c4f8473ffffffffffffffffffffffffffffffffffffffff16611207565b15611db8578373ffffffffffffffffffffffffffffffffffffffff1663150b7a02611c786112df565b8786866040518563ffffffff1660e01b8152600401611c9a9493929190613355565b602060405180830381600087803b158015611cb457600080fd5b505af1925050508015611ce557506040513d601f19601f82011682018060405250810190611ce291906133b6565b60015b611d68573d8060008114611d15576040519150601f19603f3d011682016040523d82523d6000602084013e611d1a565b606091505b50600081511415611d60576040517f08c379a0000000000000000000000000000000000000000000000000000000008152600401611d57906132b1565b60405180910390fd5b805181602001fd5b63150b7a0260e01b7bffffffffffffffffffffffffffffffffffffffffffffffffffffffff1916817bffffffffffffffffffffffffffffffffffffffffffffffffffffffff191614915050611dbd565b600190505b949350505050565b600080600090507a184f03e93ff9f4daa797ed6e38ed64bf6a1f0100000000000000008310611e23577a184f03e93ff9f4daa797ed6e38ed64bf6a1f0100000000000000008381611e1957611e186132d1565b5b0492506040810190505b6d04ee2d6d415b85acef81000000008310611e60576d04ee2d6d415b85acef81000000008381611e5657611e556132d1565b5b0492506020810190505b662386f26fc100008310611e8f57662386f26fc100008381611e8557611e846132d1565b5b0492506010810190505b6305f5e1008310611eb8576305f5e1008381611eae57611ead6132d1565b5b0492506008810190505b6127108310611edd576127108381611ed357611ed26132d1565b5b0492506004810190505b60648310611f005760648381611ef657611ef56132d1565b5b0492506002810190505b600a8310611f0f576001810190505b80915050919050565b600073ffffffffffffffffffffffffffffffffffffffff168273ffffffffffffffffffffffffffffffffffffffff161415611f88576040517f08c379a0000000000000000000000000000000000000000000000000000000008152600401611f7f9061342f565b60405180910390fd5b611f9181611b86565b15611fd1576040517f08c379a0000000000000000000000000000000000000000000000000000000008152600401611fc89061349b565b60405180910390fd5b611fdf600083836001611bc7565b611fe881611b86565b15612028576040517f08c379a000000000000000000000000000000000000000000000000000000000815260040161201f9061349b565b60405180910390fd5b6001600360008473ffffffffffffffffffffffffffffffffffffffff1673ffffffffffffffffffffffffffffffffffffffff16815260200190815260200160002060008282540192505081905550816002600083815260200190815260200160002060006101000a81548173ffffffffffffffffffffffffffffffffffffffff021916908373ffffffffffffffffffffffffffffffffffffffff160217905550808273ffffffffffffffffffffffffffffffffffffffff16600073ffffffffffffffffffffffffffffffffffffffff167fddf252ad1be2c89b69c2b068fc378daa952ba7f163c4a11628f55a4df523b3ef60405160405180910390a4612132600083836001611bcd565b5050565b828054612142906128b5565b90600052602060002090601f01602090048101928261216457600085556121ab565b82601f1061217d57805160ff19168380011785556121ab565b828001600101855582156121ab579182015b828111156121aa57825182559160200191906001019061218f565b5b5090506121b891906121bc565b5090565b5b808211156121d55760008160009055506001016121bd565b5090565b6000604051905090565b600080fd5b600080fd5b60007fffffffff0000000000000000000000000000000000000000000000000000000082169050919050565b612222816121ed565b811461222d57600080fd5b50565b60008135905061223f81612219565b92915050565b60006020828403121561225b5761225a6121e3565b5b600061226984828501612230565b91505092915050565b60008115159050919050565b61228781612272565b82525050565b60006020820190506122a2600083018461227e565b92915050565b600081519050919050565b600082825260208201905092915050565b60005b838110156122e25780820151818401526020810190506122c7565b838111156122f1576000848401525b50505050565b6000601f19601f8301169050919050565b6000612313826122a8565b61231d81856122b3565b935061232d8185602086016122c4565b612336816122f7565b840191505092915050565b6000602082019050818103600083015261235b8184612308565b905092915050565b6000819050919050565b61237681612363565b811461238157600080fd5b50565b6000813590506123938161236d565b92915050565b6000602082840312156123af576123ae6121e3565b5b60006123bd84828501612384565b91505092915050565b600073ffffffffffffffffffffffffffffffffffffffff82169050919050565b60006123f1826123c6565b9050919050565b612401816123e6565b82525050565b600060208201905061241c60008301846123f8565b92915050565b61242b816123e6565b811461243657600080fd5b50565b60008135905061244881612422565b92915050565b60008060408385031215612465576124646121e3565b5b600061247385828601612439565b925050602061248485828601612384565b9150509250929050565b61249781612363565b82525050565b60006020820190506124b2600083018461248e565b92915050565b6000806000606084860312156124d1576124d06121e3565b5b60006124df86828701612439565b93505060206124f086828701612439565b925050604061250186828701612384565b9150509250925092565b600080fd5b600080fd5b7f4e487b7100000000000000000000000000000000000000000000000000000000600052604160045260246000fd5b61254d826122f7565b810181811067ffffffffffffffff8211171561256c5761256b612515565b5b80604052505050565b600061257f6121d9565b905061258b8282612544565b919050565b600067ffffffffffffffff8211156125ab576125aa612515565b5b6125b4826122f7565b9050602081019050919050565b82818337600083830152505050565b60006125e36125de84612590565b612575565b9050828152602081018484840111156125ff576125fe612510565b5b61260a8482856125c1565b509392505050565b600082601f8301126126275761262661250b565b5b81356126378482602086016125d0565b91505092915050565b600060208284031215612656576126556121e3565b5b600082013567ffffffffffffffff811115612674576126736121e8565b5b61268084828501612612565b91505092915050565b60006020828403121561269f5761269e6121e3565b5b60006126ad84828501612439565b91505092915050565b6126bf81612272565b81146126ca57600080fd5b50565b6000813590506126dc816126b6565b92915050565b600080604083850312156126f9576126f86121e3565b5b600061270785828601612439565b9250506020612718858286016126cd565b9150509250929050565b600067ffffffffffffffff82111561273d5761273c612515565b5b612746826122f7565b9050602081019050919050565b600061276661276184612722565b612575565b90508281526020810184848401111561278257612781612510565b5b61278d8482856125c1565b509392505050565b600082601f8301126127aa576127a961250b565b5b81356127ba848260208601612753565b91505092915050565b600080600080608085870312156127dd576127dc6121e3565b5b60006127eb87828801612439565b94505060206127fc87828801612439565b935050604061280d87828801612384565b925050606085013567ffffffffffffffff81111561282e5761282d6121e8565b5b61283a87828801612795565b91505092959194509250565b6000806040838503121561285d5761285c6121e3565b5b600061286b85828601612439565b925050602061287c85828601612439565b9150509250929050565b7f4e487b7100000000000000000000000000000000000000000000000000000000600052602260045260246000fd5b600060028204905060018216806128cd57607f821691505b602082108114156128e1576128e0612886565b5b50919050565b7f4552433732313a20617070726f76616c20746f2063757272656e74206f776e6560008201527f7200000000000000000000000000000000000000000000000000000000000000602082015250565b60006129436021836122b3565b915061294e826128e7565b604082019050919050565b6000602082019050818103600083015261297281612936565b9050919050565b7f4552433732313a20617070726f76652063616c6c6572206973206e6f7420746f60008201527f6b656e206f776e6572206f7220617070726f76656420666f7220616c6c000000602082015250565b60006129d5603d836122b3565b91506129e082612979565b604082019050919050565b60006020820190508181036000830152612a04816129c8565b9050919050565b7f4552433732313a2063616c6c6572206973206e6f7420746f6b656e206f776e6560008201527f72206f7220617070726f76656400000000000000000000000000000000000000602082015250565b6000612a67602d836122b3565b9150612a7282612a0b565b604082019050919050565b60006020820190508181036000830152612a9681612a5a565b9050919050565b7f4552433732313a20696e76616c696420746f6b656e2049440000000000000000600082015250565b6000612ad36018836122b3565b9150612ade82612a9d565b602082019050919050565b60006020820190508181036000830152612b0281612ac6565b9050919050565b7f4552433732313a2061646472657373207a65726f206973206e6f74206120766160008201527f6c6964206f776e65720000000000000000000000000000000000000000000000602082015250565b6000612b656029836122b3565b9150612b7082612b09565b604082019050919050565b60006020820190508181036000830152612b9481612b58565b9050919050565b7f5468652073616c65206973207061757365640000000000000000000000000000600082015250565b6000612bd16012836122b3565b9150612bdc82612b9b565b602082019050919050565b60006020820190508181036000830152612c0081612bc4565b9050919050565b7f596f752063616e206f6e6c79206d696e742061206d6178696d756d206f66202760008201527f4d41585f4d494e545f5045525f54582700000000000000000000000000000000602082015250565b6000612c636030836122b3565b9150612c6e82612c07565b604082019050919050565b60006020820190508181036000830152612c9281612c56565b9050919050565b7f4e487b7100000000000000000000000000000000000000000000000000000000600052601160045260246000fd5b6000612cd382612363565b9150612cde83612363565b9250827fffffffffffffffffffffffffffffffffffffffffffffffffffffffffffffffff03821115612d1357612d12612c99565b5b828201905092915050565b7f596f752063616e206f6e6c79206d696e7420274d41585f4d494e545f5045525f60008201527f545827207065722057616c6c6574000000000000000000000000000000000000602082015250565b6000612d7a602e836122b3565b9150612d8582612d1e565b604082019050919050565b60006020820190508181036000830152612da981612d6d565b9050919050565b7f4578636565647320274d41585f544f4b454e5327000000000000000000000000600082015250565b6000612de66014836122b3565b9150612df182612db0565b602082019050919050565b60006020820190508181036000830152612e1581612dd9565b9050919050565b6000612e2782612363565b9150612e3283612363565b9250817fffffffffffffffffffffffffffffffffffffffffffffffffffffffffffffffff0483118215151615612e6b57612e6a612c99565b5b828202905092915050565b7f496e73756666696369656e742066756e64732e20596f75206e656564206d6f7260008201527f2045544821000000000000000000000000000000000000000000000000000000602082015250565b6000612ed26025836122b3565b9150612edd82612e76565b604082019050919050565b60006020820190508181036000830152612f0181612ec5565b9050919050565b6000612f1382612363565b91507fffffffffffffffffffffffffffffffffffffffffffffffffffffffffffffffff821415612f4657612f45612c99565b5b600182019050919050565b600081905092915050565b6000612f67826122a8565b612f718185612f51565b9350612f818185602086016122c4565b80840191505092915050565b6000612f998285612f5c565b9150612fa58284612f5c565b91508190509392505050565b7f4f776e61626c653a206e6577206f776e657220697320746865207a65726f206160008201527f6464726573730000000000000000000000000000000000000000000000000000602082015250565b600061300d6026836122b3565b915061301882612fb1565b604082019050919050565b6000602082019050818103600083015261303c81613000565b9050919050565b7f4552433732313a207472616e736665722066726f6d20696e636f72726563742060008201527f6f776e6572000000000000000000000000000000000000000000000000000000602082015250565b600061309f6025836122b3565b91506130aa82613043565b604082019050919050565b600060208201905081810360008301526130ce81613092565b9050919050565b7f4552433732313a207472616e7366657220746f20746865207a65726f2061646460008201527f7265737300000000000000000000000000000000000000000000000000000000602082015250565b60006131316024836122b3565b915061313c826130d5565b604082019050919050565b6000602082019050818103600083015261316081613124565b9050919050565b7f4f776e61626c653a2063616c6c6572206973206e6f7420746865206f776e6572600082015250565b600061319d6020836122b3565b91506131a882613167565b602082019050919050565b600060208201905081810360008301526131cc81613190565b9050919050565b7f4552433732313a20617070726f766520746f2063616c6c657200000000000000600082015250565b60006132096019836122b3565b9150613214826131d3565b602082019050919050565b60006020820190508181036000830152613238816131fc565b9050919050565b7f4552433732313a207472616e7366657220746f206e6f6e20455243373231526560008201527f63656976657220696d706c656d656e7465720000000000000000000000000000602082015250565b600061329b6032836122b3565b91506132a68261323f565b604082019050919050565b600060208201905081810360008301526132ca8161328e565b9050919050565b7f4e487b7100000000000000000000000000000000000000000000000000000000600052601260045260246000fd5b600081519050919050565b600082825260208201905092915050565b600061332782613300565b613331818561330b565b93506133418185602086016122c4565b61334a816122f7565b840191505092915050565b600060808201905061336a60008301876123f8565b61337760208301866123f8565b613384604083018561248e565b8181036060830152613396818461331c565b905095945050505050565b6000815190506133b081612219565b92915050565b6000602082840312156133cc576133cb6121e3565b5b60006133da848285016133a1565b91505092915050565b7f4552433732313a206d696e7420746f20746865207a65726f2061646472657373600082015250565b60006134196020836122b3565b9150613424826133e3565b602082019050919050565b600060208201905081810360008301526134488161340c565b9050919050565b7f4552433732313a20746f6b656e20616c7265616479206d696e74656400000000600082015250565b6000613485601c836122b3565b91506134908261344f565b602082019050919050565b600060208201905081810360008301526134b481613478565b905091905056fea2646970667358221220d9d01f92ef06553ed6b2a462dc571758dc17ca0aa0cba704c9e676b365010cc064736f6c63430008090033697066733a2f2f787878787878787878787878787878787878787878787878787878782f",
			"opcodes": "PUSH1 0x80 PUSH1 0x40 MSTORE PUSH1 0x0 PUSH1 0x7 SSTORE PUSH1 0x40 MLOAD DUP1 PUSH1 0x40 ADD PUSH1 0x40 MSTORE DUP1 PUSH1 0x5 DUP2 MSTORE PUSH1 0x20 ADD PUSH32 0x2E6A736F6E000000000000000000000000000000000000000000000000000000 DUP2 MSTORE POP PUSH1 0xC SWAP1 DUP1 MLOAD SWAP1 PUSH1 0x20 ADD SWAP1 PUSH3 0x56 SWAP3 SWAP2 SWAP1 PUSH3 0x7AE JUMP JUMPDEST POP CALLVALUE DUP1 ISZERO PUSH3 0x64 JUMPI PUSH1 0x0 DUP1 REVERT JUMPDEST POP PUSH1 0x40 MLOAD DUP1 PUSH1 0x40 ADD PUSH1 0x40 MSTORE DUP1 PUSH1 0x10 DUP2 MSTORE PUSH1 0x20 ADD PUSH32 0x456E64616C6C20426174616E204E465400000000000000000000000000000000 DUP2 MSTORE POP PUSH1 0x40 MLOAD DUP1 PUSH1 0x40 ADD PUSH1 0x40 MSTORE DUP1 PUSH1 0x6 DUP2 MSTORE PUSH1 0x20 ADD PUSH32 0x45422D4E46540000000000000000000000000000000000000000000000000000 DUP2 MSTORE POP DUP2 PUSH1 0x0 SWAP1 DUP1 MLOAD SWAP1 PUSH1 0x20 ADD SWAP1 PUSH3 0xE9 SWAP3 SWAP2 SWAP1 PUSH3 0x7AE JUMP JUMPDEST POP DUP1 PUSH1 0x1 SWAP1 DUP1 MLOAD SWAP1 PUSH1 0x20 ADD SWAP1 PUSH3 0x102 SWAP3 SWAP2 SWAP1 PUSH3 0x7AE JUMP JUMPDEST POP POP POP PUSH3 0x125 PUSH3 0x119 PUSH3 0x196 PUSH1 0x20 SHL PUSH1 0x20 SHR JUMP JUMPDEST PUSH3 0x19E PUSH1 0x20 SHL PUSH1 0x20 SHR JUMP JUMPDEST PUSH1 0x40 MLOAD DUP1 PUSH1 0x60 ADD PUSH1 0x40 MSTORE DUP1 PUSH1 0x24 DUP2 MSTORE PUSH1 0x20 ADD PUSH3 0x41BA PUSH1 0x24 SWAP2 CODECOPY PUSH1 0xB SWAP1 DUP1 MLOAD SWAP1 PUSH1 0x20 ADD SWAP1 PUSH3 0x156 SWAP3 SWAP2 SWAP1 PUSH3 0x7AE JUMP JUMPDEST POP PUSH1 0x0 PUSH1 0x1 SWAP1 POP JUMPDEST PUSH1 0x1 DUP2 GT PUSH3 0x18F JUMPI PUSH3 0x179 CALLER DUP3 PUSH3 0x264 PUSH1 0x20 SHL PUSH1 0x20 SHR JUMP JUMPDEST DUP1 DUP1 PUSH3 0x186 SWAP1 PUSH3 0x897 JUMP JUMPDEST SWAP2 POP POP PUSH3 0x15E JUMP JUMPDEST POP PUSH3 0xCB9 JUMP JUMPDEST PUSH1 0x0 CALLER SWAP1 POP SWAP1 JUMP JUMPDEST PUSH1 0x0 PUSH1 0x6 PUSH1 0x0 SWAP1 SLOAD SWAP1 PUSH2 0x100 EXP SWAP1 DIV PUSH20 0xFFFFFFFFFFFFFFFFFFFFFFFFFFFFFFFFFFFFFFFF AND SWAP1 POP DUP2 PUSH1 0x6 PUSH1 0x0 PUSH2 0x100 EXP DUP2 SLOAD DUP2 PUSH20 0xFFFFFFFFFFFFFFFFFFFFFFFFFFFFFFFFFFFFFFFF MUL NOT AND SWAP1 DUP4 PUSH20 0xFFFFFFFFFFFFFFFFFFFFFFFFFFFFFFFFFFFFFFFF AND MUL OR SWAP1 SSTORE POP DUP2 PUSH20 0xFFFFFFFFFFFFFFFFFFFFFFFFFFFFFFFFFFFFFFFF AND DUP2 PUSH20 0xFFFFFFFFFFFFFFFFFFFFFFFFFFFFFFFFFFFFFFFF AND PUSH32 0x8BE0079C531659141344CD1FD0A4F28419497F9722A3DAAFE3B4186F6B6457E0 PUSH1 0x40 MLOAD PUSH1 0x40 MLOAD DUP1 SWAP2 SUB SWAP1 LOG3 POP POP JUMP JUMPDEST PUSH3 0x286 DUP3 DUP3 PUSH1 0x40 MLOAD DUP1 PUSH1 0x20 ADD PUSH1 0x40 MSTORE DUP1 PUSH1 0x0 DUP2 MSTORE POP PUSH3 0x28A PUSH1 0x20 SHL PUSH1 0x20 SHR JUMP JUMPDEST POP POP JUMP JUMPDEST PUSH3 0x29C DUP4 DUP4 PUSH3 0x2F8 PUSH1 0x20 SHL PUSH1 0x20 SHR JUMP JUMPDEST PUSH3 0x2B1 PUSH1 0x0 DUP5 DUP5 DUP5 PUSH3 0x53F PUSH1 0x20 SHL PUSH1 0x20 SHR JUMP JUMPDEST PUSH3 0x2F3 JUMPI PUSH1 0x40 MLOAD PUSH32 0x8C379A000000000000000000000000000000000000000000000000000000000 DUP2 MSTORE PUSH1 0x4 ADD PUSH3 0x2EA SWAP1 PUSH3 0x96C JUMP JUMPDEST PUSH1 0x40 MLOAD DUP1 SWAP2 SUB SWAP1 REVERT JUMPDEST POP POP POP JUMP JUMPDEST PUSH1 0x0 PUSH20 0xFFFFFFFFFFFFFFFFFFFFFFFFFFFFFFFFFFFFFFFF AND DUP3 PUSH20 0xFFFFFFFFFFFFFFFFFFFFFFFFFFFFFFFFFFFFFFFF AND EQ ISZERO PUSH3 0x36B JUMPI PUSH1 0x40 MLOAD PUSH32 0x8C379A000000000000000000000000000000000000000000000000000000000 DUP2 MSTORE PUSH1 0x4 ADD PUSH3 0x362 SWAP1 PUSH3 0x9DE JUMP JUMPDEST PUSH1 0x40 MLOAD DUP1 SWAP2 SUB SWAP1 REVERT JUMPDEST PUSH3 0x37C DUP2 PUSH3 0x6F9 PUSH1 0x20 SHL PUSH1 0x20 SHR JUMP JUMPDEST ISZERO PUSH3 0x3BF JUMPI PUSH1 0x40 MLOAD PUSH32 0x8C379A000000000000000000000000000000000000000000000000000000000 DUP2 MSTORE PUSH1 0x4 ADD PUSH3 0x3B6 SWAP1 PUSH3 0xA50 JUMP JUMPDEST PUSH1 0x40 MLOAD DUP1 SWAP2 SUB SWAP1 REVERT JUMPDEST PUSH3 0x3D5 PUSH1 0x0 DUP4 DUP4 PUSH1 0x1 PUSH3 0x742 PUSH1 0x20 SHL PUSH1 0x20 SHR JUMP JUMPDEST PUSH3 0x3E6 DUP2 PUSH3 0x6F9 PUSH1 0x20 SHL PUSH1 0x20 SHR JUMP JUMPDEST ISZERO PUSH3 0x429 JUMPI PUSH1 0x40 MLOAD PUSH32 0x8C379A000000000000000000000000000000000000000000000000000000000 DUP2 MSTORE PUSH1 0x4 ADD PUSH3 0x420 SWAP1 PUSH3 0xA50 JUMP JUMPDEST PUSH1 0x40 MLOAD DUP1 SWAP2 SUB SWAP1 REVERT JUMPDEST PUSH1 0x1 PUSH1 0x3 PUSH1 0x0 DUP5 PUSH20 0xFFFFFFFFFFFFFFFFFFFFFFFFFFFFFFFFFFFFFFFF AND PUSH20 0xFFFFFFFFFFFFFFFFFFFFFFFFFFFFFFFFFFFFFFFF AND DUP2 MSTORE PUSH1 0x20 ADD SWAP1 DUP2 MSTORE PUSH1 0x20 ADD PUSH1 0x0 KECCAK256 PUSH1 0x0 DUP3 DUP3 SLOAD ADD SWAP3 POP POP DUP2 SWAP1 SSTORE POP DUP2 PUSH1 0x2 PUSH1 0x0 DUP4 DUP2 MSTORE PUSH1 0x20 ADD SWAP1 DUP2 MSTORE PUSH1 0x20 ADD PUSH1 0x0 KECCAK256 PUSH1 0x0 PUSH2 0x100 EXP DUP2 SLOAD DUP2 PUSH20 0xFFFFFFFFFFFFFFFFFFFFFFFFFFFFFFFFFFFFFFFF MUL NOT AND SWAP1 DUP4 PUSH20 0xFFFFFFFFFFFFFFFFFFFFFFFFFFFFFFFFFFFFFFFF AND MUL OR SWAP1 SSTORE POP DUP1 DUP3 PUSH20 0xFFFFFFFFFFFFFFFFFFFFFFFFFFFFFFFFFFFFFFFF AND PUSH1 0x0 PUSH20 0xFFFFFFFFFFFFFFFFFFFFFFFFFFFFFFFFFFFFFFFF AND PUSH32 0xDDF252AD1BE2C89B69C2B068FC378DAA952BA7F163C4A11628F55A4DF523B3EF PUSH1 0x40 MLOAD PUSH1 0x40 MLOAD DUP1 SWAP2 SUB SWAP1 LOG4 PUSH3 0x53B PUSH1 0x0 DUP4 DUP4 PUSH1 0x1 PUSH3 0x748 PUSH1 0x20 SHL PUSH1 0x20 SHR JUMP JUMPDEST POP POP JUMP JUMPDEST PUSH1 0x0 PUSH3 0x56D DUP5 PUSH20 0xFFFFFFFFFFFFFFFFFFFFFFFFFFFFFFFFFFFFFFFF AND PUSH3 0x74E PUSH1 0x20 SHL PUSH3 0x1207 OR PUSH1 0x20 SHR JUMP JUMPDEST ISZERO PUSH3 0x6EC JUMPI DUP4 PUSH20 0xFFFFFFFFFFFFFFFFFFFFFFFFFFFFFFFFFFFFFFFF AND PUSH4 0x150B7A02 PUSH3 0x59F PUSH3 0x196 PUSH1 0x20 SHL PUSH1 0x20 SHR JUMP JUMPDEST DUP8 DUP7 DUP7 PUSH1 0x40 MLOAD DUP6 PUSH4 0xFFFFFFFF AND PUSH1 0xE0 SHL DUP2 MSTORE PUSH1 0x4 ADD PUSH3 0x5C3 SWAP5 SWAP4 SWAP3 SWAP2 SWAP1 PUSH3 0xB6C JUMP JUMPDEST PUSH1 0x20 PUSH1 0x40 MLOAD DUP1 DUP4 SUB DUP2 PUSH1 0x0 DUP8 DUP1 EXTCODESIZE ISZERO DUP1 ISZERO PUSH3 0x5DE JUMPI PUSH1 0x0 DUP1 REVERT JUMPDEST POP GAS CALL SWAP3 POP POP POP DUP1 ISZERO PUSH3 0x612 JUMPI POP PUSH1 0x40 MLOAD RETURNDATASIZE PUSH1 0x1F NOT PUSH1 0x1F DUP3 ADD AND DUP3 ADD DUP1 PUSH1 0x40 MSTORE POP DUP2 ADD SWAP1 PUSH3 0x60F SWAP2 SWAP1 PUSH3 0xC22 JUMP JUMPDEST PUSH1 0x1 JUMPDEST PUSH3 0x69B JUMPI RETURNDATASIZE DUP1 PUSH1 0x0 DUP2 EQ PUSH3 0x645 JUMPI PUSH1 0x40 MLOAD SWAP2 POP PUSH1 0x1F NOT PUSH1 0x3F RETURNDATASIZE ADD AND DUP3 ADD PUSH1 0x40 MSTORE RETURNDATASIZE DUP3 MSTORE RETURNDATASIZE PUSH1 0x0 PUSH1 0x20 DUP5 ADD RETURNDATACOPY PUSH3 0x64A JUMP JUMPDEST PUSH1 0x60 SWAP2 POP JUMPDEST POP PUSH1 0x0 DUP2 MLOAD EQ ISZERO PUSH3 0x693 JUMPI PUSH1 0x40 MLOAD PUSH32 0x8C379A000000000000000000000000000000000000000000000000000000000 DUP2 MSTORE PUSH1 0x4 ADD PUSH3 0x68A SWAP1 PUSH3 0x96C JUMP JUMPDEST PUSH1 0x40 MLOAD DUP1 SWAP2 SUB SWAP1 REVERT JUMPDEST DUP1 MLOAD DUP2 PUSH1 0x20 ADD REVERT JUMPDEST PUSH4 0x150B7A02 PUSH1 0xE0 SHL PUSH28 0xFFFFFFFFFFFFFFFFFFFFFFFFFFFFFFFFFFFFFFFFFFFFFFFFFFFFFFFF NOT AND DUP2 PUSH28 0xFFFFFFFFFFFFFFFFFFFFFFFFFFFFFFFFFFFFFFFFFFFFFFFFFFFFFFFF NOT AND EQ SWAP2 POP POP PUSH3 0x6F1 JUMP JUMPDEST PUSH1 0x1 SWAP1 POP JUMPDEST SWAP5 SWAP4 POP POP POP POP JUMP JUMPDEST PUSH1 0x0 DUP1 PUSH20 0xFFFFFFFFFFFFFFFFFFFFFFFFFFFFFFFFFFFFFFFF AND PUSH3 0x723 DUP4 PUSH3 0x771 PUSH1 0x20 SHL PUSH1 0x20 SHR JUMP JUMPDEST PUSH20 0xFFFFFFFFFFFFFFFFFFFFFFFFFFFFFFFFFFFFFFFF AND EQ ISZERO SWAP1 POP SWAP2 SWAP1 POP JUMP JUMPDEST POP POP POP POP JUMP JUMPDEST POP POP POP POP JUMP JUMPDEST PUSH1 0x0 DUP1 DUP3 PUSH20 0xFFFFFFFFFFFFFFFFFFFFFFFFFFFFFFFFFFFFFFFF AND EXTCODESIZE GT SWAP1 POP SWAP2 SWAP1 POP JUMP JUMPDEST PUSH1 0x0 PUSH1 0x2 PUSH1 0x0 DUP4 DUP2 MSTORE PUSH1 0x20 ADD SWAP1 DUP2 MSTORE PUSH1 0x20 ADD PUSH1 0x0 KECCAK256 PUSH1 0x0 SWAP1 SLOAD SWAP1 PUSH2 0x100 EXP SWAP1 DIV PUSH20 0xFFFFFFFFFFFFFFFFFFFFFFFFFFFFFFFFFFFFFFFF AND SWAP1 POP SWAP2 SWAP1 POP JUMP JUMPDEST DUP3 DUP1 SLOAD PUSH3 0x7BC SWAP1 PUSH3 0xC83 JUMP JUMPDEST SWAP1 PUSH1 0x0 MSTORE PUSH1 0x20 PUSH1 0x0 KECCAK256 SWAP1 PUSH1 0x1F ADD PUSH1 0x20 SWAP1 DIV DUP2 ADD SWAP3 DUP3 PUSH3 0x7E0 JUMPI PUSH1 0x0 DUP6 SSTORE PUSH3 0x82C JUMP JUMPDEST DUP3 PUSH1 0x1F LT PUSH3 0x7FB JUMPI DUP1 MLOAD PUSH1 0xFF NOT AND DUP4 DUP1 ADD OR DUP6 SSTORE PUSH3 0x82C JUMP JUMPDEST DUP3 DUP1 ADD PUSH1 0x1 ADD DUP6 SSTORE DUP3 ISZERO PUSH3 0x82C JUMPI SWAP2 DUP3 ADD JUMPDEST DUP3 DUP2 GT ISZERO PUSH3 0x82B JUMPI DUP3 MLOAD DUP3 SSTORE SWAP2 PUSH1 0x20 ADD SWAP2 SWAP1 PUSH1 0x1 ADD SWAP1 PUSH3 0x80E JUMP JUMPDEST JUMPDEST POP SWAP1 POP PUSH3 0x83B SWAP2 SWAP1 PUSH3 0x83F JUMP JUMPDEST POP SWAP1 JUMP JUMPDEST JUMPDEST DUP1 DUP3 GT ISZERO PUSH3 0x85A JUMPI PUSH1 0x0 DUP2 PUSH1 0x0 SWAP1 SSTORE POP PUSH1 0x1 ADD PUSH3 0x840 JUMP JUMPDEST POP SWAP1 JUMP JUMPDEST PUSH32 0x4E487B7100000000000000000000000000000000000000000000000000000000 PUSH1 0x0 MSTORE PUSH1 0x11 PUSH1 0x4 MSTORE PUSH1 0x24 PUSH1 0x0 REVERT JUMPDEST PUSH1 0x0 DUP2 SWAP1 POP SWAP2 SWAP1 POP JUMP JUMPDEST PUSH1 0x0 PUSH3 0x8A4 DUP3 PUSH3 0x88D JUMP JUMPDEST SWAP2 POP PUSH32 0xFFFFFFFFFFFFFFFFFFFFFFFFFFFFFFFFFFFFFFFFFFFFFFFFFFFFFFFFFFFFFFFF DUP3 EQ ISZERO PUSH3 0x8DA JUMPI PUSH3 0x8D9 PUSH3 0x85E JUMP JUMPDEST JUMPDEST PUSH1 0x1 DUP3 ADD SWAP1 POP SWAP2 SWAP1 POP JUMP JUMPDEST PUSH1 0x0 DUP3 DUP3 MSTORE PUSH1 0x20 DUP3 ADD SWAP1 POP SWAP3 SWAP2 POP POP JUMP JUMPDEST PUSH32 0x4552433732313A207472616E7366657220746F206E6F6E204552433732315265 PUSH1 0x0 DUP3 ADD MSTORE PUSH32 0x63656976657220696D706C656D656E7465720000000000000000000000000000 PUSH1 0x20 DUP3 ADD MSTORE POP JUMP JUMPDEST PUSH1 0x0 PUSH3 0x954 PUSH1 0x32 DUP4 PUSH3 0x8E5 JUMP JUMPDEST SWAP2 POP PUSH3 0x961 DUP3 PUSH3 0x8F6 JUMP JUMPDEST PUSH1 0x40 DUP3 ADD SWAP1 POP SWAP2 SWAP1 POP JUMP JUMPDEST PUSH1 0x0 PUSH1 0x20 DUP3 ADD SWAP1 POP DUP2 DUP2 SUB PUSH1 0x0 DUP4 ADD MSTORE PUSH3 0x987 DUP2 PUSH3 0x945 JUMP JUMPDEST SWAP1 POP SWAP2 SWAP1 POP JUMP JUMPDEST PUSH32 0x4552433732313A206D696E7420746F20746865207A65726F2061646472657373 PUSH1 0x0 DUP3 ADD MSTORE POP JUMP JUMPDEST PUSH1 0x0 PUSH3 0x9C6 PUSH1 0x20 DUP4 PUSH3 0x8E5 JUMP JUMPDEST SWAP2 POP PUSH3 0x9D3 DUP3 PUSH3 0x98E JUMP JUMPDEST PUSH1 0x20 DUP3 ADD SWAP1 POP SWAP2 SWAP1 POP JUMP JUMPDEST PUSH1 0x0 PUSH1 0x20 DUP3 ADD SWAP1 POP DUP2 DUP2 SUB PUSH1 0x0 DUP4 ADD MSTORE PUSH3 0x9F9 DUP2 PUSH3 0x9B7 JUMP JUMPDEST SWAP1 POP SWAP2 SWAP1 POP JUMP JUMPDEST PUSH32 0x4552433732313A20746F6B656E20616C7265616479206D696E74656400000000 PUSH1 0x0 DUP3 ADD MSTORE POP JUMP JUMPDEST PUSH1 0x0 PUSH3 0xA38 PUSH1 0x1C DUP4 PUSH3 0x8E5 JUMP JUMPDEST SWAP2 POP PUSH3 0xA45 DUP3 PUSH3 0xA00 JUMP JUMPDEST PUSH1 0x20 DUP3 ADD SWAP1 POP SWAP2 SWAP1 POP JUMP JUMPDEST PUSH1 0x0 PUSH1 0x20 DUP3 ADD SWAP1 POP DUP2 DUP2 SUB PUSH1 0x0 DUP4 ADD MSTORE PUSH3 0xA6B DUP2 PUSH3 0xA29 JUMP JUMPDEST SWAP1 POP SWAP2 SWAP1 POP JUMP JUMPDEST PUSH1 0x0 PUSH20 0xFFFFFFFFFFFFFFFFFFFFFFFFFFFFFFFFFFFFFFFF DUP3 AND SWAP1 POP SWAP2 SWAP1 POP JUMP JUMPDEST PUSH1 0x0 PUSH3 0xA9F DUP3 PUSH3 0xA72 JUMP JUMPDEST SWAP1 POP SWAP2 SWAP1 POP JUMP JUMPDEST PUSH3 0xAB1 DUP2 PUSH3 0xA92 JUMP JUMPDEST DUP3 MSTORE POP POP JUMP JUMPDEST PUSH3 0xAC2 DUP2 PUSH3 0x88D JUMP JUMPDEST DUP3 MSTORE POP POP JUMP JUMPDEST PUSH1 0x0 DUP2 MLOAD SWAP1 POP SWAP2 SWAP1 POP JUMP JUMPDEST PUSH1 0x0 DUP3 DUP3 MSTORE PUSH1 0x20 DUP3 ADD SWAP1 POP SWAP3 SWAP2 POP POP JUMP JUMPDEST PUSH1 0x0 JUMPDEST DUP4 DUP2 LT ISZERO PUSH3 0xB04 JUMPI DUP1 DUP3 ADD MLOAD DUP2 DUP5 ADD MSTORE PUSH1 0x20 DUP2 ADD SWAP1 POP PUSH3 0xAE7 JUMP JUMPDEST DUP4 DUP2 GT ISZERO PUSH3 0xB14 JUMPI PUSH1 0x0 DUP5 DUP5 ADD MSTORE JUMPDEST POP POP POP POP JUMP JUMPDEST PUSH1 0x0 PUSH1 0x1F NOT PUSH1 0x1F DUP4 ADD AND SWAP1 POP SWAP2 SWAP1 POP JUMP JUMPDEST PUSH1 0x0 PUSH3 0xB38 DUP3 PUSH3 0xAC8 JUMP JUMPDEST PUSH3 0xB44 DUP2 DUP6 PUSH3 0xAD3 JUMP JUMPDEST SWAP4 POP PUSH3 0xB56 DUP2 DUP6 PUSH1 0x20 DUP7 ADD PUSH3 0xAE4 JUMP JUMPDEST PUSH3 0xB61 DUP2 PUSH3 0xB1A JUMP JUMPDEST DUP5 ADD SWAP2 POP POP SWAP3 SWAP2 POP POP JUMP JUMPDEST PUSH1 0x0 PUSH1 0x80 DUP3 ADD SWAP1 POP PUSH3 0xB83 PUSH1 0x0 DUP4 ADD DUP8 PUSH3 0xAA6 JUMP JUMPDEST PUSH3 0xB92 PUSH1 0x20 DUP4 ADD DUP7 PUSH3 0xAA6 JUMP JUMPDEST PUSH3 0xBA1 PUSH1 0x40 DUP4 ADD DUP6 PUSH3 0xAB7 JUMP JUMPDEST DUP2 DUP2 SUB PUSH1 0x60 DUP4 ADD MSTORE PUSH3 0xBB5 DUP2 DUP5 PUSH3 0xB2B JUMP JUMPDEST SWAP1 POP SWAP6 SWAP5 POP POP POP POP POP JUMP JUMPDEST PUSH1 0x0 DUP1 REVERT JUMPDEST PUSH1 0x0 PUSH32 0xFFFFFFFF00000000000000000000000000000000000000000000000000000000 DUP3 AND SWAP1 POP SWAP2 SWAP1 POP JUMP JUMPDEST PUSH3 0xBFC DUP2 PUSH3 0xBC5 JUMP JUMPDEST DUP2 EQ PUSH3 0xC08 JUMPI PUSH1 0x0 DUP1 REVERT JUMPDEST POP JUMP JUMPDEST PUSH1 0x0 DUP2 MLOAD SWAP1 POP PUSH3 0xC1C DUP2 PUSH3 0xBF1 JUMP JUMPDEST SWAP3 SWAP2 POP POP JUMP JUMPDEST PUSH1 0x0 PUSH1 0x20 DUP3 DUP5 SUB SLT ISZERO PUSH3 0xC3B JUMPI PUSH3 0xC3A PUSH3 0xBC0 JUMP JUMPDEST JUMPDEST PUSH1 0x0 PUSH3 0xC4B DUP5 DUP3 DUP6 ADD PUSH3 0xC0B JUMP JUMPDEST SWAP2 POP POP SWAP3 SWAP2 POP POP JUMP JUMPDEST PUSH32 0x4E487B7100000000000000000000000000000000000000000000000000000000 PUSH1 0x0 MSTORE PUSH1 0x22 PUSH1 0x4 MSTORE PUSH1 0x24 PUSH1 0x0 REVERT JUMPDEST PUSH1 0x0 PUSH1 0x2 DUP3 DIV SWAP1 POP PUSH1 0x1 DUP3 AND DUP1 PUSH3 0xC9C JUMPI PUSH1 0x7F DUP3 AND SWAP2 POP JUMPDEST PUSH1 0x20 DUP3 LT DUP2 EQ ISZERO PUSH3 0xCB3 JUMPI PUSH3 0xCB2 PUSH3 0xC54 JUMP JUMPDEST JUMPDEST POP SWAP2 SWAP1 POP JUMP JUMPDEST PUSH2 0x34F1 DUP1 PUSH3 0xCC9 PUSH1 0x0 CODECOPY PUSH1 0x0 RETURN INVALID PUSH1 0x80 PUSH1 0x40 MSTORE PUSH1 0x4 CALLDATASIZE LT PUSH2 0x1B7 JUMPI PUSH1 0x0 CALLDATALOAD PUSH1 0xE0 SHR DUP1 PUSH4 0x8ECAD721 GT PUSH2 0xEC JUMPI DUP1 PUSH4 0xA22CB465 GT PUSH2 0x8A JUMPI DUP1 PUSH4 0xC87B56DD GT PUSH2 0x64 JUMPI DUP1 PUSH4 0xC87B56DD EQ PUSH2 0x5C7 JUMPI DUP1 PUSH4 0xE985E9C5 EQ PUSH2 0x604 JUMPI DUP1 PUSH4 0xF2FDE38B EQ PUSH2 0x641 JUMPI DUP1 PUSH4 0xF47C84C5 EQ PUSH2 0x66A JUMPI PUSH2 0x1B7 JUMP JUMPDEST DUP1 PUSH4 0xA22CB465 EQ PUSH2 0x54A JUMPI DUP1 PUSH4 0xB88D4FDE EQ PUSH2 0x573 JUMPI DUP1 PUSH4 0xC6682862 EQ PUSH2 0x59C JUMPI PUSH2 0x1B7 JUMP JUMPDEST DUP1 PUSH4 0x9ABC8320 GT PUSH2 0xC6 JUMPI DUP1 PUSH4 0x9ABC8320 EQ PUSH2 0x4AD JUMPI DUP1 PUSH4 0x9FD07CF0 EQ PUSH2 0x4D8 JUMPI DUP1 PUSH4 0xA035B1FE EQ PUSH2 0x503 JUMPI DUP1 PUSH4 0xA0712D68 EQ PUSH2 0x52E JUMPI PUSH2 0x1B7 JUMP JUMPDEST DUP1 PUSH4 0x8ECAD721 EQ PUSH2 0x42E JUMPI DUP1 PUSH4 0x91B7F5ED EQ PUSH2 0x459 JUMPI DUP1 PUSH4 0x95D89B41 EQ PUSH2 0x482 JUMPI PUSH2 0x1B7 JUMP JUMPDEST DUP1 PUSH4 0x42842E0E GT PUSH2 0x159 JUMPI DUP1 PUSH4 0x63DAA09B GT PUSH2 0x133 JUMPI DUP1 PUSH4 0x63DAA09B EQ PUSH2 0x386 JUMPI DUP1 PUSH4 0x70A08231 EQ PUSH2 0x3AF JUMPI DUP1 PUSH4 0x715018A6 EQ PUSH2 0x3EC JUMPI DUP1 PUSH4 0x8DA5CB5B EQ PUSH2 0x403 JUMPI PUSH2 0x1B7 JUMP JUMPDEST DUP1 PUSH4 0x42842E0E EQ PUSH2 0x2F5 JUMPI DUP1 PUSH4 0x564566A8 EQ PUSH2 0x31E JUMPI DUP1 PUSH4 0x6352211E EQ PUSH2 0x349 JUMPI PUSH2 0x1B7 JUMP JUMPDEST DUP1 PUSH4 0x95EA7B3 GT PUSH2 0x195 JUMPI DUP1 PUSH4 0x95EA7B3 EQ PUSH2 0x261 JUMPI DUP1 PUSH4 0x18160DDD EQ PUSH2 0x28A JUMPI DUP1 PUSH4 0x23B872DD EQ PUSH2 0x2B5 JUMPI DUP1 PUSH4 0x34918DFD EQ PUSH2 0x2DE JUMPI PUSH2 0x1B7 JUMP JUMPDEST DUP1 PUSH4 0x1FFC9A7 EQ PUSH2 0x1BC JUMPI DUP1 PUSH4 0x6FDDE03 EQ PUSH2 0x1F9 JUMPI DUP1 PUSH4 0x81812FC EQ PUSH2 0x224 JUMPI JUMPDEST PUSH1 0x0 DUP1 REVERT JUMPDEST CALLVALUE DUP1 ISZERO PUSH2 0x1C8 JUMPI PUSH1 0x0 DUP1 REVERT JUMPDEST POP PUSH2 0x1E3 PUSH1 0x4 DUP1 CALLDATASIZE SUB DUP2 ADD SWAP1 PUSH2 0x1DE SWAP2 SWAP1 PUSH2 0x2245 JUMP JUMPDEST PUSH2 0x695 JUMP JUMPDEST PUSH1 0x40 MLOAD PUSH2 0x1F0 SWAP2 SWAP1 PUSH2 0x228D JUMP JUMPDEST PUSH1 0x40 MLOAD DUP1 SWAP2 SUB SWAP1 RETURN JUMPDEST CALLVALUE DUP1 ISZERO PUSH2 0x205 JUMPI PUSH1 0x0 DUP1 REVERT JUMPDEST POP PUSH2 0x20E PUSH2 0x777 JUMP JUMPDEST PUSH1 0x40 MLOAD PUSH2 0x21B SWAP2 SWAP1 PUSH2 0x2341 JUMP JUMPDEST PUSH1 0x40 MLOAD DUP1 SWAP2 SUB SWAP1 RETURN JUMPDEST CALLVALUE DUP1 ISZERO PUSH2 0x230 JUMPI PUSH1 0x0 DUP1 REVERT JUMPDEST POP PUSH2 0x24B PUSH1 0x4 DUP1 CALLDATASIZE SUB DUP2 ADD SWAP1 PUSH2 0x246 SWAP2 SWAP1 PUSH2 0x2399 JUMP JUMPDEST PUSH2 0x809 JUMP JUMPDEST PUSH1 0x40 MLOAD PUSH2 0x258 SWAP2 SWAP1 PUSH2 0x2407 JUMP JUMPDEST PUSH1 0x40 MLOAD DUP1 SWAP2 SUB SWAP1 RETURN JUMPDEST CALLVALUE DUP1 ISZERO PUSH2 0x26D JUMPI PUSH1 0x0 DUP1 REVERT JUMPDEST POP PUSH2 0x288 PUSH1 0x4 DUP1 CALLDATASIZE SUB DUP2 ADD SWAP1 PUSH2 0x283 SWAP2 SWAP1 PUSH2 0x244E JUMP JUMPDEST PUSH2 0x84F JUMP JUMPDEST STOP JUMPDEST CALLVALUE DUP1 ISZERO PUSH2 0x296 JUMPI PUSH1 0x0 DUP1 REVERT JUMPDEST POP PUSH2 0x29F PUSH2 0x967 JUMP JUMPDEST PUSH1 0x40 MLOAD PUSH2 0x2AC SWAP2 SWAP1 PUSH2 0x249D JUMP JUMPDEST PUSH1 0x40 MLOAD DUP1 SWAP2 SUB SWAP1 RETURN JUMPDEST CALLVALUE DUP1 ISZERO PUSH2 0x2C1 JUMPI PUSH1 0x0 DUP1 REVERT JUMPDEST POP PUSH2 0x2DC PUSH1 0x4 DUP1 CALLDATASIZE SUB DUP2 ADD SWAP1 PUSH2 0x2D7 SWAP2 SWAP1 PUSH2 0x24B8 JUMP JUMPDEST PUSH2 0x96D JUMP JUMPDEST STOP JUMPDEST CALLVALUE DUP1 ISZERO PUSH2 0x2EA JUMPI PUSH1 0x0 DUP1 REVERT JUMPDEST POP PUSH2 0x2F3 PUSH2 0x9CD JUMP JUMPDEST STOP JUMPDEST CALLVALUE DUP1 ISZERO PUSH2 0x301 JUMPI PUSH1 0x0 DUP1 REVERT JUMPDEST POP PUSH2 0x31C PUSH1 0x4 DUP1 CALLDATASIZE SUB DUP2 ADD SWAP1 PUSH2 0x317 SWAP2 SWAP1 PUSH2 0x24B8 JUMP JUMPDEST PUSH2 0xA01 JUMP JUMPDEST STOP JUMPDEST CALLVALUE DUP1 ISZERO PUSH2 0x32A JUMPI PUSH1 0x0 DUP1 REVERT JUMPDEST POP PUSH2 0x333 PUSH2 0xA21 JUMP JUMPDEST PUSH1 0x40 MLOAD PUSH2 0x340 SWAP2 SWAP1 PUSH2 0x228D JUMP JUMPDEST PUSH1 0x40 MLOAD DUP1 SWAP2 SUB SWAP1 RETURN JUMPDEST CALLVALUE DUP1 ISZERO PUSH2 0x355 JUMPI PUSH1 0x0 DUP1 REVERT JUMPDEST POP PUSH2 0x370 PUSH1 0x4 DUP1 CALLDATASIZE SUB DUP2 ADD SWAP1 PUSH2 0x36B SWAP2 SWAP1 PUSH2 0x2399 JUMP JUMPDEST PUSH2 0xA34 JUMP JUMPDEST PUSH1 0x40 MLOAD PUSH2 0x37D SWAP2 SWAP1 PUSH2 0x2407 JUMP JUMPDEST PUSH1 0x40 MLOAD DUP1 SWAP2 SUB SWAP1 RETURN JUMPDEST CALLVALUE DUP1 ISZERO PUSH2 0x392 JUMPI PUSH1 0x0 DUP1 REVERT JUMPDEST POP PUSH2 0x3AD PUSH1 0x4 DUP1 CALLDATASIZE SUB DUP2 ADD SWAP1 PUSH2 0x3A8 SWAP2 SWAP1 PUSH2 0x2640 JUMP JUMPDEST PUSH2 0xABB JUMP JUMPDEST STOP JUMPDEST CALLVALUE DUP1 ISZERO PUSH2 0x3BB JUMPI PUSH1 0x0 DUP1 REVERT JUMPDEST POP PUSH2 0x3D6 PUSH1 0x4 DUP1 CALLDATASIZE SUB DUP2 ADD SWAP1 PUSH2 0x3D1 SWAP2 SWAP1 PUSH2 0x2689 JUMP JUMPDEST PUSH2 0xADD JUMP JUMPDEST PUSH1 0x40 MLOAD PUSH2 0x3E3 SWAP2 SWAP1 PUSH2 0x249D JUMP JUMPDEST PUSH1 0x40 MLOAD DUP1 SWAP2 SUB SWAP1 RETURN JUMPDEST CALLVALUE DUP1 ISZERO PUSH2 0x3F8 JUMPI PUSH1 0x0 DUP1 REVERT JUMPDEST POP PUSH2 0x401 PUSH2 0xB95 JUMP JUMPDEST STOP JUMPDEST CALLVALUE DUP1 ISZERO PUSH2 0x40F JUMPI PUSH1 0x0 DUP1 REVERT JUMPDEST POP PUSH2 0x418 PUSH2 0xBA9 JUMP JUMPDEST PUSH1 0x40 MLOAD PUSH2 0x425 SWAP2 SWAP1 PUSH2 0x2407 JUMP JUMPDEST PUSH1 0x40 MLOAD DUP1 SWAP2 SUB SWAP1 RETURN JUMPDEST CALLVALUE DUP1 ISZERO PUSH2 0x43A JUMPI PUSH1 0x0 DUP1 REVERT JUMPDEST POP PUSH2 0x443 PUSH2 0xBD3 JUMP JUMPDEST PUSH1 0x40 MLOAD PUSH2 0x450 SWAP2 SWAP1 PUSH2 0x249D JUMP JUMPDEST PUSH1 0x40 MLOAD DUP1 SWAP2 SUB SWAP1 RETURN JUMPDEST CALLVALUE DUP1 ISZERO PUSH2 0x465 JUMPI PUSH1 0x0 DUP1 REVERT JUMPDEST POP PUSH2 0x480 PUSH1 0x4 DUP1 CALLDATASIZE SUB DUP2 ADD SWAP1 PUSH2 0x47B SWAP2 SWAP1 PUSH2 0x2399 JUMP JUMPDEST PUSH2 0xBD8 JUMP JUMPDEST STOP JUMPDEST CALLVALUE DUP1 ISZERO PUSH2 0x48E JUMPI PUSH1 0x0 DUP1 REVERT JUMPDEST POP PUSH2 0x497 PUSH2 0xBEA JUMP JUMPDEST PUSH1 0x40 MLOAD PUSH2 0x4A4 SWAP2 SWAP1 PUSH2 0x2341 JUMP JUMPDEST PUSH1 0x40 MLOAD DUP1 SWAP2 SUB SWAP1 RETURN JUMPDEST CALLVALUE DUP1 ISZERO PUSH2 0x4B9 JUMPI PUSH1 0x0 DUP1 REVERT JUMPDEST POP PUSH2 0x4C2 PUSH2 0xC7C JUMP JUMPDEST PUSH1 0x40 MLOAD PUSH2 0x4CF SWAP2 SWAP1 PUSH2 0x2341 JUMP JUMPDEST PUSH1 0x40 MLOAD DUP1 SWAP2 SUB SWAP1 RETURN JUMPDEST CALLVALUE DUP1 ISZERO PUSH2 0x4E4 JUMPI PUSH1 0x0 DUP1 REVERT JUMPDEST POP PUSH2 0x4ED PUSH2 0xD0A JUMP JUMPDEST PUSH1 0x40 MLOAD PUSH2 0x4FA SWAP2 SWAP1 PUSH2 0x249D JUMP JUMPDEST PUSH1 0x40 MLOAD DUP1 SWAP2 SUB SWAP1 RETURN JUMPDEST CALLVALUE DUP1 ISZERO PUSH2 0x50F JUMPI PUSH1 0x0 DUP1 REVERT JUMPDEST POP PUSH2 0x518 PUSH2 0xD0F JUMP JUMPDEST PUSH1 0x40 MLOAD PUSH2 0x525 SWAP2 SWAP1 PUSH2 0x249D JUMP JUMPDEST PUSH1 0x40 MLOAD DUP1 SWAP2 SUB SWAP1 RETURN JUMPDEST PUSH2 0x548 PUSH1 0x4 DUP1 CALLDATASIZE SUB DUP2 ADD SWAP1 PUSH2 0x543 SWAP2 SWAP1 PUSH2 0x2399 JUMP JUMPDEST PUSH2 0xD15 JUMP JUMPDEST STOP JUMPDEST CALLVALUE DUP1 ISZERO PUSH2 0x556 JUMPI PUSH1 0x0 DUP1 REVERT JUMPDEST POP PUSH2 0x571 PUSH1 0x4 DUP1 CALLDATASIZE SUB DUP2 ADD SWAP1 PUSH2 0x56C SWAP2 SWAP1 PUSH2 0x26E2 JUMP JUMPDEST PUSH2 0xF7C JUMP JUMPDEST STOP JUMPDEST CALLVALUE DUP1 ISZERO PUSH2 0x57F JUMPI PUSH1 0x0 DUP1 REVERT JUMPDEST POP PUSH2 0x59A PUSH1 0x4 DUP1 CALLDATASIZE SUB DUP2 ADD SWAP1 PUSH2 0x595 SWAP2 SWAP1 PUSH2 0x27C3 JUMP JUMPDEST PUSH2 0xF92 JUMP JUMPDEST STOP JUMPDEST CALLVALUE DUP1 ISZERO PUSH2 0x5A8 JUMPI PUSH1 0x0 DUP1 REVERT JUMPDEST POP PUSH2 0x5B1 PUSH2 0xFF4 JUMP JUMPDEST PUSH1 0x40 MLOAD PUSH2 0x5BE SWAP2 SWAP1 PUSH2 0x2341 JUMP JUMPDEST PUSH1 0x40 MLOAD DUP1 SWAP2 SUB SWAP1 RETURN JUMPDEST CALLVALUE DUP1 ISZERO PUSH2 0x5D3 JUMPI PUSH1 0x0 DUP1 REVERT JUMPDEST POP PUSH2 0x5EE PUSH1 0x4 DUP1 CALLDATASIZE SUB DUP2 ADD SWAP1 PUSH2 0x5E9 SWAP2 SWAP1 PUSH2 0x2399 JUMP JUMPDEST PUSH2 0x1082 JUMP JUMPDEST PUSH1 0x40 MLOAD PUSH2 0x5FB SWAP2 SWAP1 PUSH2 0x2341 JUMP JUMPDEST PUSH1 0x40 MLOAD DUP1 SWAP2 SUB SWAP1 RETURN JUMPDEST CALLVALUE DUP1 ISZERO PUSH2 0x610 JUMPI PUSH1 0x0 DUP1 REVERT JUMPDEST POP PUSH2 0x62B PUSH1 0x4 DUP1 CALLDATASIZE SUB DUP2 ADD SWAP1 PUSH2 0x626 SWAP2 SWAP1 PUSH2 0x2846 JUMP JUMPDEST PUSH2 0x10EA JUMP JUMPDEST PUSH1 0x40 MLOAD PUSH2 0x638 SWAP2 SWAP1 PUSH2 0x228D JUMP JUMPDEST PUSH1 0x40 MLOAD DUP1 SWAP2 SUB SWAP1 RETURN JUMPDEST CALLVALUE DUP1 ISZERO PUSH2 0x64D JUMPI PUSH1 0x0 DUP1 REVERT JUMPDEST POP PUSH2 0x668 PUSH1 0x4 DUP1 CALLDATASIZE SUB DUP2 ADD SWAP1 PUSH2 0x663 SWAP2 SWAP1 PUSH2 0x2689 JUMP JUMPDEST PUSH2 0x117E JUMP JUMPDEST STOP JUMPDEST CALLVALUE DUP1 ISZERO PUSH2 0x676 JUMPI PUSH1 0x0 DUP1 REVERT JUMPDEST POP PUSH2 0x67F PUSH2 0x1202 JUMP JUMPDEST PUSH1 0x40 MLOAD PUSH2 0x68C SWAP2 SWAP1 PUSH2 0x249D JUMP JUMPDEST PUSH1 0x40 MLOAD DUP1 SWAP2 SUB SWAP1 RETURN JUMPDEST PUSH1 0x0 PUSH32 0x80AC58CD00000000000000000000000000000000000000000000000000000000 PUSH28 0xFFFFFFFFFFFFFFFFFFFFFFFFFFFFFFFFFFFFFFFFFFFFFFFFFFFFFFFF NOT AND DUP3 PUSH28 0xFFFFFFFFFFFFFFFFFFFFFFFFFFFFFFFFFFFFFFFFFFFFFFFFFFFFFFFF NOT AND EQ DUP1 PUSH2 0x760 JUMPI POP PUSH32 0x5B5E139F00000000000000000000000000000000000000000000000000000000 PUSH28 0xFFFFFFFFFFFFFFFFFFFFFFFFFFFFFFFFFFFFFFFFFFFFFFFFFFFFFFFF NOT AND DUP3 PUSH28 0xFFFFFFFFFFFFFFFFFFFFFFFFFFFFFFFFFFFFFFFFFFFFFFFFFFFFFFFF NOT AND EQ JUMPDEST DUP1 PUSH2 0x770 JUMPI POP PUSH2 0x76F DUP3 PUSH2 0x122A JUMP JUMPDEST JUMPDEST SWAP1 POP SWAP2 SWAP1 POP JUMP JUMPDEST PUSH1 0x60 PUSH1 0x0 DUP1 SLOAD PUSH2 0x786 SWAP1 PUSH2 0x28B5 JUMP JUMPDEST DUP1 PUSH1 0x1F ADD PUSH1 0x20 DUP1 SWAP2 DIV MUL PUSH1 0x20 ADD PUSH1 0x40 MLOAD SWAP1 DUP2 ADD PUSH1 0x40 MSTORE DUP1 SWAP3 SWAP2 SWAP1 DUP2 DUP2 MSTORE PUSH1 0x20 ADD DUP3 DUP1 SLOAD PUSH2 0x7B2 SWAP1 PUSH2 0x28B5 JUMP JUMPDEST DUP1 ISZERO PUSH2 0x7FF JUMPI DUP1 PUSH1 0x1F LT PUSH2 0x7D4 JUMPI PUSH2 0x100 DUP1 DUP4 SLOAD DIV MUL DUP4 MSTORE SWAP2 PUSH1 0x20 ADD SWAP2 PUSH2 0x7FF JUMP JUMPDEST DUP3 ADD SWAP2 SWAP1 PUSH1 0x0 MSTORE PUSH1 0x20 PUSH1 0x0 KECCAK256 SWAP1 JUMPDEST DUP2 SLOAD DUP2 MSTORE SWAP1 PUSH1 0x1 ADD SWAP1 PUSH1 0x20 ADD DUP1 DUP4 GT PUSH2 0x7E2 JUMPI DUP3 SWAP1 SUB PUSH1 0x1F AND DUP3 ADD SWAP2 JUMPDEST POP POP POP POP POP SWAP1 POP SWAP1 JUMP JUMPDEST PUSH1 0x0 PUSH2 0x814 DUP3 PUSH2 0x1294 JUMP JUMPDEST PUSH1 0x4 PUSH1 0x0 DUP4 DUP2 MSTORE PUSH1 0x20 ADD SWAP1 DUP2 MSTORE PUSH1 0x20 ADD PUSH1 0x0 KECCAK256 PUSH1 0x0 SWAP1 SLOAD SWAP1 PUSH2 0x100 EXP SWAP1 DIV PUSH20 0xFFFFFFFFFFFFFFFFFFFFFFFFFFFFFFFFFFFFFFFF AND SWAP1 POP SWAP2 SWAP1 POP JUMP JUMPDEST PUSH1 0x0 PUSH2 0x85A DUP3 PUSH2 0xA34 JUMP JUMPDEST SWAP1 POP DUP1 PUSH20 0xFFFFFFFFFFFFFFFFFFFFFFFFFFFFFFFFFFFFFFFF AND DUP4 PUSH20 0xFFFFFFFFFFFFFFFFFFFFFFFFFFFFFFFFFFFFFFFF AND EQ ISZERO PUSH2 0x8CB JUMPI PUSH1 0x40 MLOAD PUSH32 0x8C379A000000000000000000000000000000000000000000000000000000000 DUP2 MSTORE PUSH1 0x4 ADD PUSH2 0x8C2 SWAP1 PUSH2 0x2959 JUMP JUMPDEST PUSH1 0x40 MLOAD DUP1 SWAP2 SUB SWAP1 REVERT JUMPDEST DUP1 PUSH20 0xFFFFFFFFFFFFFFFFFFFFFFFFFFFFFFFFFFFFFFFF AND PUSH2 0x8EA PUSH2 0x12DF JUMP JUMPDEST PUSH20 0xFFFFFFFFFFFFFFFFFFFFFFFFFFFFFFFFFFFFFFFF AND EQ DUP1 PUSH2 0x919 JUMPI POP PUSH2 0x918 DUP2 PUSH2 0x913 PUSH2 0x12DF JUMP JUMPDEST PUSH2 0x10EA JUMP JUMPDEST JUMPDEST PUSH2 0x958 JUMPI PUSH1 0x40 MLOAD PUSH32 0x8C379A000000000000000000000000000000000000000000000000000000000 DUP2 MSTORE PUSH1 0x4 ADD PUSH2 0x94F SWAP1 PUSH2 0x29EB JUMP JUMPDEST PUSH1 0x40 MLOAD DUP1 SWAP2 SUB SWAP1 REVERT JUMPDEST PUSH2 0x962 DUP4 DUP4 PUSH2 0x12E7 JUMP JUMPDEST POP POP POP JUMP JUMPDEST PUSH1 0x9 SLOAD DUP2 JUMP JUMPDEST PUSH2 0x97E PUSH2 0x978 PUSH2 0x12DF JUMP JUMPDEST DUP3 PUSH2 0x13A0 JUMP JUMPDEST PUSH2 0x9BD JUMPI PUSH1 0x40 MLOAD PUSH32 0x8C379A000000000000000000000000000000000000000000000000000000000 DUP2 MSTORE PUSH1 0x4 ADD PUSH2 0x9B4 SWAP1 PUSH2 0x2A7D JUMP JUMPDEST PUSH1 0x40 MLOAD DUP1 SWAP2 SUB SWAP1 REVERT JUMPDEST PUSH2 0x9C8 DUP4 DUP4 DUP4 PUSH2 0x1435 JUMP JUMPDEST POP POP POP JUMP JUMPDEST PUSH2 0x9D5 PUSH2 0x172F JUMP JUMPDEST PUSH1 0x8 PUSH1 0x0 SWAP1 SLOAD SWAP1 PUSH2 0x100 EXP SWAP1 DIV PUSH1 0xFF AND ISZERO PUSH1 0x8 PUSH1 0x0 PUSH2 0x100 EXP DUP2 SLOAD DUP2 PUSH1 0xFF MUL NOT AND SWAP1 DUP4 ISZERO ISZERO MUL OR SWAP1 SSTORE POP JUMP JUMPDEST PUSH2 0xA1C DUP4 DUP4 DUP4 PUSH1 0x40 MLOAD DUP1 PUSH1 0x20 ADD PUSH1 0x40 MSTORE DUP1 PUSH1 0x0 DUP2 MSTORE POP PUSH2 0xF92 JUMP JUMPDEST POP POP POP JUMP JUMPDEST PUSH1 0x8 PUSH1 0x0 SWAP1 SLOAD SWAP1 PUSH2 0x100 EXP SWAP1 DIV PUSH1 0xFF AND DUP2 JUMP JUMPDEST PUSH1 0x0 DUP1 PUSH2 0xA40 DUP4 PUSH2 0x17AD JUMP JUMPDEST SWAP1 POP PUSH1 0x0 PUSH20 0xFFFFFFFFFFFFFFFFFFFFFFFFFFFFFFFFFFFFFFFF AND DUP2 PUSH20 0xFFFFFFFFFFFFFFFFFFFFFFFFFFFFFFFFFFFFFFFF AND EQ ISZERO PUSH2 0xAB2 JUMPI PUSH1 0x40 MLOAD PUSH32 0x8C379A000000000000000000000000000000000000000000000000000000000 DUP2 MSTORE PUSH1 0x4 ADD PUSH2 0xAA9 SWAP1 PUSH2 0x2AE9 JUMP JUMPDEST PUSH1 0x40 MLOAD DUP1 SWAP2 SUB SWAP1 REVERT JUMPDEST DUP1 SWAP2 POP POP SWAP2 SWAP1 POP JUMP JUMPDEST PUSH2 0xAC3 PUSH2 0x172F JUMP JUMPDEST DUP1 PUSH1 0xB SWAP1 DUP1 MLOAD SWAP1 PUSH1 0x20 ADD SWAP1 PUSH2 0xAD9 SWAP3 SWAP2 SWAP1 PUSH2 0x2136 JUMP JUMPDEST POP POP JUMP JUMPDEST PUSH1 0x0 DUP1 PUSH20 0xFFFFFFFFFFFFFFFFFFFFFFFFFFFFFFFFFFFFFFFF AND DUP3 PUSH20 0xFFFFFFFFFFFFFFFFFFFFFFFFFFFFFFFFFFFFFFFF AND EQ ISZERO PUSH2 0xB4E JUMPI PUSH1 0x40 MLOAD PUSH32 0x8C379A000000000000000000000000000000000000000000000000000000000 DUP2 MSTORE PUSH1 0x4 ADD PUSH2 0xB45 SWAP1 PUSH2 0x2B7B JUMP JUMPDEST PUSH1 0x40 MLOAD DUP1 SWAP2 SUB SWAP1 REVERT JUMPDEST PUSH1 0x3 PUSH1 0x0 DUP4 PUSH20 0xFFFFFFFFFFFFFFFFFFFFFFFFFFFFFFFFFFFFFFFF AND PUSH20 0xFFFFFFFFFFFFFFFFFFFFFFFFFFFFFFFFFFFFFFFF AND DUP2 MSTORE PUSH1 0x20 ADD SWAP1 DUP2 MSTORE PUSH1 0x20 ADD PUSH1 0x0 KECCAK256 SLOAD SWAP1 POP SWAP2 SWAP1 POP JUMP JUMPDEST PUSH2 0xB9D PUSH2 0x172F JUMP JUMPDEST PUSH2 0xBA7 PUSH1 0x0 PUSH2 0x17EA JUMP JUMPDEST JUMP JUMPDEST PUSH1 0x0 PUSH1 0x6 PUSH1 0x0 SWAP1 SLOAD SWAP1 PUSH2 0x100 EXP SWAP1 DIV PUSH20 0xFFFFFFFFFFFFFFFFFFFFFFFFFFFFFFFFFFFFFFFF AND SWAP1 POP SWAP1 JUMP JUMPDEST PUSH1 0x1 DUP2 JUMP JUMPDEST PUSH2 0xBE0 PUSH2 0x172F JUMP JUMPDEST DUP1 PUSH1 0x7 DUP2 SWAP1 SSTORE POP POP JUMP JUMPDEST PUSH1 0x60 PUSH1 0x1 DUP1 SLOAD PUSH2 0xBF9 SWAP1 PUSH2 0x28B5 JUMP JUMPDEST DUP1 PUSH1 0x1F ADD PUSH1 0x20 DUP1 SWAP2 DIV MUL PUSH1 0x20 ADD PUSH1 0x40 MLOAD SWAP1 DUP2 ADD PUSH1 0x40 MSTORE DUP1 SWAP3 SWAP2 SWAP1 DUP2 DUP2 MSTORE PUSH1 0x20 ADD DUP3 DUP1 SLOAD PUSH2 0xC25 SWAP1 PUSH2 0x28B5 JUMP JUMPDEST DUP1 ISZERO PUSH2 0xC72 JUMPI DUP1 PUSH1 0x1F LT PUSH2 0xC47 JUMPI PUSH2 0x100 DUP1 DUP4 SLOAD DIV MUL DUP4 MSTORE SWAP2 PUSH1 0x20 ADD SWAP2 PUSH2 0xC72 JUMP JUMPDEST DUP3 ADD SWAP2 SWAP1 PUSH1 0x0 MSTORE PUSH1 0x20 PUSH1 0x0 KECCAK256 SWAP1 JUMPDEST DUP2 SLOAD DUP2 MSTORE SWAP1 PUSH1 0x1 ADD SWAP1 PUSH1 0x20 ADD DUP1 DUP4 GT PUSH2 0xC55 JUMPI DUP3 SWAP1 SUB PUSH1 0x1F AND DUP3 ADD SWAP2 JUMPDEST POP POP POP POP POP SWAP1 POP SWAP1 JUMP JUMPDEST PUSH1 0xB DUP1 SLOAD PUSH2 0xC89 SWAP1 PUSH2 0x28B5 JUMP JUMPDEST DUP1 PUSH1 0x1F ADD PUSH1 0x20 DUP1 SWAP2 DIV MUL PUSH1 0x20 ADD PUSH1 0x40 MLOAD SWAP1 DUP2 ADD PUSH1 0x40 MSTORE DUP1 SWAP3 SWAP2 SWAP1 DUP2 DUP2 MSTORE PUSH1 0x20 ADD DUP3 DUP1 SLOAD PUSH2 0xCB5 SWAP1 PUSH2 0x28B5 JUMP JUMPDEST DUP1 ISZERO PUSH2 0xD02 JUMPI DUP1 PUSH1 0x1F LT PUSH2 0xCD7 JUMPI PUSH2 0x100 DUP1 DUP4 SLOAD DIV MUL DUP4 MSTORE SWAP2 PUSH1 0x20 ADD SWAP2 PUSH2 0xD02 JUMP JUMPDEST DUP3 ADD SWAP2 SWAP1 PUSH1 0x0 MSTORE PUSH1 0x20 PUSH1 0x0 KECCAK256 SWAP1 JUMPDEST DUP2 SLOAD DUP2 MSTORE SWAP1 PUSH1 0x1 ADD SWAP1 PUSH1 0x20 ADD DUP1 DUP4 GT PUSH2 0xCE5 JUMPI DUP3 SWAP1 SUB PUSH1 0x1F AND DUP3 ADD SWAP2 JUMPDEST POP POP POP POP POP DUP2 JUMP JUMPDEST PUSH1 0x1 DUP2 JUMP JUMPDEST PUSH1 0x7 SLOAD DUP2 JUMP JUMPDEST PUSH1 0x8 PUSH1 0x0 SWAP1 SLOAD SWAP1 PUSH2 0x100 EXP SWAP1 DIV PUSH1 0xFF AND PUSH2 0xD64 JUMPI PUSH1 0x40 MLOAD PUSH32 0x8C379A000000000000000000000000000000000000000000000000000000000 DUP2 MSTORE PUSH1 0x4 ADD PUSH2 0xD5B SWAP1 PUSH2 0x2BE7 JUMP JUMPDEST PUSH1 0x40 MLOAD DUP1 SWAP2 SUB SWAP1 REVERT JUMPDEST PUSH1 0x1 DUP2 GT ISZERO PUSH2 0xDA8 JUMPI PUSH1 0x40 MLOAD PUSH32 0x8C379A000000000000000000000000000000000000000000000000000000000 DUP2 MSTORE PUSH1 0x4 ADD PUSH2 0xD9F SWAP1 PUSH2 0x2C79 JUMP JUMPDEST PUSH1 0x40 MLOAD DUP1 SWAP2 SUB SWAP1 REVERT JUMPDEST PUSH1 0xA DUP2 PUSH1 0xA PUSH1 0x0 CALLER PUSH20 0xFFFFFFFFFFFFFFFFFFFFFFFFFFFFFFFFFFFFFFFF AND PUSH20 0xFFFFFFFFFFFFFFFFFFFFFFFFFFFFFFFFFFFFFFFF AND DUP2 MSTORE PUSH1 0x20 ADD SWAP1 DUP2 MSTORE PUSH1 0x20 ADD PUSH1 0x0 KECCAK256 SLOAD PUSH2 0xDF5 SWAP2 SWAP1 PUSH2 0x2CC8 JUMP JUMPDEST GT ISZERO PUSH2 0xE36 JUMPI PUSH1 0x40 MLOAD PUSH32 0x8C379A000000000000000000000000000000000000000000000000000000000 DUP2 MSTORE PUSH1 0x4 ADD PUSH2 0xE2D SWAP1 PUSH2 0x2D90 JUMP JUMPDEST PUSH1 0x40 MLOAD DUP1 SWAP2 SUB SWAP1 REVERT JUMPDEST PUSH1 0x0 PUSH1 0x9 SLOAD SWAP1 POP PUSH1 0xA DUP3 DUP3 PUSH2 0xE4B SWAP2 SWAP1 PUSH2 0x2CC8 JUMP JUMPDEST GT ISZERO PUSH2 0xE8C JUMPI PUSH1 0x40 MLOAD PUSH32 0x8C379A000000000000000000000000000000000000000000000000000000000 DUP2 MSTORE PUSH1 0x4 ADD PUSH2 0xE83 SWAP1 PUSH2 0x2DFC JUMP JUMPDEST PUSH1 0x40 MLOAD DUP1 SWAP2 SUB SWAP1 REVERT JUMPDEST CALLVALUE PUSH1 0x7 SLOAD DUP4 PUSH2 0xE9B SWAP2 SWAP1 PUSH2 0x2E1C JUMP JUMPDEST GT ISZERO PUSH2 0xEDC JUMPI PUSH1 0x40 MLOAD PUSH32 0x8C379A000000000000000000000000000000000000000000000000000000000 DUP2 MSTORE PUSH1 0x4 ADD PUSH2 0xED3 SWAP1 PUSH2 0x2EE8 JUMP JUMPDEST PUSH1 0x40 MLOAD DUP1 SWAP2 SUB SWAP1 REVERT JUMPDEST PUSH1 0x0 PUSH1 0x1 SWAP1 POP JUMPDEST DUP3 DUP2 GT PUSH2 0xF13 JUMPI PUSH2 0xF00 CALLER PUSH1 0x1 DUP5 PUSH2 0xEFB SWAP2 SWAP1 PUSH2 0x2CC8 JUMP JUMPDEST PUSH2 0x18B0 JUMP JUMPDEST DUP1 DUP1 PUSH2 0xF0B SWAP1 PUSH2 0x2F08 JUMP JUMPDEST SWAP2 POP POP PUSH2 0xEE3 JUMP JUMPDEST POP DUP2 PUSH1 0xA PUSH1 0x0 CALLER PUSH20 0xFFFFFFFFFFFFFFFFFFFFFFFFFFFFFFFFFFFFFFFF AND PUSH20 0xFFFFFFFFFFFFFFFFFFFFFFFFFFFFFFFFFFFFFFFF AND DUP2 MSTORE PUSH1 0x20 ADD SWAP1 DUP2 MSTORE PUSH1 0x20 ADD PUSH1 0x0 KECCAK256 PUSH1 0x0 DUP3 DUP3 SLOAD PUSH2 0xF63 SWAP2 SWAP1 PUSH2 0x2CC8 JUMP JUMPDEST SWAP3 POP POP DUP2 SWAP1 SSTORE POP DUP2 DUP2 PUSH2 0xF76 SWAP2 SWAP1 PUSH2 0x2CC8 JUMP JUMPDEST SWAP1 POP POP POP JUMP JUMPDEST PUSH2 0xF8E PUSH2 0xF87 PUSH2 0x12DF JUMP JUMPDEST DUP4 DUP4 PUSH2 0x18CE JUMP JUMPDEST POP POP JUMP JUMPDEST PUSH2 0xFA3 PUSH2 0xF9D PUSH2 0x12DF JUMP JUMPDEST DUP4 PUSH2 0x13A0 JUMP JUMPDEST PUSH2 0xFE2 JUMPI PUSH1 0x40 MLOAD PUSH32 0x8C379A000000000000000000000000000000000000000000000000000000000 DUP2 MSTORE PUSH1 0x4 ADD PUSH2 0xFD9 SWAP1 PUSH2 0x2A7D JUMP JUMPDEST PUSH1 0x40 MLOAD DUP1 SWAP2 SUB SWAP1 REVERT JUMPDEST PUSH2 0xFEE DUP5 DUP5 DUP5 DUP5 PUSH2 0x1A3B JUMP JUMPDEST POP POP POP POP JUMP JUMPDEST PUSH1 0xC DUP1 SLOAD PUSH2 0x1001 SWAP1 PUSH2 0x28B5 JUMP JUMPDEST DUP1 PUSH1 0x1F ADD PUSH1 0x20 DUP1 SWAP2 DIV MUL PUSH1 0x20 ADD PUSH1 0x40 MLOAD SWAP1 DUP2 ADD PUSH1 0x40 MSTORE DUP1 SWAP3 SWAP2 SWAP1 DUP2 DUP2 MSTORE PUSH1 0x20 ADD DUP3 DUP1 SLOAD PUSH2 0x102D SWAP1 PUSH2 0x28B5 JUMP JUMPDEST DUP1 ISZERO PUSH2 0x107A JUMPI DUP1 PUSH1 0x1F LT PUSH2 0x104F JUMPI PUSH2 0x100 DUP1 DUP4 SLOAD DIV MUL DUP4 MSTORE SWAP2 PUSH1 0x20 ADD SWAP2 PUSH2 0x107A JUMP JUMPDEST DUP3 ADD SWAP2 SWAP1 PUSH1 0x0 MSTORE PUSH1 0x20 PUSH1 0x0 KECCAK256 SWAP1 JUMPDEST DUP2 SLOAD DUP2 MSTORE SWAP1 PUSH1 0x1 ADD SWAP1 PUSH1 0x20 ADD DUP1 DUP4 GT PUSH2 0x105D JUMPI DUP3 SWAP1 SUB PUSH1 0x1F AND DUP3 ADD SWAP2 JUMPDEST POP POP POP POP POP DUP2 JUMP JUMPDEST PUSH1 0x60 PUSH2 0x108D DUP3 PUSH2 0x1294 JUMP JUMPDEST PUSH1 0x0 PUSH2 0x1097 PUSH2 0x1A97 JUMP JUMPDEST SWAP1 POP PUSH1 0x0 DUP2 MLOAD GT PUSH2 0x10B7 JUMPI PUSH1 0x40 MLOAD DUP1 PUSH1 0x20 ADD PUSH1 0x40 MSTORE DUP1 PUSH1 0x0 DUP2 MSTORE POP PUSH2 0x10E2 JUMP JUMPDEST DUP1 PUSH2 0x10C1 DUP5 PUSH2 0x1AAE JUMP JUMPDEST PUSH1 0x40 MLOAD PUSH1 0x20 ADD PUSH2 0x10D2 SWAP3 SWAP2 SWAP1 PUSH2 0x2F8D JUMP JUMPDEST PUSH1 0x40 MLOAD PUSH1 0x20 DUP2 DUP4 SUB SUB DUP2 MSTORE SWAP1 PUSH1 0x40 MSTORE JUMPDEST SWAP2 POP POP SWAP2 SWAP1 POP JUMP JUMPDEST PUSH1 0x0 PUSH1 0x5 PUSH1 0x0 DUP5 PUSH20 0xFFFFFFFFFFFFFFFFFFFFFFFFFFFFFFFFFFFFFFFF AND PUSH20 0xFFFFFFFFFFFFFFFFFFFFFFFFFFFFFFFFFFFFFFFF AND DUP2 MSTORE PUSH1 0x20 ADD SWAP1 DUP2 MSTORE PUSH1 0x20 ADD PUSH1 0x0 KECCAK256 PUSH1 0x0 DUP4 PUSH20 0xFFFFFFFFFFFFFFFFFFFFFFFFFFFFFFFFFFFFFFFF AND PUSH20 0xFFFFFFFFFFFFFFFFFFFFFFFFFFFFFFFFFFFFFFFF AND DUP2 MSTORE PUSH1 0x20 ADD SWAP1 DUP2 MSTORE PUSH1 0x20 ADD PUSH1 0x0 KECCAK256 PUSH1 0x0 SWAP1 SLOAD SWAP1 PUSH2 0x100 EXP SWAP1 DIV PUSH1 0xFF AND SWAP1 POP SWAP3 SWAP2 POP POP JUMP JUMPDEST PUSH2 0x1186 PUSH2 0x172F JUMP JUMPDEST PUSH1 0x0 PUSH20 0xFFFFFFFFFFFFFFFFFFFFFFFFFFFFFFFFFFFFFFFF AND DUP2 PUSH20 0xFFFFFFFFFFFFFFFFFFFFFFFFFFFFFFFFFFFFFFFF AND EQ ISZERO PUSH2 0x11F6 JUMPI PUSH1 0x40 MLOAD PUSH32 0x8C379A000000000000000000000000000000000000000000000000000000000 DUP2 MSTORE PUSH1 0x4 ADD PUSH2 0x11ED SWAP1 PUSH2 0x3023 JUMP JUMPDEST PUSH1 0x40 MLOAD DUP1 SWAP2 SUB SWAP1 REVERT JUMPDEST PUSH2 0x11FF DUP2 PUSH2 0x17EA JUMP JUMPDEST POP JUMP JUMPDEST PUSH1 0xA DUP2 JUMP JUMPDEST PUSH1 0x0 DUP1 DUP3 PUSH20 0xFFFFFFFFFFFFFFFFFFFFFFFFFFFFFFFFFFFFFFFF AND EXTCODESIZE GT SWAP1 POP SWAP2 SWAP1 POP JUMP JUMPDEST PUSH1 0x0 PUSH32 0x1FFC9A700000000000000000000000000000000000000000000000000000000 PUSH28 0xFFFFFFFFFFFFFFFFFFFFFFFFFFFFFFFFFFFFFFFFFFFFFFFFFFFFFFFF NOT AND DUP3 PUSH28 0xFFFFFFFFFFFFFFFFFFFFFFFFFFFFFFFFFFFFFFFFFFFFFFFFFFFFFFFF NOT AND EQ SWAP1 POP SWAP2 SWAP1 POP JUMP JUMPDEST PUSH2 0x129D DUP2 PUSH2 0x1B86 JUMP JUMPDEST PUSH2 0x12DC JUMPI PUSH1 0x40 MLOAD PUSH32 0x8C379A000000000000000000000000000000000000000000000000000000000 DUP2 MSTORE PUSH1 0x4 ADD PUSH2 0x12D3 SWAP1 PUSH2 0x2AE9 JUMP JUMPDEST PUSH1 0x40 MLOAD DUP1 SWAP2 SUB SWAP1 REVERT JUMPDEST POP JUMP JUMPDEST PUSH1 0x0 CALLER SWAP1 POP SWAP1 JUMP JUMPDEST DUP2 PUSH1 0x4 PUSH1 0x0 DUP4 DUP2 MSTORE PUSH1 0x20 ADD SWAP1 DUP2 MSTORE PUSH1 0x20 ADD PUSH1 0x0 KECCAK256 PUSH1 0x0 PUSH2 0x100 EXP DUP2 SLOAD DUP2 PUSH20 0xFFFFFFFFFFFFFFFFFFFFFFFFFFFFFFFFFFFFFFFF MUL NOT AND SWAP1 DUP4 PUSH20 0xFFFFFFFFFFFFFFFFFFFFFFFFFFFFFFFFFFFFFFFF AND MUL OR SWAP1 SSTORE POP DUP1 DUP3 PUSH20 0xFFFFFFFFFFFFFFFFFFFFFFFFFFFFFFFFFFFFFFFF AND PUSH2 0x135A DUP4 PUSH2 0xA34 JUMP JUMPDEST PUSH20 0xFFFFFFFFFFFFFFFFFFFFFFFFFFFFFFFFFFFFFFFF AND PUSH32 0x8C5BE1E5EBEC7D5BD14F71427D1E84F3DD0314C0F7B2291E5B200AC8C7C3B925 PUSH1 0x40 MLOAD PUSH1 0x40 MLOAD DUP1 SWAP2 SUB SWAP1 LOG4 POP POP JUMP JUMPDEST PUSH1 0x0 DUP1 PUSH2 0x13AC DUP4 PUSH2 0xA34 JUMP JUMPDEST SWAP1 POP DUP1 PUSH20 0xFFFFFFFFFFFFFFFFFFFFFFFFFFFFFFFFFFFFFFFF AND DUP5 PUSH20 0xFFFFFFFFFFFFFFFFFFFFFFFFFFFFFFFFFFFFFFFF AND EQ DUP1 PUSH2 0x13EE JUMPI POP PUSH2 0x13ED DUP2 DUP6 PUSH2 0x10EA JUMP JUMPDEST JUMPDEST DUP1 PUSH2 0x142C JUMPI POP DUP4 PUSH20 0xFFFFFFFFFFFFFFFFFFFFFFFFFFFFFFFFFFFFFFFF AND PUSH2 0x1414 DUP5 PUSH2 0x809 JUMP JUMPDEST PUSH20 0xFFFFFFFFFFFFFFFFFFFFFFFFFFFFFFFFFFFFFFFF AND EQ JUMPDEST SWAP2 POP POP SWAP3 SWAP2 POP POP JUMP JUMPDEST DUP3 PUSH20 0xFFFFFFFFFFFFFFFFFFFFFFFFFFFFFFFFFFFFFFFF AND PUSH2 0x1455 DUP3 PUSH2 0xA34 JUMP JUMPDEST PUSH20 0xFFFFFFFFFFFFFFFFFFFFFFFFFFFFFFFFFFFFFFFF AND EQ PUSH2 0x14AB JUMPI PUSH1 0x40 MLOAD PUSH32 0x8C379A000000000000000000000000000000000000000000000000000000000 DUP2 MSTORE PUSH1 0x4 ADD PUSH2 0x14A2 SWAP1 PUSH2 0x30B5 JUMP JUMPDEST PUSH1 0x40 MLOAD DUP1 SWAP2 SUB SWAP1 REVERT JUMPDEST PUSH1 0x0 PUSH20 0xFFFFFFFFFFFFFFFFFFFFFFFFFFFFFFFFFFFFFFFF AND DUP3 PUSH20 0xFFFFFFFFFFFFFFFFFFFFFFFFFFFFFFFFFFFFFFFF AND EQ ISZERO PUSH2 0x151B JUMPI PUSH1 0x40 MLOAD PUSH32 0x8C379A000000000000000000000000000000000000000000000000000000000 DUP2 MSTORE PUSH1 0x4 ADD PUSH2 0x1512 SWAP1 PUSH2 0x3147 JUMP JUMPDEST PUSH1 0x40 MLOAD DUP1 SWAP2 SUB SWAP1 REVERT JUMPDEST PUSH2 0x1528 DUP4 DUP4 DUP4 PUSH1 0x1 PUSH2 0x1BC7 JUMP JUMPDEST DUP3 PUSH20 0xFFFFFFFFFFFFFFFFFFFFFFFFFFFFFFFFFFFFFFFF AND PUSH2 0x1548 DUP3 PUSH2 0xA34 JUMP JUMPDEST PUSH20 0xFFFFFFFFFFFFFFFFFFFFFFFFFFFFFFFFFFFFFFFF AND EQ PUSH2 0x159E JUMPI PUSH1 0x40 MLOAD PUSH32 0x8C379A000000000000000000000000000000000000000000000000000000000 DUP2 MSTORE PUSH1 0x4 ADD PUSH2 0x1595 SWAP1 PUSH2 0x30B5 JUMP JUMPDEST PUSH1 0x40 MLOAD DUP1 SWAP2 SUB SWAP1 REVERT JUMPDEST PUSH1 0x4 PUSH1 0x0 DUP3 DUP2 MSTORE PUSH1 0x20 ADD SWAP1 DUP2 MSTORE PUSH1 0x20 ADD PUSH1 0x0 KECCAK256 PUSH1 0x0 PUSH2 0x100 EXP DUP2 SLOAD SWAP1 PUSH20 0xFFFFFFFFFFFFFFFFFFFFFFFFFFFFFFFFFFFFFFFF MUL NOT AND SWAP1 SSTORE PUSH1 0x1 PUSH1 0x3 PUSH1 0x0 DUP6 PUSH20 0xFFFFFFFFFFFFFFFFFFFFFFFFFFFFFFFFFFFFFFFF AND PUSH20 0xFFFFFFFFFFFFFFFFFFFFFFFFFFFFFFFFFFFFFFFF AND DUP2 MSTORE PUSH1 0x20 ADD SWAP1 DUP2 MSTORE PUSH1 0x20 ADD PUSH1 0x0 KECCAK256 PUSH1 0x0 DUP3 DUP3 SLOAD SUB SWAP3 POP POP DUP2 SWAP1 SSTORE POP PUSH1 0x1 PUSH1 0x3 PUSH1 0x0 DUP5 PUSH20 0xFFFFFFFFFFFFFFFFFFFFFFFFFFFFFFFFFFFFFFFF AND PUSH20 0xFFFFFFFFFFFFFFFFFFFFFFFFFFFFFFFFFFFFFFFF AND DUP2 MSTORE PUSH1 0x20 ADD SWAP1 DUP2 MSTORE PUSH1 0x20 ADD PUSH1 0x0 KECCAK256 PUSH1 0x0 DUP3 DUP3 SLOAD ADD SWAP3 POP POP DUP2 SWAP1 SSTORE POP DUP2 PUSH1 0x2 PUSH1 0x0 DUP4 DUP2 MSTORE PUSH1 0x20 ADD SWAP1 DUP2 MSTORE PUSH1 0x20 ADD PUSH1 0x0 KECCAK256 PUSH1 0x0 PUSH2 0x100 EXP DUP2 SLOAD DUP2 PUSH20 0xFFFFFFFFFFFFFFFFFFFFFFFFFFFFFFFFFFFFFFFF MUL NOT AND SWAP1 DUP4 PUSH20 0xFFFFFFFFFFFFFFFFFFFFFFFFFFFFFFFFFFFFFFFF AND MUL OR SWAP1 SSTORE POP DUP1 DUP3 PUSH20 0xFFFFFFFFFFFFFFFFFFFFFFFFFFFFFFFFFFFFFFFF AND DUP5 PUSH20 0xFFFFFFFFFFFFFFFFFFFFFFFFFFFFFFFFFFFFFFFF AND PUSH32 0xDDF252AD1BE2C89B69C2B068FC378DAA952BA7F163C4A11628F55A4DF523B3EF PUSH1 0x40 MLOAD PUSH1 0x40 MLOAD DUP1 SWAP2 SUB SWAP1 LOG4 PUSH2 0x172A DUP4 DUP4 DUP4 PUSH1 0x1 PUSH2 0x1BCD JUMP JUMPDEST POP POP POP JUMP JUMPDEST PUSH2 0x1737 PUSH2 0x12DF JUMP JUMPDEST PUSH20 0xFFFFFFFFFFFFFFFFFFFFFFFFFFFFFFFFFFFFFFFF AND PUSH2 0x1755 PUSH2 0xBA9 JUMP JUMPDEST PUSH20 0xFFFFFFFFFFFFFFFFFFFFFFFFFFFFFFFFFFFFFFFF AND EQ PUSH2 0x17AB JUMPI PUSH1 0x40 MLOAD PUSH32 0x8C379A000000000000000000000000000000000000000000000000000000000 DUP2 MSTORE PUSH1 0x4 ADD PUSH2 0x17A2 SWAP1 PUSH2 0x31B3 JUMP JUMPDEST PUSH1 0x40 MLOAD DUP1 SWAP2 SUB SWAP1 REVERT JUMPDEST JUMP JUMPDEST PUSH1 0x0 PUSH1 0x2 PUSH1 0x0 DUP4 DUP2 MSTORE PUSH1 0x20 ADD SWAP1 DUP2 MSTORE PUSH1 0x20 ADD PUSH1 0x0 KECCAK256 PUSH1 0x0 SWAP1 SLOAD SWAP1 PUSH2 0x100 EXP SWAP1 DIV PUSH20 0xFFFFFFFFFFFFFFFFFFFFFFFFFFFFFFFFFFFFFFFF AND SWAP1 POP SWAP2 SWAP1 POP JUMP JUMPDEST PUSH1 0x0 PUSH1 0x6 PUSH1 0x0 SWAP1 SLOAD SWAP1 PUSH2 0x100 EXP SWAP1 DIV PUSH20 0xFFFFFFFFFFFFFFFFFFFFFFFFFFFFFFFFFFFFFFFF AND SWAP1 POP DUP2 PUSH1 0x6 PUSH1 0x0 PUSH2 0x100 EXP DUP2 SLOAD DUP2 PUSH20 0xFFFFFFFFFFFFFFFFFFFFFFFFFFFFFFFFFFFFFFFF MUL NOT AND SWAP1 DUP4 PUSH20 0xFFFFFFFFFFFFFFFFFFFFFFFFFFFFFFFFFFFFFFFF AND MUL OR SWAP1 SSTORE POP DUP2 PUSH20 0xFFFFFFFFFFFFFFFFFFFFFFFFFFFFFFFFFFFFFFFF AND DUP2 PUSH20 0xFFFFFFFFFFFFFFFFFFFFFFFFFFFFFFFFFFFFFFFF AND PUSH32 0x8BE0079C531659141344CD1FD0A4F28419497F9722A3DAAFE3B4186F6B6457E0 PUSH1 0x40 MLOAD PUSH1 0x40 MLOAD DUP1 SWAP2 SUB SWAP1 LOG3 POP POP JUMP JUMPDEST PUSH2 0x18CA DUP3 DUP3 PUSH1 0x40 MLOAD DUP1 PUSH1 0x20 ADD PUSH1 0x40 MSTORE DUP1 PUSH1 0x0 DUP2 MSTORE POP PUSH2 0x1BD3 JUMP JUMPDEST POP POP JUMP JUMPDEST DUP2 PUSH20 0xFFFFFFFFFFFFFFFFFFFFFFFFFFFFFFFFFFFFFFFF AND DUP4 PUSH20 0xFFFFFFFFFFFFFFFFFFFFFFFFFFFFFFFFFFFFFFFF AND EQ ISZERO PUSH2 0x193D JUMPI PUSH1 0x40 MLOAD PUSH32 0x8C379A000000000000000000000000000000000000000000000000000000000 DUP2 MSTORE PUSH1 0x4 ADD PUSH2 0x1934 SWAP1 PUSH2 0x321F JUMP JUMPDEST PUSH1 0x40 MLOAD DUP1 SWAP2 SUB SWAP1 REVERT JUMPDEST DUP1 PUSH1 0x5 PUSH1 0x0 DUP6 PUSH20 0xFFFFFFFFFFFFFFFFFFFFFFFFFFFFFFFFFFFFFFFF AND PUSH20 0xFFFFFFFFFFFFFFFFFFFFFFFFFFFFFFFFFFFFFFFF AND DUP2 MSTORE PUSH1 0x20 ADD SWAP1 DUP2 MSTORE PUSH1 0x20 ADD PUSH1 0x0 KECCAK256 PUSH1 0x0 DUP5 PUSH20 0xFFFFFFFFFFFFFFFFFFFFFFFFFFFFFFFFFFFFFFFF AND PUSH20 0xFFFFFFFFFFFFFFFFFFFFFFFFFFFFFFFFFFFFFFFF AND DUP2 MSTORE PUSH1 0x20 ADD SWAP1 DUP2 MSTORE PUSH1 0x20 ADD PUSH1 0x0 KECCAK256 PUSH1 0x0 PUSH2 0x100 EXP DUP2 SLOAD DUP2 PUSH1 0xFF MUL NOT AND SWAP1 DUP4 ISZERO ISZERO MUL OR SWAP1 SSTORE POP DUP2 PUSH20 0xFFFFFFFFFFFFFFFFFFFFFFFFFFFFFFFFFFFFFFFF AND DUP4 PUSH20 0xFFFFFFFFFFFFFFFFFFFFFFFFFFFFFFFFFFFFFFFF AND PUSH32 0x17307EAB39AB6107E8899845AD3D59BD9653F200F220920489CA2B5937696C31 DUP4 PUSH1 0x40 MLOAD PUSH2 0x1A2E SWAP2 SWAP1 PUSH2 0x228D JUMP JUMPDEST PUSH1 0x40 MLOAD DUP1 SWAP2 SUB SWAP1 LOG3 POP POP POP JUMP JUMPDEST PUSH2 0x1A46 DUP5 DUP5 DUP5 PUSH2 0x1435 JUMP JUMPDEST PUSH2 0x1A52 DUP5 DUP5 DUP5 DUP5 PUSH2 0x1C2E JUMP JUMPDEST PUSH2 0x1A91 JUMPI PUSH1 0x40 MLOAD PUSH32 0x8C379A000000000000000000000000000000000000000000000000000000000 DUP2 MSTORE PUSH1 0x4 ADD PUSH2 0x1A88 SWAP1 PUSH2 0x32B1 JUMP JUMPDEST PUSH1 0x40 MLOAD DUP1 SWAP2 SUB SWAP1 REVERT JUMPDEST POP POP POP POP JUMP JUMPDEST PUSH1 0x60 PUSH1 0x40 MLOAD DUP1 PUSH1 0x20 ADD PUSH1 0x40 MSTORE DUP1 PUSH1 0x0 DUP2 MSTORE POP SWAP1 POP SWAP1 JUMP JUMPDEST PUSH1 0x60 PUSH1 0x0 PUSH1 0x1 PUSH2 0x1ABD DUP5 PUSH2 0x1DC5 JUMP JUMPDEST ADD SWAP1 POP PUSH1 0x0 DUP2 PUSH8 0xFFFFFFFFFFFFFFFF DUP2 GT ISZERO PUSH2 0x1ADC JUMPI PUSH2 0x1ADB PUSH2 0x2515 JUMP JUMPDEST JUMPDEST PUSH1 0x40 MLOAD SWAP1 DUP1 DUP3 MSTORE DUP1 PUSH1 0x1F ADD PUSH1 0x1F NOT AND PUSH1 0x20 ADD DUP3 ADD PUSH1 0x40 MSTORE DUP1 ISZERO PUSH2 0x1B0E JUMPI DUP2 PUSH1 0x20 ADD PUSH1 0x1 DUP3 MUL DUP1 CALLDATASIZE DUP4 CALLDATACOPY DUP1 DUP3 ADD SWAP2 POP POP SWAP1 POP JUMPDEST POP SWAP1 POP PUSH1 0x0 DUP3 PUSH1 0x20 ADD DUP3 ADD SWAP1 POP JUMPDEST PUSH1 0x1 ISZERO PUSH2 0x1B7B JUMPI DUP1 DUP1 PUSH1 0x1 SWAP1 SUB SWAP2 POP POP PUSH32 0x3031323334353637383961626364656600000000000000000000000000000000 PUSH1 0xA DUP7 MOD BYTE DUP2 MSTORE8 PUSH1 0xA DUP6 DUP2 PUSH2 0x1B65 JUMPI PUSH2 0x1B64 PUSH2 0x32D1 JUMP JUMPDEST JUMPDEST DIV SWAP5 POP PUSH1 0x0 DUP6 EQ ISZERO PUSH2 0x1B76 JUMPI PUSH2 0x1B7B JUMP JUMPDEST PUSH2 0x1B1C JUMP JUMPDEST DUP2 SWAP4 POP POP POP POP SWAP2 SWAP1 POP JUMP JUMPDEST PUSH1 0x0 DUP1 PUSH20 0xFFFFFFFFFFFFFFFFFFFFFFFFFFFFFFFFFFFFFFFF AND PUSH2 0x1BA8 DUP4 PUSH2 0x17AD JUMP JUMPDEST PUSH20 0xFFFFFFFFFFFFFFFFFFFFFFFFFFFFFFFFFFFFFFFF AND EQ ISZERO SWAP1 POP SWAP2 SWAP1 POP JUMP JUMPDEST POP POP POP POP JUMP JUMPDEST POP POP POP POP JUMP JUMPDEST PUSH2 0x1BDD DUP4 DUP4 PUSH2 0x1F18 JUMP JUMPDEST PUSH2 0x1BEA PUSH1 0x0 DUP5 DUP5 DUP5 PUSH2 0x1C2E JUMP JUMPDEST PUSH2 0x1C29 JUMPI PUSH1 0x40 MLOAD PUSH32 0x8C379A000000000000000000000000000000000000000000000000000000000 DUP2 MSTORE PUSH1 0x4 ADD PUSH2 0x1C20 SWAP1 PUSH2 0x32B1 JUMP JUMPDEST PUSH1 0x40 MLOAD DUP1 SWAP2 SUB SWAP1 REVERT JUMPDEST POP POP POP JUMP JUMPDEST PUSH1 0x0 PUSH2 0x1C4F DUP5 PUSH20 0xFFFFFFFFFFFFFFFFFFFFFFFFFFFFFFFFFFFFFFFF AND PUSH2 0x1207 JUMP JUMPDEST ISZERO PUSH2 0x1DB8 JUMPI DUP4 PUSH20 0xFFFFFFFFFFFFFFFFFFFFFFFFFFFFFFFFFFFFFFFF AND PUSH4 0x150B7A02 PUSH2 0x1C78 PUSH2 0x12DF JUMP JUMPDEST DUP8 DUP7 DUP7 PUSH1 0x40 MLOAD DUP6 PUSH4 0xFFFFFFFF AND PUSH1 0xE0 SHL DUP2 MSTORE PUSH1 0x4 ADD PUSH2 0x1C9A SWAP5 SWAP4 SWAP3 SWAP2 SWAP1 PUSH2 0x3355 JUMP JUMPDEST PUSH1 0x20 PUSH1 0x40 MLOAD DUP1 DUP4 SUB DUP2 PUSH1 0x0 DUP8 DUP1 EXTCODESIZE ISZERO DUP1 ISZERO PUSH2 0x1CB4 JUMPI PUSH1 0x0 DUP1 REVERT JUMPDEST POP GAS CALL SWAP3 POP POP POP DUP1 ISZERO PUSH2 0x1CE5 JUMPI POP PUSH1 0x40 MLOAD RETURNDATASIZE PUSH1 0x1F NOT PUSH1 0x1F DUP3 ADD AND DUP3 ADD DUP1 PUSH1 0x40 MSTORE POP DUP2 ADD SWAP1 PUSH2 0x1CE2 SWAP2 SWAP1 PUSH2 0x33B6 JUMP JUMPDEST PUSH1 0x1 JUMPDEST PUSH2 0x1D68 JUMPI RETURNDATASIZE DUP1 PUSH1 0x0 DUP2 EQ PUSH2 0x1D15 JUMPI PUSH1 0x40 MLOAD SWAP2 POP PUSH1 0x1F NOT PUSH1 0x3F RETURNDATASIZE ADD AND DUP3 ADD PUSH1 0x40 MSTORE RETURNDATASIZE DUP3 MSTORE RETURNDATASIZE PUSH1 0x0 PUSH1 0x20 DUP5 ADD RETURNDATACOPY PUSH2 0x1D1A JUMP JUMPDEST PUSH1 0x60 SWAP2 POP JUMPDEST POP PUSH1 0x0 DUP2 MLOAD EQ ISZERO PUSH2 0x1D60 JUMPI PUSH1 0x40 MLOAD PUSH32 0x8C379A000000000000000000000000000000000000000000000000000000000 DUP2 MSTORE PUSH1 0x4 ADD PUSH2 0x1D57 SWAP1 PUSH2 0x32B1 JUMP JUMPDEST PUSH1 0x40 MLOAD DUP1 SWAP2 SUB SWAP1 REVERT JUMPDEST DUP1 MLOAD DUP2 PUSH1 0x20 ADD REVERT JUMPDEST PUSH4 0x150B7A02 PUSH1 0xE0 SHL PUSH28 0xFFFFFFFFFFFFFFFFFFFFFFFFFFFFFFFFFFFFFFFFFFFFFFFFFFFFFFFF NOT AND DUP2 PUSH28 0xFFFFFFFFFFFFFFFFFFFFFFFFFFFFFFFFFFFFFFFFFFFFFFFFFFFFFFFF NOT AND EQ SWAP2 POP POP PUSH2 0x1DBD JUMP JUMPDEST PUSH1 0x1 SWAP1 POP JUMPDEST SWAP5 SWAP4 POP POP POP POP JUMP JUMPDEST PUSH1 0x0 DUP1 PUSH1 0x0 SWAP1 POP PUSH27 0x184F03E93FF9F4DAA797ED6E38ED64BF6A1F010000000000000000 DUP4 LT PUSH2 0x1E23 JUMPI PUSH27 0x184F03E93FF9F4DAA797ED6E38ED64BF6A1F010000000000000000 DUP4 DUP2 PUSH2 0x1E19 JUMPI PUSH2 0x1E18 PUSH2 0x32D1 JUMP JUMPDEST JUMPDEST DIV SWAP3 POP PUSH1 0x40 DUP2 ADD SWAP1 POP JUMPDEST PUSH14 0x4EE2D6D415B85ACEF8100000000 DUP4 LT PUSH2 0x1E60 JUMPI PUSH14 0x4EE2D6D415B85ACEF8100000000 DUP4 DUP2 PUSH2 0x1E56 JUMPI PUSH2 0x1E55 PUSH2 0x32D1 JUMP JUMPDEST JUMPDEST DIV SWAP3 POP PUSH1 0x20 DUP2 ADD SWAP1 POP JUMPDEST PUSH7 0x2386F26FC10000 DUP4 LT PUSH2 0x1E8F JUMPI PUSH7 0x2386F26FC10000 DUP4 DUP2 PUSH2 0x1E85 JUMPI PUSH2 0x1E84 PUSH2 0x32D1 JUMP JUMPDEST JUMPDEST DIV SWAP3 POP PUSH1 0x10 DUP2 ADD SWAP1 POP JUMPDEST PUSH4 0x5F5E100 DUP4 LT PUSH2 0x1EB8 JUMPI PUSH4 0x5F5E100 DUP4 DUP2 PUSH2 0x1EAE JUMPI PUSH2 0x1EAD PUSH2 0x32D1 JUMP JUMPDEST JUMPDEST DIV SWAP3 POP PUSH1 0x8 DUP2 ADD SWAP1 POP JUMPDEST PUSH2 0x2710 DUP4 LT PUSH2 0x1EDD JUMPI PUSH2 0x2710 DUP4 DUP2 PUSH2 0x1ED3 JUMPI PUSH2 0x1ED2 PUSH2 0x32D1 JUMP JUMPDEST JUMPDEST DIV SWAP3 POP PUSH1 0x4 DUP2 ADD SWAP1 POP JUMPDEST PUSH1 0x64 DUP4 LT PUSH2 0x1F00 JUMPI PUSH1 0x64 DUP4 DUP2 PUSH2 0x1EF6 JUMPI PUSH2 0x1EF5 PUSH2 0x32D1 JUMP JUMPDEST JUMPDEST DIV SWAP3 POP PUSH1 0x2 DUP2 ADD SWAP1 POP JUMPDEST PUSH1 0xA DUP4 LT PUSH2 0x1F0F JUMPI PUSH1 0x1 DUP2 ADD SWAP1 POP JUMPDEST DUP1 SWAP2 POP POP SWAP2 SWAP1 POP JUMP JUMPDEST PUSH1 0x0 PUSH20 0xFFFFFFFFFFFFFFFFFFFFFFFFFFFFFFFFFFFFFFFF AND DUP3 PUSH20 0xFFFFFFFFFFFFFFFFFFFFFFFFFFFFFFFFFFFFFFFF AND EQ ISZERO PUSH2 0x1F88 JUMPI PUSH1 0x40 MLOAD PUSH32 0x8C379A000000000000000000000000000000000000000000000000000000000 DUP2 MSTORE PUSH1 0x4 ADD PUSH2 0x1F7F SWAP1 PUSH2 0x342F JUMP JUMPDEST PUSH1 0x40 MLOAD DUP1 SWAP2 SUB SWAP1 REVERT JUMPDEST PUSH2 0x1F91 DUP2 PUSH2 0x1B86 JUMP JUMPDEST ISZERO PUSH2 0x1FD1 JUMPI PUSH1 0x40 MLOAD PUSH32 0x8C379A000000000000000000000000000000000000000000000000000000000 DUP2 MSTORE PUSH1 0x4 ADD PUSH2 0x1FC8 SWAP1 PUSH2 0x349B JUMP JUMPDEST PUSH1 0x40 MLOAD DUP1 SWAP2 SUB SWAP1 REVERT JUMPDEST PUSH2 0x1FDF PUSH1 0x0 DUP4 DUP4 PUSH1 0x1 PUSH2 0x1BC7 JUMP JUMPDEST PUSH2 0x1FE8 DUP2 PUSH2 0x1B86 JUMP JUMPDEST ISZERO PUSH2 0x2028 JUMPI PUSH1 0x40 MLOAD PUSH32 0x8C379A000000000000000000000000000000000000000000000000000000000 DUP2 MSTORE PUSH1 0x4 ADD PUSH2 0x201F SWAP1 PUSH2 0x349B JUMP JUMPDEST PUSH1 0x40 MLOAD DUP1 SWAP2 SUB SWAP1 REVERT JUMPDEST PUSH1 0x1 PUSH1 0x3 PUSH1 0x0 DUP5 PUSH20 0xFFFFFFFFFFFFFFFFFFFFFFFFFFFFFFFFFFFFFFFF AND PUSH20 0xFFFFFFFFFFFFFFFFFFFFFFFFFFFFFFFFFFFFFFFF AND DUP2 MSTORE PUSH1 0x20 ADD SWAP1 DUP2 MSTORE PUSH1 0x20 ADD PUSH1 0x0 KECCAK256 PUSH1 0x0 DUP3 DUP3 SLOAD ADD SWAP3 POP POP DUP2 SWAP1 SSTORE POP DUP2 PUSH1 0x2 PUSH1 0x0 DUP4 DUP2 MSTORE PUSH1 0x20 ADD SWAP1 DUP2 MSTORE PUSH1 0x20 ADD PUSH1 0x0 KECCAK256 PUSH1 0x0 PUSH2 0x100 EXP DUP2 SLOAD DUP2 PUSH20 0xFFFFFFFFFFFFFFFFFFFFFFFFFFFFFFFFFFFFFFFF MUL NOT AND SWAP1 DUP4 PUSH20 0xFFFFFFFFFFFFFFFFFFFFFFFFFFFFFFFFFFFFFFFF AND MUL OR SWAP1 SSTORE POP DUP1 DUP3 PUSH20 0xFFFFFFFFFFFFFFFFFFFFFFFFFFFFFFFFFFFFFFFF AND PUSH1 0x0 PUSH20 0xFFFFFFFFFFFFFFFFFFFFFFFFFFFFFFFFFFFFFFFF AND PUSH32 0xDDF252AD1BE2C89B69C2B068FC378DAA952BA7F163C4A11628F55A4DF523B3EF PUSH1 0x40 MLOAD PUSH1 0x40 MLOAD DUP1 SWAP2 SUB SWAP1 LOG4 PUSH2 0x2132 PUSH1 0x0 DUP4 DUP4 PUSH1 0x1 PUSH2 0x1BCD JUMP JUMPDEST POP POP JUMP JUMPDEST DUP3 DUP1 SLOAD PUSH2 0x2142 SWAP1 PUSH2 0x28B5 JUMP JUMPDEST SWAP1 PUSH1 0x0 MSTORE PUSH1 0x20 PUSH1 0x0 KECCAK256 SWAP1 PUSH1 0x1F ADD PUSH1 0x20 SWAP1 DIV DUP2 ADD SWAP3 DUP3 PUSH2 0x2164 JUMPI PUSH1 0x0 DUP6 SSTORE PUSH2 0x21AB JUMP JUMPDEST DUP3 PUSH1 0x1F LT PUSH2 0x217D JUMPI DUP1 MLOAD PUSH1 0xFF NOT AND DUP4 DUP1 ADD OR DUP6 SSTORE PUSH2 0x21AB JUMP JUMPDEST DUP3 DUP1 ADD PUSH1 0x1 ADD DUP6 SSTORE DUP3 ISZERO PUSH2 0x21AB JUMPI SWAP2 DUP3 ADD JUMPDEST DUP3 DUP2 GT ISZERO PUSH2 0x21AA JUMPI DUP3 MLOAD DUP3 SSTORE SWAP2 PUSH1 0x20 ADD SWAP2 SWAP1 PUSH1 0x1 ADD SWAP1 PUSH2 0x218F JUMP JUMPDEST JUMPDEST POP SWAP1 POP PUSH2 0x21B8 SWAP2 SWAP1 PUSH2 0x21BC JUMP JUMPDEST POP SWAP1 JUMP JUMPDEST JUMPDEST DUP1 DUP3 GT ISZERO PUSH2 0x21D5 JUMPI PUSH1 0x0 DUP2 PUSH1 0x0 SWAP1 SSTORE POP PUSH1 0x1 ADD PUSH2 0x21BD JUMP JUMPDEST POP SWAP1 JUMP JUMPDEST PUSH1 0x0 PUSH1 0x40 MLOAD SWAP1 POP SWAP1 JUMP JUMPDEST PUSH1 0x0 DUP1 REVERT JUMPDEST PUSH1 0x0 DUP1 REVERT JUMPDEST PUSH1 0x0 PUSH32 0xFFFFFFFF00000000000000000000000000000000000000000000000000000000 DUP3 AND SWAP1 POP SWAP2 SWAP1 POP JUMP JUMPDEST PUSH2 0x2222 DUP2 PUSH2 0x21ED JUMP JUMPDEST DUP2 EQ PUSH2 0x222D JUMPI PUSH1 0x0 DUP1 REVERT JUMPDEST POP JUMP JUMPDEST PUSH1 0x0 DUP2 CALLDATALOAD SWAP1 POP PUSH2 0x223F DUP2 PUSH2 0x2219 JUMP JUMPDEST SWAP3 SWAP2 POP POP JUMP JUMPDEST PUSH1 0x0 PUSH1 0x20 DUP3 DUP5 SUB SLT ISZERO PUSH2 0x225B JUMPI PUSH2 0x225A PUSH2 0x21E3 JUMP JUMPDEST JUMPDEST PUSH1 0x0 PUSH2 0x2269 DUP5 DUP3 DUP6 ADD PUSH2 0x2230 JUMP JUMPDEST SWAP2 POP POP SWAP3 SWAP2 POP POP JUMP JUMPDEST PUSH1 0x0 DUP2 ISZERO ISZERO SWAP1 POP SWAP2 SWAP1 POP JUMP JUMPDEST PUSH2 0x2287 DUP2 PUSH2 0x2272 JUMP JUMPDEST DUP3 MSTORE POP POP JUMP JUMPDEST PUSH1 0x0 PUSH1 0x20 DUP3 ADD SWAP1 POP PUSH2 0x22A2 PUSH1 0x0 DUP4 ADD DUP5 PUSH2 0x227E JUMP JUMPDEST SWAP3 SWAP2 POP POP JUMP JUMPDEST PUSH1 0x0 DUP2 MLOAD SWAP1 POP SWAP2 SWAP1 POP JUMP JUMPDEST PUSH1 0x0 DUP3 DUP3 MSTORE PUSH1 0x20 DUP3 ADD SWAP1 POP SWAP3 SWAP2 POP POP JUMP JUMPDEST PUSH1 0x0 JUMPDEST DUP4 DUP2 LT ISZERO PUSH2 0x22E2 JUMPI DUP1 DUP3 ADD MLOAD DUP2 DUP5 ADD MSTORE PUSH1 0x20 DUP2 ADD SWAP1 POP PUSH2 0x22C7 JUMP JUMPDEST DUP4 DUP2 GT ISZERO PUSH2 0x22F1 JUMPI PUSH1 0x0 DUP5 DUP5 ADD MSTORE JUMPDEST POP POP POP POP JUMP JUMPDEST PUSH1 0x0 PUSH1 0x1F NOT PUSH1 0x1F DUP4 ADD AND SWAP1 POP SWAP2 SWAP1 POP JUMP JUMPDEST PUSH1 0x0 PUSH2 0x2313 DUP3 PUSH2 0x22A8 JUMP JUMPDEST PUSH2 0x231D DUP2 DUP6 PUSH2 0x22B3 JUMP JUMPDEST SWAP4 POP PUSH2 0x232D DUP2 DUP6 PUSH1 0x20 DUP7 ADD PUSH2 0x22C4 JUMP JUMPDEST PUSH2 0x2336 DUP2 PUSH2 0x22F7 JUMP JUMPDEST DUP5 ADD SWAP2 POP POP SWAP3 SWAP2 POP POP JUMP JUMPDEST PUSH1 0x0 PUSH1 0x20 DUP3 ADD SWAP1 POP DUP2 DUP2 SUB PUSH1 0x0 DUP4 ADD MSTORE PUSH2 0x235B DUP2 DUP5 PUSH2 0x2308 JUMP JUMPDEST SWAP1 POP SWAP3 SWAP2 POP POP JUMP JUMPDEST PUSH1 0x0 DUP2 SWAP1 POP SWAP2 SWAP1 POP JUMP JUMPDEST PUSH2 0x2376 DUP2 PUSH2 0x2363 JUMP JUMPDEST DUP2 EQ PUSH2 0x2381 JUMPI PUSH1 0x0 DUP1 REVERT JUMPDEST POP JUMP JUMPDEST PUSH1 0x0 DUP2 CALLDATALOAD SWAP1 POP PUSH2 0x2393 DUP2 PUSH2 0x236D JUMP JUMPDEST SWAP3 SWAP2 POP POP JUMP JUMPDEST PUSH1 0x0 PUSH1 0x20 DUP3 DUP5 SUB SLT ISZERO PUSH2 0x23AF JUMPI PUSH2 0x23AE PUSH2 0x21E3 JUMP JUMPDEST JUMPDEST PUSH1 0x0 PUSH2 0x23BD DUP5 DUP3 DUP6 ADD PUSH2 0x2384 JUMP JUMPDEST SWAP2 POP POP SWAP3 SWAP2 POP POP JUMP JUMPDEST PUSH1 0x0 PUSH20 0xFFFFFFFFFFFFFFFFFFFFFFFFFFFFFFFFFFFFFFFF DUP3 AND SWAP1 POP SWAP2 SWAP1 POP JUMP JUMPDEST PUSH1 0x0 PUSH2 0x23F1 DUP3 PUSH2 0x23C6 JUMP JUMPDEST SWAP1 POP SWAP2 SWAP1 POP JUMP JUMPDEST PUSH2 0x2401 DUP2 PUSH2 0x23E6 JUMP JUMPDEST DUP3 MSTORE POP POP JUMP JUMPDEST PUSH1 0x0 PUSH1 0x20 DUP3 ADD SWAP1 POP PUSH2 0x241C PUSH1 0x0 DUP4 ADD DUP5 PUSH2 0x23F8 JUMP JUMPDEST SWAP3 SWAP2 POP POP JUMP JUMPDEST PUSH2 0x242B DUP2 PUSH2 0x23E6 JUMP JUMPDEST DUP2 EQ PUSH2 0x2436 JUMPI PUSH1 0x0 DUP1 REVERT JUMPDEST POP JUMP JUMPDEST PUSH1 0x0 DUP2 CALLDATALOAD SWAP1 POP PUSH2 0x2448 DUP2 PUSH2 0x2422 JUMP JUMPDEST SWAP3 SWAP2 POP POP JUMP JUMPDEST PUSH1 0x0 DUP1 PUSH1 0x40 DUP4 DUP6 SUB SLT ISZERO PUSH2 0x2465 JUMPI PUSH2 0x2464 PUSH2 0x21E3 JUMP JUMPDEST JUMPDEST PUSH1 0x0 PUSH2 0x2473 DUP6 DUP3 DUP7 ADD PUSH2 0x2439 JUMP JUMPDEST SWAP3 POP POP PUSH1 0x20 PUSH2 0x2484 DUP6 DUP3 DUP7 ADD PUSH2 0x2384 JUMP JUMPDEST SWAP2 POP POP SWAP3 POP SWAP3 SWAP1 POP JUMP JUMPDEST PUSH2 0x2497 DUP2 PUSH2 0x2363 JUMP JUMPDEST DUP3 MSTORE POP POP JUMP JUMPDEST PUSH1 0x0 PUSH1 0x20 DUP3 ADD SWAP1 POP PUSH2 0x24B2 PUSH1 0x0 DUP4 ADD DUP5 PUSH2 0x248E JUMP JUMPDEST SWAP3 SWAP2 POP POP JUMP JUMPDEST PUSH1 0x0 DUP1 PUSH1 0x0 PUSH1 0x60 DUP5 DUP7 SUB SLT ISZERO PUSH2 0x24D1 JUMPI PUSH2 0x24D0 PUSH2 0x21E3 JUMP JUMPDEST JUMPDEST PUSH1 0x0 PUSH2 0x24DF DUP7 DUP3 DUP8 ADD PUSH2 0x2439 JUMP JUMPDEST SWAP4 POP POP PUSH1 0x20 PUSH2 0x24F0 DUP7 DUP3 DUP8 ADD PUSH2 0x2439 JUMP JUMPDEST SWAP3 POP POP PUSH1 0x40 PUSH2 0x2501 DUP7 DUP3 DUP8 ADD PUSH2 0x2384 JUMP JUMPDEST SWAP2 POP POP SWAP3 POP SWAP3 POP SWAP3 JUMP JUMPDEST PUSH1 0x0 DUP1 REVERT JUMPDEST PUSH1 0x0 DUP1 REVERT JUMPDEST PUSH32 0x4E487B7100000000000000000000000000000000000000000000000000000000 PUSH1 0x0 MSTORE PUSH1 0x41 PUSH1 0x4 MSTORE PUSH1 0x24 PUSH1 0x0 REVERT JUMPDEST PUSH2 0x254D DUP3 PUSH2 0x22F7 JUMP JUMPDEST DUP2 ADD DUP2 DUP2 LT PUSH8 0xFFFFFFFFFFFFFFFF DUP3 GT OR ISZERO PUSH2 0x256C JUMPI PUSH2 0x256B PUSH2 0x2515 JUMP JUMPDEST JUMPDEST DUP1 PUSH1 0x40 MSTORE POP POP POP JUMP JUMPDEST PUSH1 0x0 PUSH2 0x257F PUSH2 0x21D9 JUMP JUMPDEST SWAP1 POP PUSH2 0x258B DUP3 DUP3 PUSH2 0x2544 JUMP JUMPDEST SWAP2 SWAP1 POP JUMP JUMPDEST PUSH1 0x0 PUSH8 0xFFFFFFFFFFFFFFFF DUP3 GT ISZERO PUSH2 0x25AB JUMPI PUSH2 0x25AA PUSH2 0x2515 JUMP JUMPDEST JUMPDEST PUSH2 0x25B4 DUP3 PUSH2 0x22F7 JUMP JUMPDEST SWAP1 POP PUSH1 0x20 DUP2 ADD SWAP1 POP SWAP2 SWAP1 POP JUMP JUMPDEST DUP3 DUP2 DUP4 CALLDATACOPY PUSH1 0x0 DUP4 DUP4 ADD MSTORE POP POP POP JUMP JUMPDEST PUSH1 0x0 PUSH2 0x25E3 PUSH2 0x25DE DUP5 PUSH2 0x2590 JUMP JUMPDEST PUSH2 0x2575 JUMP JUMPDEST SWAP1 POP DUP3 DUP2 MSTORE PUSH1 0x20 DUP2 ADD DUP5 DUP5 DUP5 ADD GT ISZERO PUSH2 0x25FF JUMPI PUSH2 0x25FE PUSH2 0x2510 JUMP JUMPDEST JUMPDEST PUSH2 0x260A DUP5 DUP3 DUP6 PUSH2 0x25C1 JUMP JUMPDEST POP SWAP4 SWAP3 POP POP POP JUMP JUMPDEST PUSH1 0x0 DUP3 PUSH1 0x1F DUP4 ADD SLT PUSH2 0x2627 JUMPI PUSH2 0x2626 PUSH2 0x250B JUMP JUMPDEST JUMPDEST DUP2 CALLDATALOAD PUSH2 0x2637 DUP5 DUP3 PUSH1 0x20 DUP7 ADD PUSH2 0x25D0 JUMP JUMPDEST SWAP2 POP POP SWAP3 SWAP2 POP POP JUMP JUMPDEST PUSH1 0x0 PUSH1 0x20 DUP3 DUP5 SUB SLT ISZERO PUSH2 0x2656 JUMPI PUSH2 0x2655 PUSH2 0x21E3 JUMP JUMPDEST JUMPDEST PUSH1 0x0 DUP3 ADD CALLDATALOAD PUSH8 0xFFFFFFFFFFFFFFFF DUP2 GT ISZERO PUSH2 0x2674 JUMPI PUSH2 0x2673 PUSH2 0x21E8 JUMP JUMPDEST JUMPDEST PUSH2 0x2680 DUP5 DUP3 DUP6 ADD PUSH2 0x2612 JUMP JUMPDEST SWAP2 POP POP SWAP3 SWAP2 POP POP JUMP JUMPDEST PUSH1 0x0 PUSH1 0x20 DUP3 DUP5 SUB SLT ISZERO PUSH2 0x269F JUMPI PUSH2 0x269E PUSH2 0x21E3 JUMP JUMPDEST JUMPDEST PUSH1 0x0 PUSH2 0x26AD DUP5 DUP3 DUP6 ADD PUSH2 0x2439 JUMP JUMPDEST SWAP2 POP POP SWAP3 SWAP2 POP POP JUMP JUMPDEST PUSH2 0x26BF DUP2 PUSH2 0x2272 JUMP JUMPDEST DUP2 EQ PUSH2 0x26CA JUMPI PUSH1 0x0 DUP1 REVERT JUMPDEST POP JUMP JUMPDEST PUSH1 0x0 DUP2 CALLDATALOAD SWAP1 POP PUSH2 0x26DC DUP2 PUSH2 0x26B6 JUMP JUMPDEST SWAP3 SWAP2 POP POP JUMP JUMPDEST PUSH1 0x0 DUP1 PUSH1 0x40 DUP4 DUP6 SUB SLT ISZERO PUSH2 0x26F9 JUMPI PUSH2 0x26F8 PUSH2 0x21E3 JUMP JUMPDEST JUMPDEST PUSH1 0x0 PUSH2 0x2707 DUP6 DUP3 DUP7 ADD PUSH2 0x2439 JUMP JUMPDEST SWAP3 POP POP PUSH1 0x20 PUSH2 0x2718 DUP6 DUP3 DUP7 ADD PUSH2 0x26CD JUMP JUMPDEST SWAP2 POP POP SWAP3 POP SWAP3 SWAP1 POP JUMP JUMPDEST PUSH1 0x0 PUSH8 0xFFFFFFFFFFFFFFFF DUP3 GT ISZERO PUSH2 0x273D JUMPI PUSH2 0x273C PUSH2 0x2515 JUMP JUMPDEST JUMPDEST PUSH2 0x2746 DUP3 PUSH2 0x22F7 JUMP JUMPDEST SWAP1 POP PUSH1 0x20 DUP2 ADD SWAP1 POP SWAP2 SWAP1 POP JUMP JUMPDEST PUSH1 0x0 PUSH2 0x2766 PUSH2 0x2761 DUP5 PUSH2 0x2722 JUMP JUMPDEST PUSH2 0x2575 JUMP JUMPDEST SWAP1 POP DUP3 DUP2 MSTORE PUSH1 0x20 DUP2 ADD DUP5 DUP5 DUP5 ADD GT ISZERO PUSH2 0x2782 JUMPI PUSH2 0x2781 PUSH2 0x2510 JUMP JUMPDEST JUMPDEST PUSH2 0x278D DUP5 DUP3 DUP6 PUSH2 0x25C1 JUMP JUMPDEST POP SWAP4 SWAP3 POP POP POP JUMP JUMPDEST PUSH1 0x0 DUP3 PUSH1 0x1F DUP4 ADD SLT PUSH2 0x27AA JUMPI PUSH2 0x27A9 PUSH2 0x250B JUMP JUMPDEST JUMPDEST DUP2 CALLDATALOAD PUSH2 0x27BA DUP5 DUP3 PUSH1 0x20 DUP7 ADD PUSH2 0x2753 JUMP JUMPDEST SWAP2 POP POP SWAP3 SWAP2 POP POP JUMP JUMPDEST PUSH1 0x0 DUP1 PUSH1 0x0 DUP1 PUSH1 0x80 DUP6 DUP8 SUB SLT ISZERO PUSH2 0x27DD JUMPI PUSH2 0x27DC PUSH2 0x21E3 JUMP JUMPDEST JUMPDEST PUSH1 0x0 PUSH2 0x27EB DUP8 DUP3 DUP9 ADD PUSH2 0x2439 JUMP JUMPDEST SWAP5 POP POP PUSH1 0x20 PUSH2 0x27FC DUP8 DUP3 DUP9 ADD PUSH2 0x2439 JUMP JUMPDEST SWAP4 POP POP PUSH1 0x40 PUSH2 0x280D DUP8 DUP3 DUP9 ADD PUSH2 0x2384 JUMP JUMPDEST SWAP3 POP POP PUSH1 0x60 DUP6 ADD CALLDATALOAD PUSH8 0xFFFFFFFFFFFFFFFF DUP2 GT ISZERO PUSH2 0x282E JUMPI PUSH2 0x282D PUSH2 0x21E8 JUMP JUMPDEST JUMPDEST PUSH2 0x283A DUP8 DUP3 DUP9 ADD PUSH2 0x2795 JUMP JUMPDEST SWAP2 POP POP SWAP3 SWAP6 SWAP2 SWAP5 POP SWAP3 POP JUMP JUMPDEST PUSH1 0x0 DUP1 PUSH1 0x40 DUP4 DUP6 SUB SLT ISZERO PUSH2 0x285D JUMPI PUSH2 0x285C PUSH2 0x21E3 JUMP JUMPDEST JUMPDEST PUSH1 0x0 PUSH2 0x286B DUP6 DUP3 DUP7 ADD PUSH2 0x2439 JUMP JUMPDEST SWAP3 POP POP PUSH1 0x20 PUSH2 0x287C DUP6 DUP3 DUP7 ADD PUSH2 0x2439 JUMP JUMPDEST SWAP2 POP POP SWAP3 POP SWAP3 SWAP1 POP JUMP JUMPDEST PUSH32 0x4E487B7100000000000000000000000000000000000000000000000000000000 PUSH1 0x0 MSTORE PUSH1 0x22 PUSH1 0x4 MSTORE PUSH1 0x24 PUSH1 0x0 REVERT JUMPDEST PUSH1 0x0 PUSH1 0x2 DUP3 DIV SWAP1 POP PUSH1 0x1 DUP3 AND DUP1 PUSH2 0x28CD JUMPI PUSH1 0x7F DUP3 AND SWAP2 POP JUMPDEST PUSH1 0x20 DUP3 LT DUP2 EQ ISZERO PUSH2 0x28E1 JUMPI PUSH2 0x28E0 PUSH2 0x2886 JUMP JUMPDEST JUMPDEST POP SWAP2 SWAP1 POP JUMP JUMPDEST PUSH32 0x4552433732313A20617070726F76616C20746F2063757272656E74206F776E65 PUSH1 0x0 DUP3 ADD MSTORE PUSH32 0x7200000000000000000000000000000000000000000000000000000000000000 PUSH1 0x20 DUP3 ADD MSTORE POP JUMP JUMPDEST PUSH1 0x0 PUSH2 0x2943 PUSH1 0x21 DUP4 PUSH2 0x22B3 JUMP JUMPDEST SWAP2 POP PUSH2 0x294E DUP3 PUSH2 0x28E7 JUMP JUMPDEST PUSH1 0x40 DUP3 ADD SWAP1 POP SWAP2 SWAP1 POP JUMP JUMPDEST PUSH1 0x0 PUSH1 0x20 DUP3 ADD SWAP1 POP DUP2 DUP2 SUB PUSH1 0x0 DUP4 ADD MSTORE PUSH2 0x2972 DUP2 PUSH2 0x2936 JUMP JUMPDEST SWAP1 POP SWAP2 SWAP1 POP JUMP JUMPDEST PUSH32 0x4552433732313A20617070726F76652063616C6C6572206973206E6F7420746F PUSH1 0x0 DUP3 ADD MSTORE PUSH32 0x6B656E206F776E6572206F7220617070726F76656420666F7220616C6C000000 PUSH1 0x20 DUP3 ADD MSTORE POP JUMP JUMPDEST PUSH1 0x0 PUSH2 0x29D5 PUSH1 0x3D DUP4 PUSH2 0x22B3 JUMP JUMPDEST SWAP2 POP PUSH2 0x29E0 DUP3 PUSH2 0x2979 JUMP JUMPDEST PUSH1 0x40 DUP3 ADD SWAP1 POP SWAP2 SWAP1 POP JUMP JUMPDEST PUSH1 0x0 PUSH1 0x20 DUP3 ADD SWAP1 POP DUP2 DUP2 SUB PUSH1 0x0 DUP4 ADD MSTORE PUSH2 0x2A04 DUP2 PUSH2 0x29C8 JUMP JUMPDEST SWAP1 POP SWAP2 SWAP1 POP JUMP JUMPDEST PUSH32 0x4552433732313A2063616C6C6572206973206E6F7420746F6B656E206F776E65 PUSH1 0x0 DUP3 ADD MSTORE PUSH32 0x72206F7220617070726F76656400000000000000000000000000000000000000 PUSH1 0x20 DUP3 ADD MSTORE POP JUMP JUMPDEST PUSH1 0x0 PUSH2 0x2A67 PUSH1 0x2D DUP4 PUSH2 0x22B3 JUMP JUMPDEST SWAP2 POP PUSH2 0x2A72 DUP3 PUSH2 0x2A0B JUMP JUMPDEST PUSH1 0x40 DUP3 ADD SWAP1 POP SWAP2 SWAP1 POP JUMP JUMPDEST PUSH1 0x0 PUSH1 0x20 DUP3 ADD SWAP1 POP DUP2 DUP2 SUB PUSH1 0x0 DUP4 ADD MSTORE PUSH2 0x2A96 DUP2 PUSH2 0x2A5A JUMP JUMPDEST SWAP1 POP SWAP2 SWAP1 POP JUMP JUMPDEST PUSH32 0x4552433732313A20696E76616C696420746F6B656E2049440000000000000000 PUSH1 0x0 DUP3 ADD MSTORE POP JUMP JUMPDEST PUSH1 0x0 PUSH2 0x2AD3 PUSH1 0x18 DUP4 PUSH2 0x22B3 JUMP JUMPDEST SWAP2 POP PUSH2 0x2ADE DUP3 PUSH2 0x2A9D JUMP JUMPDEST PUSH1 0x20 DUP3 ADD SWAP1 POP SWAP2 SWAP1 POP JUMP JUMPDEST PUSH1 0x0 PUSH1 0x20 DUP3 ADD SWAP1 POP DUP2 DUP2 SUB PUSH1 0x0 DUP4 ADD MSTORE PUSH2 0x2B02 DUP2 PUSH2 0x2AC6 JUMP JUMPDEST SWAP1 POP SWAP2 SWAP1 POP JUMP JUMPDEST PUSH32 0x4552433732313A2061646472657373207A65726F206973206E6F742061207661 PUSH1 0x0 DUP3 ADD MSTORE PUSH32 0x6C6964206F776E65720000000000000000000000000000000000000000000000 PUSH1 0x20 DUP3 ADD MSTORE POP JUMP JUMPDEST PUSH1 0x0 PUSH2 0x2B65 PUSH1 0x29 DUP4 PUSH2 0x22B3 JUMP JUMPDEST SWAP2 POP PUSH2 0x2B70 DUP3 PUSH2 0x2B09 JUMP JUMPDEST PUSH1 0x40 DUP3 ADD SWAP1 POP SWAP2 SWAP1 POP JUMP JUMPDEST PUSH1 0x0 PUSH1 0x20 DUP3 ADD SWAP1 POP DUP2 DUP2 SUB PUSH1 0x0 DUP4 ADD MSTORE PUSH2 0x2B94 DUP2 PUSH2 0x2B58 JUMP JUMPDEST SWAP1 POP SWAP2 SWAP1 POP JUMP JUMPDEST PUSH32 0x5468652073616C65206973207061757365640000000000000000000000000000 PUSH1 0x0 DUP3 ADD MSTORE POP JUMP JUMPDEST PUSH1 0x0 PUSH2 0x2BD1 PUSH1 0x12 DUP4 PUSH2 0x22B3 JUMP JUMPDEST SWAP2 POP PUSH2 0x2BDC DUP3 PUSH2 0x2B9B JUMP JUMPDEST PUSH1 0x20 DUP3 ADD SWAP1 POP SWAP2 SWAP1 POP JUMP JUMPDEST PUSH1 0x0 PUSH1 0x20 DUP3 ADD SWAP1 POP DUP2 DUP2 SUB PUSH1 0x0 DUP4 ADD MSTORE PUSH2 0x2C00 DUP2 PUSH2 0x2BC4 JUMP JUMPDEST SWAP1 POP SWAP2 SWAP1 POP JUMP JUMPDEST PUSH32 0x596F752063616E206F6E6C79206D696E742061206D6178696D756D206F662027 PUSH1 0x0 DUP3 ADD MSTORE PUSH32 0x4D41585F4D494E545F5045525F54582700000000000000000000000000000000 PUSH1 0x20 DUP3 ADD MSTORE POP JUMP JUMPDEST PUSH1 0x0 PUSH2 0x2C63 PUSH1 0x30 DUP4 PUSH2 0x22B3 JUMP JUMPDEST SWAP2 POP PUSH2 0x2C6E DUP3 PUSH2 0x2C07 JUMP JUMPDEST PUSH1 0x40 DUP3 ADD SWAP1 POP SWAP2 SWAP1 POP JUMP JUMPDEST PUSH1 0x0 PUSH1 0x20 DUP3 ADD SWAP1 POP DUP2 DUP2 SUB PUSH1 0x0 DUP4 ADD MSTORE PUSH2 0x2C92 DUP2 PUSH2 0x2C56 JUMP JUMPDEST SWAP1 POP SWAP2 SWAP1 POP JUMP JUMPDEST PUSH32 0x4E487B7100000000000000000000000000000000000000000000000000000000 PUSH1 0x0 MSTORE PUSH1 0x11 PUSH1 0x4 MSTORE PUSH1 0x24 PUSH1 0x0 REVERT JUMPDEST PUSH1 0x0 PUSH2 0x2CD3 DUP3 PUSH2 0x2363 JUMP JUMPDEST SWAP2 POP PUSH2 0x2CDE DUP4 PUSH2 0x2363 JUMP JUMPDEST SWAP3 POP DUP3 PUSH32 0xFFFFFFFFFFFFFFFFFFFFFFFFFFFFFFFFFFFFFFFFFFFFFFFFFFFFFFFFFFFFFFFF SUB DUP3 GT ISZERO PUSH2 0x2D13 JUMPI PUSH2 0x2D12 PUSH2 0x2C99 JUMP JUMPDEST JUMPDEST DUP3 DUP3 ADD SWAP1 POP SWAP3 SWAP2 POP POP JUMP JUMPDEST PUSH32 0x596F752063616E206F6E6C79206D696E7420274D41585F4D494E545F5045525F PUSH1 0x0 DUP3 ADD MSTORE PUSH32 0x545827207065722057616C6C6574000000000000000000000000000000000000 PUSH1 0x20 DUP3 ADD MSTORE POP JUMP JUMPDEST PUSH1 0x0 PUSH2 0x2D7A PUSH1 0x2E DUP4 PUSH2 0x22B3 JUMP JUMPDEST SWAP2 POP PUSH2 0x2D85 DUP3 PUSH2 0x2D1E JUMP JUMPDEST PUSH1 0x40 DUP3 ADD SWAP1 POP SWAP2 SWAP1 POP JUMP JUMPDEST PUSH1 0x0 PUSH1 0x20 DUP3 ADD SWAP1 POP DUP2 DUP2 SUB PUSH1 0x0 DUP4 ADD MSTORE PUSH2 0x2DA9 DUP2 PUSH2 0x2D6D JUMP JUMPDEST SWAP1 POP SWAP2 SWAP1 POP JUMP JUMPDEST PUSH32 0x4578636565647320274D41585F544F4B454E5327000000000000000000000000 PUSH1 0x0 DUP3 ADD MSTORE POP JUMP JUMPDEST PUSH1 0x0 PUSH2 0x2DE6 PUSH1 0x14 DUP4 PUSH2 0x22B3 JUMP JUMPDEST SWAP2 POP PUSH2 0x2DF1 DUP3 PUSH2 0x2DB0 JUMP JUMPDEST PUSH1 0x20 DUP3 ADD SWAP1 POP SWAP2 SWAP1 POP JUMP JUMPDEST PUSH1 0x0 PUSH1 0x20 DUP3 ADD SWAP1 POP DUP2 DUP2 SUB PUSH1 0x0 DUP4 ADD MSTORE PUSH2 0x2E15 DUP2 PUSH2 0x2DD9 JUMP JUMPDEST SWAP1 POP SWAP2 SWAP1 POP JUMP JUMPDEST PUSH1 0x0 PUSH2 0x2E27 DUP3 PUSH2 0x2363 JUMP JUMPDEST SWAP2 POP PUSH2 0x2E32 DUP4 PUSH2 0x2363 JUMP JUMPDEST SWAP3 POP DUP2 PUSH32 0xFFFFFFFFFFFFFFFFFFFFFFFFFFFFFFFFFFFFFFFFFFFFFFFFFFFFFFFFFFFFFFFF DIV DUP4 GT DUP3 ISZERO ISZERO AND ISZERO PUSH2 0x2E6B JUMPI PUSH2 0x2E6A PUSH2 0x2C99 JUMP JUMPDEST JUMPDEST DUP3 DUP3 MUL SWAP1 POP SWAP3 SWAP2 POP POP JUMP JUMPDEST PUSH32 0x496E73756666696369656E742066756E64732E20596F75206E656564206D6F72 PUSH1 0x0 DUP3 ADD MSTORE PUSH32 0x2045544821000000000000000000000000000000000000000000000000000000 PUSH1 0x20 DUP3 ADD MSTORE POP JUMP JUMPDEST PUSH1 0x0 PUSH2 0x2ED2 PUSH1 0x25 DUP4 PUSH2 0x22B3 JUMP JUMPDEST SWAP2 POP PUSH2 0x2EDD DUP3 PUSH2 0x2E76 JUMP JUMPDEST PUSH1 0x40 DUP3 ADD SWAP1 POP SWAP2 SWAP1 POP JUMP JUMPDEST PUSH1 0x0 PUSH1 0x20 DUP3 ADD SWAP1 POP DUP2 DUP2 SUB PUSH1 0x0 DUP4 ADD MSTORE PUSH2 0x2F01 DUP2 PUSH2 0x2EC5 JUMP JUMPDEST SWAP1 POP SWAP2 SWAP1 POP JUMP JUMPDEST PUSH1 0x0 PUSH2 0x2F13 DUP3 PUSH2 0x2363 JUMP JUMPDEST SWAP2 POP PUSH32 0xFFFFFFFFFFFFFFFFFFFFFFFFFFFFFFFFFFFFFFFFFFFFFFFFFFFFFFFFFFFFFFFF DUP3 EQ ISZERO PUSH2 0x2F46 JUMPI PUSH2 0x2F45 PUSH2 0x2C99 JUMP JUMPDEST JUMPDEST PUSH1 0x1 DUP3 ADD SWAP1 POP SWAP2 SWAP1 POP JUMP JUMPDEST PUSH1 0x0 DUP2 SWAP1 POP SWAP3 SWAP2 POP POP JUMP JUMPDEST PUSH1 0x0 PUSH2 0x2F67 DUP3 PUSH2 0x22A8 JUMP JUMPDEST PUSH2 0x2F71 DUP2 DUP6 PUSH2 0x2F51 JUMP JUMPDEST SWAP4 POP PUSH2 0x2F81 DUP2 DUP6 PUSH1 0x20 DUP7 ADD PUSH2 0x22C4 JUMP JUMPDEST DUP1 DUP5 ADD SWAP2 POP POP SWAP3 SWAP2 POP POP JUMP JUMPDEST PUSH1 0x0 PUSH2 0x2F99 DUP3 DUP6 PUSH2 0x2F5C JUMP JUMPDEST SWAP2 POP PUSH2 0x2FA5 DUP3 DUP5 PUSH2 0x2F5C JUMP JUMPDEST SWAP2 POP DUP2 SWAP1 POP SWAP4 SWAP3 POP POP POP JUMP JUMPDEST PUSH32 0x4F776E61626C653A206E6577206F776E657220697320746865207A65726F2061 PUSH1 0x0 DUP3 ADD MSTORE PUSH32 0x6464726573730000000000000000000000000000000000000000000000000000 PUSH1 0x20 DUP3 ADD MSTORE POP JUMP JUMPDEST PUSH1 0x0 PUSH2 0x300D PUSH1 0x26 DUP4 PUSH2 0x22B3 JUMP JUMPDEST SWAP2 POP PUSH2 0x3018 DUP3 PUSH2 0x2FB1 JUMP JUMPDEST PUSH1 0x40 DUP3 ADD SWAP1 POP SWAP2 SWAP1 POP JUMP JUMPDEST PUSH1 0x0 PUSH1 0x20 DUP3 ADD SWAP1 POP DUP2 DUP2 SUB PUSH1 0x0 DUP4 ADD MSTORE PUSH2 0x303C DUP2 PUSH2 0x3000 JUMP JUMPDEST SWAP1 POP SWAP2 SWAP1 POP JUMP JUMPDEST PUSH32 0x4552433732313A207472616E736665722066726F6D20696E636F727265637420 PUSH1 0x0 DUP3 ADD MSTORE PUSH32 0x6F776E6572000000000000000000000000000000000000000000000000000000 PUSH1 0x20 DUP3 ADD MSTORE POP JUMP JUMPDEST PUSH1 0x0 PUSH2 0x309F PUSH1 0x25 DUP4 PUSH2 0x22B3 JUMP JUMPDEST SWAP2 POP PUSH2 0x30AA DUP3 PUSH2 0x3043 JUMP JUMPDEST PUSH1 0x40 DUP3 ADD SWAP1 POP SWAP2 SWAP1 POP JUMP JUMPDEST PUSH1 0x0 PUSH1 0x20 DUP3 ADD SWAP1 POP DUP2 DUP2 SUB PUSH1 0x0 DUP4 ADD MSTORE PUSH2 0x30CE DUP2 PUSH2 0x3092 JUMP JUMPDEST SWAP1 POP SWAP2 SWAP1 POP JUMP JUMPDEST PUSH32 0x4552433732313A207472616E7366657220746F20746865207A65726F20616464 PUSH1 0x0 DUP3 ADD MSTORE PUSH32 0x7265737300000000000000000000000000000000000000000000000000000000 PUSH1 0x20 DUP3 ADD MSTORE POP JUMP JUMPDEST PUSH1 0x0 PUSH2 0x3131 PUSH1 0x24 DUP4 PUSH2 0x22B3 JUMP JUMPDEST SWAP2 POP PUSH2 0x313C DUP3 PUSH2 0x30D5 JUMP JUMPDEST PUSH1 0x40 DUP3 ADD SWAP1 POP SWAP2 SWAP1 POP JUMP JUMPDEST PUSH1 0x0 PUSH1 0x20 DUP3 ADD SWAP1 POP DUP2 DUP2 SUB PUSH1 0x0 DUP4 ADD MSTORE PUSH2 0x3160 DUP2 PUSH2 0x3124 JUMP JUMPDEST SWAP1 POP SWAP2 SWAP1 POP JUMP JUMPDEST PUSH32 0x4F776E61626C653A2063616C6C6572206973206E6F7420746865206F776E6572 PUSH1 0x0 DUP3 ADD MSTORE POP JUMP JUMPDEST PUSH1 0x0 PUSH2 0x319D PUSH1 0x20 DUP4 PUSH2 0x22B3 JUMP JUMPDEST SWAP2 POP PUSH2 0x31A8 DUP3 PUSH2 0x3167 JUMP JUMPDEST PUSH1 0x20 DUP3 ADD SWAP1 POP SWAP2 SWAP1 POP JUMP JUMPDEST PUSH1 0x0 PUSH1 0x20 DUP3 ADD SWAP1 POP DUP2 DUP2 SUB PUSH1 0x0 DUP4 ADD MSTORE PUSH2 0x31CC DUP2 PUSH2 0x3190 JUMP JUMPDEST SWAP1 POP SWAP2 SWAP1 POP JUMP JUMPDEST PUSH32 0x4552433732313A20617070726F766520746F2063616C6C657200000000000000 PUSH1 0x0 DUP3 ADD MSTORE POP JUMP JUMPDEST PUSH1 0x0 PUSH2 0x3209 PUSH1 0x19 DUP4 PUSH2 0x22B3 JUMP JUMPDEST SWAP2 POP PUSH2 0x3214 DUP3 PUSH2 0x31D3 JUMP JUMPDEST PUSH1 0x20 DUP3 ADD SWAP1 POP SWAP2 SWAP1 POP JUMP JUMPDEST PUSH1 0x0 PUSH1 0x20 DUP3 ADD SWAP1 POP DUP2 DUP2 SUB PUSH1 0x0 DUP4 ADD MSTORE PUSH2 0x3238 DUP2 PUSH2 0x31FC JUMP JUMPDEST SWAP1 POP SWAP2 SWAP1 POP JUMP JUMPDEST PUSH32 0x4552433732313A207472616E7366657220746F206E6F6E204552433732315265 PUSH1 0x0 DUP3 ADD MSTORE PUSH32 0x63656976657220696D706C656D656E7465720000000000000000000000000000 PUSH1 0x20 DUP3 ADD MSTORE POP JUMP JUMPDEST PUSH1 0x0 PUSH2 0x329B PUSH1 0x32 DUP4 PUSH2 0x22B3 JUMP JUMPDEST SWAP2 POP PUSH2 0x32A6 DUP3 PUSH2 0x323F JUMP JUMPDEST PUSH1 0x40 DUP3 ADD SWAP1 POP SWAP2 SWAP1 POP JUMP JUMPDEST PUSH1 0x0 PUSH1 0x20 DUP3 ADD SWAP1 POP DUP2 DUP2 SUB PUSH1 0x0 DUP4 ADD MSTORE PUSH2 0x32CA DUP2 PUSH2 0x328E JUMP JUMPDEST SWAP1 POP SWAP2 SWAP1 POP JUMP JUMPDEST PUSH32 0x4E487B7100000000000000000000000000000000000000000000000000000000 PUSH1 0x0 MSTORE PUSH1 0x12 PUSH1 0x4 MSTORE PUSH1 0x24 PUSH1 0x0 REVERT JUMPDEST PUSH1 0x0 DUP2 MLOAD SWAP1 POP SWAP2 SWAP1 POP JUMP JUMPDEST PUSH1 0x0 DUP3 DUP3 MSTORE PUSH1 0x20 DUP3 ADD SWAP1 POP SWAP3 SWAP2 POP POP JUMP JUMPDEST PUSH1 0x0 PUSH2 0x3327 DUP3 PUSH2 0x3300 JUMP JUMPDEST PUSH2 0x3331 DUP2 DUP6 PUSH2 0x330B JUMP JUMPDEST SWAP4 POP PUSH2 0x3341 DUP2 DUP6 PUSH1 0x20 DUP7 ADD PUSH2 0x22C4 JUMP JUMPDEST PUSH2 0x334A DUP2 PUSH2 0x22F7 JUMP JUMPDEST DUP5 ADD SWAP2 POP POP SWAP3 SWAP2 POP POP JUMP JUMPDEST PUSH1 0x0 PUSH1 0x80 DUP3 ADD SWAP1 POP PUSH2 0x336A PUSH1 0x0 DUP4 ADD DUP8 PUSH2 0x23F8 JUMP JUMPDEST PUSH2 0x3377 PUSH1 0x20 DUP4 ADD DUP7 PUSH2 0x23F8 JUMP JUMPDEST PUSH2 0x3384 PUSH1 0x40 DUP4 ADD DUP6 PUSH2 0x248E JUMP JUMPDEST DUP2 DUP2 SUB PUSH1 0x60 DUP4 ADD MSTORE PUSH2 0x3396 DUP2 DUP5 PUSH2 0x331C JUMP JUMPDEST SWAP1 POP SWAP6 SWAP5 POP POP POP POP POP JUMP JUMPDEST PUSH1 0x0 DUP2 MLOAD SWAP1 POP PUSH2 0x33B0 DUP2 PUSH2 0x2219 JUMP JUMPDEST SWAP3 SWAP2 POP POP JUMP JUMPDEST PUSH1 0x0 PUSH1 0x20 DUP3 DUP5 SUB SLT ISZERO PUSH2 0x33CC JUMPI PUSH2 0x33CB PUSH2 0x21E3 JUMP JUMPDEST JUMPDEST PUSH1 0x0 PUSH2 0x33DA DUP5 DUP3 DUP6 ADD PUSH2 0x33A1 JUMP JUMPDEST SWAP2 POP POP SWAP3 SWAP2 POP POP JUMP JUMPDEST PUSH32 0x4552433732313A206D696E7420746F20746865207A65726F2061646472657373 PUSH1 0x0 DUP3 ADD MSTORE POP JUMP JUMPDEST PUSH1 0x0 PUSH2 0x3419 PUSH1 0x20 DUP4 PUSH2 0x22B3 JUMP JUMPDEST SWAP2 POP PUSH2 0x3424 DUP3 PUSH2 0x33E3 JUMP JUMPDEST PUSH1 0x20 DUP3 ADD SWAP1 POP SWAP2 SWAP1 POP JUMP JUMPDEST PUSH1 0x0 PUSH1 0x20 DUP3 ADD SWAP1 POP DUP2 DUP2 SUB PUSH1 0x0 DUP4 ADD MSTORE PUSH2 0x3448 DUP2 PUSH2 0x340C JUMP JUMPDEST SWAP1 POP SWAP2 SWAP1 POP JUMP JUMPDEST PUSH32 0x4552433732313A20746F6B656E20616C7265616479206D696E74656400000000 PUSH1 0x0 DUP3 ADD MSTORE POP JUMP JUMPDEST PUSH1 0x0 PUSH2 0x3485 PUSH1 0x1C DUP4 PUSH2 0x22B3 JUMP JUMPDEST SWAP2 POP PUSH2 0x3490 DUP3 PUSH2 0x344F JUMP JUMPDEST PUSH1 0x20 DUP3 ADD SWAP1 POP SWAP2 SWAP1 POP JUMP JUMPDEST PUSH1 0x0 PUSH1 0x20 DUP3 ADD SWAP1 POP DUP2 DUP2 SUB PUSH1 0x0 DUP4 ADD MSTORE PUSH2 0x34B4 DUP2 PUSH2 0x3478 JUMP JUMPDEST SWAP1 POP SWAP2 SWAP1 POP JUMP INVALID LOG2 PUSH5 0x6970667358 0x22 SLT KECCAK256 0xD9 0xD0 0x1F SWAP3 0xEF MOD SSTORE RETURNDATACOPY 0xD6 0xB2 LOG4 PUSH3 0xDC5717 PC 0xDC OR 0xCA EXP LOG0 0xCB 0xA7 DIV 0xC9 0xE6 PUSH23 0xB365010CC064736F6C63430008090033697066733A2F2F PUSH25 0x78787878787878787878787878787878787878787878787878 PUSH25 0x782F0000000000000000000000000000000000000000000000 "
		},
		"gasEstimates": {
			"creation": {
				"codeDepositCost": "2710600",
				"executionCost": "infinite",
				"totalCost": "infinite"
			},
			"external": {
				"MAX_MINT_PER_TX()": "375",
				"MAX_TOKENS()": "439",
				"TOKENS_RESERVED()": "396",
				"approve(address,uint256)": "infinite",
				"balanceOf(address)": "2946",
				"baseExtension()": "infinite",
				"baseUri()": "infinite",
				"flipSaleState()": "28926",
				"getApproved(uint256)": "5323",
				"isApprovedForAll(address,address)": "infinite",
				"isSaleActive()": "2539",
				"mint(uint256)": "infinite",
				"name()": "infinite",
				"owner()": "2633",
				"ownerOf(uint256)": "3092",
				"price()": "2518",
				"renounceOwnership()": "30487",
				"safeTransferFrom(address,address,uint256)": "infinite",
				"safeTransferFrom(address,address,uint256,bytes)": "infinite",
				"setApprovalForAll(address,bool)": "infinite",
				"setBaseURU(string)": "infinite",
				"setPrice(uint256)": "24852",
				"supportsInterface(bytes4)": "820",
				"symbol()": "infinite",
				"tokenURI(uint256)": "3445",
				"totalSupply()": "2497",
				"transferFrom(address,address,uint256)": "infinite",
				"transferOwnership(address)": "30835"
			}
		},
		"methodIdentifiers": {
			"MAX_MINT_PER_TX()": "8ecad721",
			"MAX_TOKENS()": "f47c84c5",
			"TOKENS_RESERVED()": "9fd07cf0",
			"approve(address,uint256)": "095ea7b3",
			"balanceOf(address)": "70a08231",
			"baseExtension()": "c6682862",
			"baseUri()": "9abc8320",
			"flipSaleState()": "34918dfd",
			"getApproved(uint256)": "081812fc",
			"isApprovedForAll(address,address)": "e985e9c5",
			"isSaleActive()": "564566a8",
			"mint(uint256)": "a0712d68",
			"name()": "06fdde03",
			"owner()": "8da5cb5b",
			"ownerOf(uint256)": "6352211e",
			"price()": "a035b1fe",
			"renounceOwnership()": "715018a6",
			"safeTransferFrom(address,address,uint256)": "42842e0e",
			"safeTransferFrom(address,address,uint256,bytes)": "b88d4fde",
			"setApprovalForAll(address,bool)": "a22cb465",
			"setBaseURU(string)": "63daa09b",
			"setPrice(uint256)": "91b7f5ed",
			"supportsInterface(bytes4)": "01ffc9a7",
			"symbol()": "95d89b41",
			"tokenURI(uint256)": "c87b56dd",
			"totalSupply()": "18160ddd",
			"transferFrom(address,address,uint256)": "23b872dd",
			"transferOwnership(address)": "f2fde38b"
		}
	},
	"abi": [
		{
			"inputs": [],
			"stateMutability": "nonpayable",
			"type": "constructor"
		},
		{
			"anonymous": false,
			"inputs": [
				{
					"indexed": true,
					"internalType": "address",
					"name": "owner",
					"type": "address"
				},
				{
					"indexed": true,
					"internalType": "address",
					"name": "approved",
					"type": "address"
				},
				{
					"indexed": true,
					"internalType": "uint256",
					"name": "tokenId",
					"type": "uint256"
				}
			],
			"name": "Approval",
			"type": "event"
		},
		{
			"anonymous": false,
			"inputs": [
				{
					"indexed": true,
					"internalType": "address",
					"name": "owner",
					"type": "address"
				},
				{
					"indexed": true,
					"internalType": "address",
					"name": "operator",
					"type": "address"
				},
				{
					"indexed": false,
					"internalType": "bool",
					"name": "approved",
					"type": "bool"
				}
			],
			"name": "ApprovalForAll",
			"type": "event"
		},
		{
			"anonymous": false,
			"inputs": [
				{
					"indexed": true,
					"internalType": "address",
					"name": "previousOwner",
					"type": "address"
				},
				{
					"indexed": true,
					"internalType": "address",
					"name": "newOwner",
					"type": "address"
				}
			],
			"name": "OwnershipTransferred",
			"type": "event"
		},
		{
			"anonymous": false,
			"inputs": [
				{
					"indexed": true,
					"internalType": "address",
					"name": "from",
					"type": "address"
				},
				{
					"indexed": true,
					"internalType": "address",
					"name": "to",
					"type": "address"
				},
				{
					"indexed": true,
					"internalType": "uint256",
					"name": "tokenId",
					"type": "uint256"
				}
			],
			"name": "Transfer",
			"type": "event"
		},
		{
			"inputs": [],
			"name": "MAX_MINT_PER_TX",
			"outputs": [
				{
					"internalType": "uint256",
					"name": "",
					"type": "uint256"
				}
			],
			"stateMutability": "view",
			"type": "function"
		},
		{
			"inputs": [],
			"name": "MAX_TOKENS",
			"outputs": [
				{
					"internalType": "uint256",
					"name": "",
					"type": "uint256"
				}
			],
			"stateMutability": "view",
			"type": "function"
		},
		{
			"inputs": [],
			"name": "TOKENS_RESERVED",
			"outputs": [
				{
					"internalType": "uint256",
					"name": "",
					"type": "uint256"
				}
			],
			"stateMutability": "view",
			"type": "function"
		},
		{
			"inputs": [
				{
					"internalType": "address",
					"name": "to",
					"type": "address"
				},
				{
					"internalType": "uint256",
					"name": "tokenId",
					"type": "uint256"
				}
			],
			"name": "approve",
			"outputs": [],
			"stateMutability": "nonpayable",
			"type": "function"
		},
		{
			"inputs": [
				{
					"internalType": "address",
					"name": "owner",
					"type": "address"
				}
			],
			"name": "balanceOf",
			"outputs": [
				{
					"internalType": "uint256",
					"name": "",
					"type": "uint256"
				}
			],
			"stateMutability": "view",
			"type": "function"
		},
		{
			"inputs": [],
			"name": "baseExtension",
			"outputs": [
				{
					"internalType": "string",
					"name": "",
					"type": "string"
				}
			],
			"stateMutability": "view",
			"type": "function"
		},
		{
			"inputs": [],
			"name": "baseUri",
			"outputs": [
				{
					"internalType": "string",
					"name": "",
					"type": "string"
				}
			],
			"stateMutability": "view",
			"type": "function"
		},
		{
			"inputs": [],
			"name": "flipSaleState",
			"outputs": [],
			"stateMutability": "nonpayable",
			"type": "function"
		},
		{
			"inputs": [
				{
					"internalType": "uint256",
					"name": "tokenId",
					"type": "uint256"
				}
			],
			"name": "getApproved",
			"outputs": [
				{
					"internalType": "address",
					"name": "",
					"type": "address"
				}
			],
			"stateMutability": "view",
			"type": "function"
		},
		{
			"inputs": [
				{
					"internalType": "address",
					"name": "owner",
					"type": "address"
				},
				{
					"internalType": "address",
					"name": "operator",
					"type": "address"
				}
			],
			"name": "isApprovedForAll",
			"outputs": [
				{
					"internalType": "bool",
					"name": "",
					"type": "bool"
				}
			],
			"stateMutability": "view",
			"type": "function"
		},
		{
			"inputs": [],
			"name": "isSaleActive",
			"outputs": [
				{
					"internalType": "bool",
					"name": "",
					"type": "bool"
				}
			],
			"stateMutability": "view",
			"type": "function"
		},
		{
			"inputs": [
				{
					"internalType": "uint256",
					"name": "_numTokens",
					"type": "uint256"
				}
			],
			"name": "mint",
			"outputs": [],
			"stateMutability": "payable",
			"type": "function"
		},
		{
			"inputs": [],
			"name": "name",
			"outputs": [
				{
					"internalType": "string",
					"name": "",
					"type": "string"
				}
			],
			"stateMutability": "view",
			"type": "function"
		},
		{
			"inputs": [],
			"name": "owner",
			"outputs": [
				{
					"internalType": "address",
					"name": "",
					"type": "address"
				}
			],
			"stateMutability": "view",
			"type": "function"
		},
		{
			"inputs": [
				{
					"internalType": "uint256",
					"name": "tokenId",
					"type": "uint256"
				}
			],
			"name": "ownerOf",
			"outputs": [
				{
					"internalType": "address",
					"name": "",
					"type": "address"
				}
			],
			"stateMutability": "view",
			"type": "function"
		},
		{
			"inputs": [],
			"name": "price",
			"outputs": [
				{
					"internalType": "uint256",
					"name": "",
					"type": "uint256"
				}
			],
			"stateMutability": "view",
			"type": "function"
		},
		{
			"inputs": [],
			"name": "renounceOwnership",
			"outputs": [],
			"stateMutability": "nonpayable",
			"type": "function"
		},
		{
			"inputs": [
				{
					"internalType": "address",
					"name": "from",
					"type": "address"
				},
				{
					"internalType": "address",
					"name": "to",
					"type": "address"
				},
				{
					"internalType": "uint256",
					"name": "tokenId",
					"type": "uint256"
				}
			],
			"name": "safeTransferFrom",
			"outputs": [],
			"stateMutability": "nonpayable",
			"type": "function"
		},
		{
			"inputs": [
				{
					"internalType": "address",
					"name": "from",
					"type": "address"
				},
				{
					"internalType": "address",
					"name": "to",
					"type": "address"
				},
				{
					"internalType": "uint256",
					"name": "tokenId",
					"type": "uint256"
				},
				{
					"internalType": "bytes",
					"name": "data",
					"type": "bytes"
				}
			],
			"name": "safeTransferFrom",
			"outputs": [],
			"stateMutability": "nonpayable",
			"type": "function"
		},
		{
			"inputs": [
				{
					"internalType": "address",
					"name": "operator",
					"type": "address"
				},
				{
					"internalType": "bool",
					"name": "approved",
					"type": "bool"
				}
			],
			"name": "setApprovalForAll",
			"outputs": [],
			"stateMutability": "nonpayable",
			"type": "function"
		},
		{
			"inputs": [
				{
					"internalType": "string",
					"name": "_baseUri",
					"type": "string"
				}
			],
			"name": "setBaseURU",
			"outputs": [],
			"stateMutability": "nonpayable",
			"type": "function"
		},
		{
			"inputs": [
				{
					"internalType": "uint256",
					"name": "_price",
					"type": "uint256"
				}
			],
			"name": "setPrice",
			"outputs": [],
			"stateMutability": "nonpayable",
			"type": "function"
		},
		{
			"inputs": [
				{
					"internalType": "bytes4",
					"name": "interfaceId",
					"type": "bytes4"
				}
			],
			"name": "supportsInterface",
			"outputs": [
				{
					"internalType": "bool",
					"name": "",
					"type": "bool"
				}
			],
			"stateMutability": "view",
			"type": "function"
		},
		{
			"inputs": [],
			"name": "symbol",
			"outputs": [
				{
					"internalType": "string",
					"name": "",
					"type": "string"
				}
			],
			"stateMutability": "view",
			"type": "function"
		},
		{
			"inputs": [
				{
					"internalType": "uint256",
					"name": "tokenId",
					"type": "uint256"
				}
			],
			"name": "tokenURI",
			"outputs": [
				{
					"internalType": "string",
					"name": "",
					"type": "string"
				}
			],
			"stateMutability": "view",
			"type": "function"
		},
		{
			"inputs": [],
			"name": "totalSupply",
			"outputs": [
				{
					"internalType": "uint256",
					"name": "",
					"type": "uint256"
				}
			],
			"stateMutability": "view",
			"type": "function"
		},
		{
			"inputs": [
				{
					"internalType": "address",
					"name": "from",
					"type": "address"
				},
				{
					"internalType": "address",
					"name": "to",
					"type": "address"
				},
				{
					"internalType": "uint256",
					"name": "tokenId",
					"type": "uint256"
				}
			],
			"name": "transferFrom",
			"outputs": [],
			"stateMutability": "nonpayable",
			"type": "function"
		},
		{
			"inputs": [
				{
					"internalType": "address",
					"name": "newOwner",
					"type": "address"
				}
			],
			"name": "transferOwnership",
			"outputs": [],
			"stateMutability": "nonpayable",
			"type": "function"
		}
	]
}