{
	"data": {
		"bytecode": {
			"linkReferences": {},
			"object": "608060405260006007556040518060400160405280600581526020017f2e6a736f6e000000000000000000000000000000000000000000000000000000815250600c90816200004f919062000c08565b503480156200005d57600080fd5b50733cc6cdda760b79bafa08df41ecfa224f810dceb660016040518060400160405280601081526020017f456e64616c6c20426174616e204e4654000000000000000000000000000000008152506040518060400160405280600681526020017f45422d4e465400000000000000000000000000000000000000000000000000008152508160009081620000f2919062000c08565b50806001908162000104919062000c08565b505050620001276200011b6200038860201b60201c565b6200039060201b60201c565b60006daaeb6d7670e522a718067333cd4e73ffffffffffffffffffffffffffffffffffffffff163b11156200031c578015620001e2576daaeb6d7670e522a718067333cd4e73ffffffffffffffffffffffffffffffffffffffff16637d3e3dbe30846040518363ffffffff1660e01b8152600401620001a892919062000d34565b600060405180830381600087803b158015620001c357600080fd5b505af1158015620001d8573d6000803e3d6000fd5b505050506200031b565b600073ffffffffffffffffffffffffffffffffffffffff168273ffffffffffffffffffffffffffffffffffffffff16146200029c576daaeb6d7670e522a718067333cd4e73ffffffffffffffffffffffffffffffffffffffff1663a0af290330846040518363ffffffff1660e01b81526004016200026292919062000d34565b600060405180830381600087803b1580156200027d57600080fd5b505af115801562000292573d6000803e3d6000fd5b505050506200031a565b6daaeb6d7670e522a718067333cd4e73ffffffffffffffffffffffffffffffffffffffff16634420e486306040518263ffffffff1660e01b8152600401620002e5919062000d61565b600060405180830381600087803b1580156200030057600080fd5b505af115801562000315573d6000803e3d6000fd5b505050505b5b5b505060405180606001604052806036815260200162004ac460369139600b908162000348919062000c08565b506000600190505b600f811162000381576200036b33826200045660201b60201c565b8080620003789062000dad565b91505062000350565b506200111a565b600033905090565b6000600660009054906101000a900473ffffffffffffffffffffffffffffffffffffffff16905081600660006101000a81548173ffffffffffffffffffffffffffffffffffffffff021916908373ffffffffffffffffffffffffffffffffffffffff1602179055508173ffffffffffffffffffffffffffffffffffffffff168173ffffffffffffffffffffffffffffffffffffffff167f8be0079c531659141344cd1fd0a4f28419497f9722a3daafe3b4186f6b6457e060405160405180910390a35050565b620004788282604051806020016040528060008152506200047c60201b60201c565b5050565b6200048e8383620004ea60201b60201c565b620004a360008484846200073060201b60201c565b620004e5576040517f08c379a0000000000000000000000000000000000000000000000000000000008152600401620004dc9062000e81565b60405180910390fd5b505050565b600073ffffffffffffffffffffffffffffffffffffffff168273ffffffffffffffffffffffffffffffffffffffff16036200055c576040517f08c379a0000000000000000000000000000000000000000000000000000000008152600401620005539062000ef3565b60405180910390fd5b6200056d81620008d960201b60201c565b15620005b0576040517f08c379a0000000000000000000000000000000000000000000000000000000008152600401620005a79062000f65565b60405180910390fd5b620005c66000838360016200092260201b60201c565b620005d781620008d960201b60201c565b156200061a576040517f08c379a0000000000000000000000000000000000000000000000000000000008152600401620006119062000f65565b60405180910390fd5b6001600360008473ffffffffffffffffffffffffffffffffffffffff1673ffffffffffffffffffffffffffffffffffffffff16815260200190815260200160002060008282540192505081905550816002600083815260200190815260200160002060006101000a81548173ffffffffffffffffffffffffffffffffffffffff021916908373ffffffffffffffffffffffffffffffffffffffff160217905550808273ffffffffffffffffffffffffffffffffffffffff16600073ffffffffffffffffffffffffffffffffffffffff167fddf252ad1be2c89b69c2b068fc378daa952ba7f163c4a11628f55a4df523b3ef60405160405180910390a46200072c6000838360016200092860201b60201c565b5050565b60006200075e8473ffffffffffffffffffffffffffffffffffffffff166200092e60201b6200159f1760201c565b15620008cc578373ffffffffffffffffffffffffffffffffffffffff1663150b7a02620007906200038860201b60201c565b8786866040518563ffffffff1660e01b8152600401620007b4949392919062001032565b6020604051808303816000875af1925050508015620007f357506040513d601f19601f82011682018060405250810190620007f09190620010e8565b60015b6200087b573d806000811462000826576040519150601f19603f3d011682016040523d82523d6000602084013e6200082b565b606091505b50600081510362000873576040517f08c379a00000000000000000000000000000000000000000000000000000000081526004016200086a9062000e81565b60405180910390fd5b805181602001fd5b63150b7a0260e01b7bffffffffffffffffffffffffffffffffffffffffffffffffffffffff1916817bffffffffffffffffffffffffffffffffffffffffffffffffffffffff191614915050620008d1565b600190505b949350505050565b60008073ffffffffffffffffffffffffffffffffffffffff1662000903836200095160201b60201c565b73ffffffffffffffffffffffffffffffffffffffff1614159050919050565b50505050565b50505050565b6000808273ffffffffffffffffffffffffffffffffffffffff163b119050919050565b60006002600083815260200190815260200160002060009054906101000a900473ffffffffffffffffffffffffffffffffffffffff169050919050565b600081519050919050565b7f4e487b7100000000000000000000000000000000000000000000000000000000600052604160045260246000fd5b7f4e487b7100000000000000000000000000000000000000000000000000000000600052602260045260246000fd5b6000600282049050600182168062000a1057607f821691505b60208210810362000a265762000a25620009c8565b5b50919050565b60008190508160005260206000209050919050565b60006020601f8301049050919050565b600082821b905092915050565b60006008830262000a907fffffffffffffffffffffffffffffffffffffffffffffffffffffffffffffffff8262000a51565b62000a9c868362000a51565b95508019841693508086168417925050509392505050565b6000819050919050565b6000819050919050565b600062000ae962000ae362000add8462000ab4565b62000abe565b62000ab4565b9050919050565b6000819050919050565b62000b058362000ac8565b62000b1d62000b148262000af0565b84845462000a5e565b825550505050565b600090565b62000b3462000b25565b62000b4181848462000afa565b505050565b5b8181101562000b695762000b5d60008262000b2a565b60018101905062000b47565b5050565b601f82111562000bb85762000b828162000a2c565b62000b8d8462000a41565b8101602085101562000b9d578190505b62000bb562000bac8562000a41565b83018262000b46565b50505b505050565b600082821c905092915050565b600062000bdd6000198460080262000bbd565b1980831691505092915050565b600062000bf8838362000bca565b9150826002028217905092915050565b62000c13826200098e565b67ffffffffffffffff81111562000c2f5762000c2e62000999565b5b62000c3b8254620009f7565b62000c4882828562000b6d565b600060209050601f83116001811462000c80576000841562000c6b578287015190505b62000c77858262000bea565b86555062000ce7565b601f19841662000c908662000a2c565b60005b8281101562000cba5784890151825560018201915060208501945060208101905062000c93565b8683101562000cda578489015162000cd6601f89168262000bca565b8355505b6001600288020188555050505b505050505050565b600073ffffffffffffffffffffffffffffffffffffffff82169050919050565b600062000d1c8262000cef565b9050919050565b62000d2e8162000d0f565b82525050565b600060408201905062000d4b600083018562000d23565b62000d5a602083018462000d23565b9392505050565b600060208201905062000d78600083018462000d23565b92915050565b7f4e487b7100000000000000000000000000000000000000000000000000000000600052601160045260246000fd5b600062000dba8262000ab4565b91507fffffffffffffffffffffffffffffffffffffffffffffffffffffffffffffffff820362000def5762000dee62000d7e565b5b600182019050919050565b600082825260208201905092915050565b7f4552433732313a207472616e7366657220746f206e6f6e20455243373231526560008201527f63656976657220696d706c656d656e7465720000000000000000000000000000602082015250565b600062000e6960328362000dfa565b915062000e768262000e0b565b604082019050919050565b6000602082019050818103600083015262000e9c8162000e5a565b9050919050565b7f4552433732313a206d696e7420746f20746865207a65726f2061646472657373600082015250565b600062000edb60208362000dfa565b915062000ee88262000ea3565b602082019050919050565b6000602082019050818103600083015262000f0e8162000ecc565b9050919050565b7f4552433732313a20746f6b656e20616c7265616479206d696e74656400000000600082015250565b600062000f4d601c8362000dfa565b915062000f5a8262000f15565b602082019050919050565b6000602082019050818103600083015262000f808162000f3e565b9050919050565b62000f928162000ab4565b82525050565b600081519050919050565b600082825260208201905092915050565b60005b8381101562000fd457808201518184015260208101905062000fb7565b60008484015250505050565b6000601f19601f8301169050919050565b600062000ffe8262000f98565b6200100a818562000fa3565b93506200101c81856020860162000fb4565b620010278162000fe0565b840191505092915050565b600060808201905062001049600083018762000d23565b62001058602083018662000d23565b62001067604083018562000f87565b81810360608301526200107b818462000ff1565b905095945050505050565b600080fd5b60007fffffffff0000000000000000000000000000000000000000000000000000000082169050919050565b620010c2816200108b565b8114620010ce57600080fd5b50565b600081519050620010e281620010b7565b92915050565b60006020828403121562001101576200110062001086565b5b60006200111184828501620010d1565b91505092915050565b61399a806200112a6000396000f3fe6080604052600436106101c25760003560e01c80638ecad721116100f7578063a22cb46511610095578063e985e9c511610064578063e985e9c51461060f578063f2fde38b1461064c578063f44b79b314610675578063f47c84c51461067f576101c2565b8063a22cb46514610555578063b88d4fde1461057e578063c6682862146105a7578063c87b56dd146105d2576101c2565b80639abc8320116100d15780639abc8320146104b85780639fd07cf0146104e3578063a035b1fe1461050e578063a0712d6814610539576101c2565b80638ecad7211461043957806391b7f5ed1461046457806395d89b411461048d576101c2565b806342842e0e1161016457806363daa09b1161013e57806363daa09b1461039157806370a08231146103ba578063715018a6146103f75780638da5cb5b1461040e576101c2565b806342842e0e14610300578063564566a8146103295780636352211e14610354576101c2565b8063095ea7b3116101a0578063095ea7b31461026c57806318160ddd1461029557806323b872dd146102c057806334918dfd146102e9576101c2565b806301ffc9a7146101c757806306fdde0314610204578063081812fc1461022f575b600080fd5b3480156101d357600080fd5b506101ee60048036038101906101e991906123c7565b6106aa565b6040516101fb919061240f565b60405180910390f35b34801561021057600080fd5b5061021961078c565b60405161022691906124ba565b60405180910390f35b34801561023b57600080fd5b5061025660048036038101906102519190612512565b61081e565b6040516102639190612580565b60405180910390f35b34801561027857600080fd5b50610293600480360381019061028e91906125c7565b610864565b005b3480156102a157600080fd5b506102aa61097b565b6040516102b79190612616565b60405180910390f35b3480156102cc57600080fd5b506102e760048036038101906102e29190612631565b610981565b005b3480156102f557600080fd5b506102fe610a8d565b005b34801561030c57600080fd5b5061032760048036038101906103229190612631565b610ac1565b005b34801561033557600080fd5b5061033e610bcd565b60405161034b919061240f565b60405180910390f35b34801561036057600080fd5b5061037b60048036038101906103769190612512565b610be0565b6040516103889190612580565b60405180910390f35b34801561039d57600080fd5b506103b860048036038101906103b391906127b9565b610c66565b005b3480156103c657600080fd5b506103e160048036038101906103dc9190612802565b610c81565b6040516103ee9190612616565b60405180910390f35b34801561040357600080fd5b5061040c610d38565b005b34801561041a57600080fd5b50610423610d4c565b6040516104309190612580565b60405180910390f35b34801561044557600080fd5b5061044e610d76565b60405161045b9190612616565b60405180910390f35b34801561047057600080fd5b5061048b60048036038101906104869190612512565b610d7b565b005b34801561049957600080fd5b506104a2610d8d565b6040516104af91906124ba565b60405180910390f35b3480156104c457600080fd5b506104cd610e1f565b6040516104da91906124ba565b60405180910390f35b3480156104ef57600080fd5b506104f8610ead565b6040516105059190612616565b60405180910390f35b34801561051a57600080fd5b50610523610eb2565b6040516105309190612616565b60405180910390f35b610553600480360381019061054e9190612512565b610eb8565b005b34801561056157600080fd5b5061057c6004803603810190610577919061285b565b611120565b005b34801561058a57600080fd5b506105a560048036038101906105a0919061293c565b611136565b005b3480156105b357600080fd5b506105bc611244565b6040516105c991906124ba565b60405180910390f35b3480156105de57600080fd5b506105f960048036038101906105f49190612512565b6112d2565b60405161060691906124ba565b60405180910390f35b34801561061b57600080fd5b50610636600480360381019061063191906129bf565b6112eb565b604051610643919061240f565b60405180910390f35b34801561065857600080fd5b50610673600480360381019061066e9190612802565b61137f565b005b61067d611402565b005b34801561068b57600080fd5b50610694611599565b6040516106a19190612616565b60405180910390f35b60007f80ac58cd000000000000000000000000000000000000000000000000000000007bffffffffffffffffffffffffffffffffffffffffffffffffffffffff1916827bffffffffffffffffffffffffffffffffffffffffffffffffffffffff1916148061077557507f5b5e139f000000000000000000000000000000000000000000000000000000007bffffffffffffffffffffffffffffffffffffffffffffffffffffffff1916827bffffffffffffffffffffffffffffffffffffffffffffffffffffffff1916145b806107855750610784826115c2565b5b9050919050565b60606000805461079b90612a2e565b80601f01602080910402602001604051908101604052809291908181526020018280546107c790612a2e565b80156108145780601f106107e957610100808354040283529160200191610814565b820191906000526020600020905b8154815290600101906020018083116107f757829003601f168201915b5050505050905090565b60006108298261162c565b6004600083815260200190815260200160002060009054906101000a900473ffffffffffffffffffffffffffffffffffffffff169050919050565b600061086f82610be0565b90508073ffffffffffffffffffffffffffffffffffffffff168373ffffffffffffffffffffffffffffffffffffffff16036108df576040517f08c379a00000000000000000000000000000000000000000000000000000000081526004016108d690612ad1565b60405180910390fd5b8073ffffffffffffffffffffffffffffffffffffffff166108fe611677565b73ffffffffffffffffffffffffffffffffffffffff16148061092d575061092c81610927611677565b6112eb565b5b61096c576040517f08c379a000000000000000000000000000000000000000000000000000000000815260040161096390612b63565b60405180910390fd5b610976838361167f565b505050565b60095481565b60006daaeb6d7670e522a718067333cd4e73ffffffffffffffffffffffffffffffffffffffff163b1115610a7d576daaeb6d7670e522a718067333cd4e73ffffffffffffffffffffffffffffffffffffffff1663c617113430336040518363ffffffff1660e01b81526004016109f8929190612b83565b6020604051808303816000875af1158015610a17573d6000803e3d6000fd5b505050506040513d601f19601f82011682018060405250810190610a3b9190612bc1565b610a7c57336040517fede71dcc000000000000000000000000000000000000000000000000000000008152600401610a739190612580565b60405180910390fd5b5b610a88838383611738565b505050565b610a95611798565b600860009054906101000a900460ff1615600860006101000a81548160ff021916908315150217905550565b60006daaeb6d7670e522a718067333cd4e73ffffffffffffffffffffffffffffffffffffffff163b1115610bbd576daaeb6d7670e522a718067333cd4e73ffffffffffffffffffffffffffffffffffffffff1663c617113430336040518363ffffffff1660e01b8152600401610b38929190612b83565b6020604051808303816000875af1158015610b57573d6000803e3d6000fd5b505050506040513d601f19601f82011682018060405250810190610b7b9190612bc1565b610bbc57336040517fede71dcc000000000000000000000000000000000000000000000000000000008152600401610bb39190612580565b60405180910390fd5b5b610bc8838383611816565b505050565b600860009054906101000a900460ff1681565b600080610bec83611836565b9050600073ffffffffffffffffffffffffffffffffffffffff168173ffffffffffffffffffffffffffffffffffffffff1603610c5d576040517f08c379a0000000000000000000000000000000000000000000000000000000008152600401610c5490612c3a565b60405180910390fd5b80915050919050565b610c6e611798565b80600b9081610c7d9190612e06565b5050565b60008073ffffffffffffffffffffffffffffffffffffffff168273ffffffffffffffffffffffffffffffffffffffff1603610cf1576040517f08c379a0000000000000000000000000000000000000000000000000000000008152600401610ce890612f4a565b60405180910390fd5b600360008373ffffffffffffffffffffffffffffffffffffffff1673ffffffffffffffffffffffffffffffffffffffff168152602001908152602001600020549050919050565b610d40611798565b610d4a6000611873565b565b6000600660009054906101000a900473ffffffffffffffffffffffffffffffffffffffff16905090565b600581565b610d83611798565b8060078190555050565b606060018054610d9c90612a2e565b80601f0160208091040260200160405190810160405280929190818152602001828054610dc890612a2e565b8015610e155780601f10610dea57610100808354040283529160200191610e15565b820191906000526020600020905b815481529060010190602001808311610df857829003601f168201915b5050505050905090565b600b8054610e2c90612a2e565b80601f0160208091040260200160405190810160405280929190818152602001828054610e5890612a2e565b8015610ea55780601f10610e7a57610100808354040283529160200191610ea5565b820191906000526020600020905b815481529060010190602001808311610e8857829003601f168201915b505050505081565b600f81565b60075481565b600860009054906101000a900460ff16610f07576040517f08c379a0000000000000000000000000000000000000000000000000000000008152600401610efe90612fb6565b60405180910390fd5b6005811115610f4b576040517f08c379a0000000000000000000000000000000000000000000000000000000008152600401610f4290613048565b60405180910390fd5b600a81600a60003373ffffffffffffffffffffffffffffffffffffffff1673ffffffffffffffffffffffffffffffffffffffff16815260200190815260200160002054610f989190613097565b1115610fd9576040517f08c379a0000000000000000000000000000000000000000000000000000000008152600401610fd09061313d565b60405180910390fd5b600060095490506103e88282610fef9190613097565b1115611030576040517f08c379a0000000000000000000000000000000000000000000000000000000008152600401611027906131a9565b60405180910390fd5b346007548361103f91906131c9565b1115611080576040517f08c379a00000000000000000000000000000000000000000000000000000000081526004016110779061327d565b60405180910390fd5b6000600190505b8281116110b7576110a43360018461109f9190613097565b611939565b80806110af9061329d565b915050611087565b5081600a60003373ffffffffffffffffffffffffffffffffffffffff1673ffffffffffffffffffffffffffffffffffffffff16815260200190815260200160002060008282546111079190613097565b92505081905550818161111a9190613097565b90505050565b61113261112b611677565b8383611957565b5050565b60006daaeb6d7670e522a718067333cd4e73ffffffffffffffffffffffffffffffffffffffff163b1115611232576daaeb6d7670e522a718067333cd4e73ffffffffffffffffffffffffffffffffffffffff1663c617113430336040518363ffffffff1660e01b81526004016111ad929190612b83565b6020604051808303816000875af11580156111cc573d6000803e3d6000fd5b505050506040513d601f19601f820116820180604052508101906111f09190612bc1565b61123157336040517fede71dcc0000000000000000000000000000000000000000000000000000000081526004016112289190612580565b60405180910390fd5b5b61123e84848484611ac3565b50505050565b600c805461125190612a2e565b80601f016020809104026020016040519081016040528092919081815260200182805461127d90612a2e565b80156112ca5780601f1061129f576101008083540402835291602001916112ca565b820191906000526020600020905b8154815290600101906020018083116112ad57829003601f168201915b505050505081565b6060604051806020016040528060008152509050919050565b6000600560008473ffffffffffffffffffffffffffffffffffffffff1673ffffffffffffffffffffffffffffffffffffffff16815260200190815260200160002060008373ffffffffffffffffffffffffffffffffffffffff1673ffffffffffffffffffffffffffffffffffffffff16815260200190815260200160002060009054906101000a900460ff16905092915050565b611387611798565b600073ffffffffffffffffffffffffffffffffffffffff168173ffffffffffffffffffffffffffffffffffffffff16036113f6576040517f08c379a00000000000000000000000000000000000000000000000000000000081526004016113ed90613357565b60405180910390fd5b6113ff81611873565b50565b61140a611798565b60004790506000606460468361142091906131c9565b61142a91906133a6565b905060006064601e8461143d91906131c9565b61144791906133a6565b9050600073db765a02a59fb25a8c2be041027621c726dff2f173ffffffffffffffffffffffffffffffffffffffff168360405161148390613408565b60006040518083038185875af1925050503d80600081146114c0576040519150601f19603f3d011682016040523d82523d6000602084013e6114c5565b606091505b50509050600073db765a02a59fb25a8c2be041027621c726dff2f173ffffffffffffffffffffffffffffffffffffffff168360405161150390613408565b60006040518083038185875af1925050503d8060008114611540576040519150601f19603f3d011682016040523d82523d6000602084013e611545565b606091505b505090508180156115535750805b611592576040517f08c379a000000000000000000000000000000000000000000000000000000000815260040161158990613469565b60405180910390fd5b5050505050565b6103e881565b6000808273ffffffffffffffffffffffffffffffffffffffff163b119050919050565b60007f01ffc9a7000000000000000000000000000000000000000000000000000000007bffffffffffffffffffffffffffffffffffffffffffffffffffffffff1916827bffffffffffffffffffffffffffffffffffffffffffffffffffffffff1916149050919050565b61163581611b25565b611674576040517f08c379a000000000000000000000000000000000000000000000000000000000815260040161166b90612c3a565b60405180910390fd5b50565b600033905090565b816004600083815260200190815260200160002060006101000a81548173ffffffffffffffffffffffffffffffffffffffff021916908373ffffffffffffffffffffffffffffffffffffffff160217905550808273ffffffffffffffffffffffffffffffffffffffff166116f283610be0565b73ffffffffffffffffffffffffffffffffffffffff167f8c5be1e5ebec7d5bd14f71427d1e84f3dd0314c0f7b2291e5b200ac8c7c3b92560405160405180910390a45050565b611749611743611677565b82611b66565b611788576040517f08c379a000000000000000000000000000000000000000000000000000000000815260040161177f906134fb565b60405180910390fd5b611793838383611bfb565b505050565b6117a0611677565b73ffffffffffffffffffffffffffffffffffffffff166117be610d4c565b73ffffffffffffffffffffffffffffffffffffffff1614611814576040517f08c379a000000000000000000000000000000000000000000000000000000000815260040161180b90613567565b60405180910390fd5b565b61183183838360405180602001604052806000815250611136565b505050565b60006002600083815260200190815260200160002060009054906101000a900473ffffffffffffffffffffffffffffffffffffffff169050919050565b6000600660009054906101000a900473ffffffffffffffffffffffffffffffffffffffff16905081600660006101000a81548173ffffffffffffffffffffffffffffffffffffffff021916908373ffffffffffffffffffffffffffffffffffffffff1602179055508173ffffffffffffffffffffffffffffffffffffffff168173ffffffffffffffffffffffffffffffffffffffff167f8be0079c531659141344cd1fd0a4f28419497f9722a3daafe3b4186f6b6457e060405160405180910390a35050565b611953828260405180602001604052806000815250611ef4565b5050565b8173ffffffffffffffffffffffffffffffffffffffff168373ffffffffffffffffffffffffffffffffffffffff16036119c5576040517f08c379a00000000000000000000000000000000000000000000000000000000081526004016119bc906135d3565b60405180910390fd5b80600560008573ffffffffffffffffffffffffffffffffffffffff1673ffffffffffffffffffffffffffffffffffffffff16815260200190815260200160002060008473ffffffffffffffffffffffffffffffffffffffff1673ffffffffffffffffffffffffffffffffffffffff16815260200190815260200160002060006101000a81548160ff0219169083151502179055508173ffffffffffffffffffffffffffffffffffffffff168373ffffffffffffffffffffffffffffffffffffffff167f17307eab39ab6107e8899845ad3d59bd9653f200f220920489ca2b5937696c3183604051611ab6919061240f565b60405180910390a3505050565b611ad4611ace611677565b83611b66565b611b13576040517f08c379a0000000000000000000000000000000000000000000000000000000008152600401611b0a906134fb565b60405180910390fd5b611b1f84848484611f4f565b50505050565b60008073ffffffffffffffffffffffffffffffffffffffff16611b4783611836565b73ffffffffffffffffffffffffffffffffffffffff1614159050919050565b600080611b7283610be0565b90508073ffffffffffffffffffffffffffffffffffffffff168473ffffffffffffffffffffffffffffffffffffffff161480611bb45750611bb381856112eb565b5b80611bf257508373ffffffffffffffffffffffffffffffffffffffff16611bda8461081e565b73ffffffffffffffffffffffffffffffffffffffff16145b91505092915050565b8273ffffffffffffffffffffffffffffffffffffffff16611c1b82610be0565b73ffffffffffffffffffffffffffffffffffffffff1614611c71576040517f08c379a0000000000000000000000000000000000000000000000000000000008152600401611c6890613665565b60405180910390fd5b600073ffffffffffffffffffffffffffffffffffffffff168273ffffffffffffffffffffffffffffffffffffffff1603611ce0576040517f08c379a0000000000000000000000000000000000000000000000000000000008152600401611cd7906136f7565b60405180910390fd5b611ced8383836001611fab565b8273ffffffffffffffffffffffffffffffffffffffff16611d0d82610be0565b73ffffffffffffffffffffffffffffffffffffffff1614611d63576040517f08c379a0000000000000000000000000000000000000000000000000000000008152600401611d5a90613665565b60405180910390fd5b6004600082815260200190815260200160002060006101000a81549073ffffffffffffffffffffffffffffffffffffffff02191690556001600360008573ffffffffffffffffffffffffffffffffffffffff1673ffffffffffffffffffffffffffffffffffffffff168152602001908152602001600020600082825403925050819055506001600360008473ffffffffffffffffffffffffffffffffffffffff1673ffffffffffffffffffffffffffffffffffffffff16815260200190815260200160002060008282540192505081905550816002600083815260200190815260200160002060006101000a81548173ffffffffffffffffffffffffffffffffffffffff021916908373ffffffffffffffffffffffffffffffffffffffff160217905550808273ffffffffffffffffffffffffffffffffffffffff168473ffffffffffffffffffffffffffffffffffffffff167fddf252ad1be2c89b69c2b068fc378daa952ba7f163c4a11628f55a4df523b3ef60405160405180910390a4611eef8383836001611fb1565b505050565b611efe8383611fb7565b611f0b60008484846121d4565b611f4a576040517f08c379a0000000000000000000000000000000000000000000000000000000008152600401611f4190613789565b60405180910390fd5b505050565b611f5a848484611bfb565b611f66848484846121d4565b611fa5576040517f08c379a0000000000000000000000000000000000000000000000000000000008152600401611f9c90613789565b60405180910390fd5b50505050565b50505050565b50505050565b600073ffffffffffffffffffffffffffffffffffffffff168273ffffffffffffffffffffffffffffffffffffffff1603612026576040517f08c379a000000000000000000000000000000000000000000000000000000000815260040161201d906137f5565b60405180910390fd5b61202f81611b25565b1561206f576040517f08c379a000000000000000000000000000000000000000000000000000000000815260040161206690613861565b60405180910390fd5b61207d600083836001611fab565b61208681611b25565b156120c6576040517f08c379a00000000000000000000000000000000000000000000000000000000081526004016120bd90613861565b60405180910390fd5b6001600360008473ffffffffffffffffffffffffffffffffffffffff1673ffffffffffffffffffffffffffffffffffffffff16815260200190815260200160002060008282540192505081905550816002600083815260200190815260200160002060006101000a81548173ffffffffffffffffffffffffffffffffffffffff021916908373ffffffffffffffffffffffffffffffffffffffff160217905550808273ffffffffffffffffffffffffffffffffffffffff16600073ffffffffffffffffffffffffffffffffffffffff167fddf252ad1be2c89b69c2b068fc378daa952ba7f163c4a11628f55a4df523b3ef60405160405180910390a46121d0600083836001611fb1565b5050565b60006121f58473ffffffffffffffffffffffffffffffffffffffff1661159f565b1561234e578373ffffffffffffffffffffffffffffffffffffffff1663150b7a0261221e611677565b8786866040518563ffffffff1660e01b815260040161224094939291906138d6565b6020604051808303816000875af192505050801561227c57506040513d601f19601f820116820180604052508101906122799190613937565b60015b6122fe573d80600081146122ac576040519150601f19603f3d011682016040523d82523d6000602084013e6122b1565b606091505b5060008151036122f6576040517f08c379a00000000000000000000000000000000000000000000000000000000081526004016122ed90613789565b60405180910390fd5b805181602001fd5b63150b7a0260e01b7bffffffffffffffffffffffffffffffffffffffffffffffffffffffff1916817bffffffffffffffffffffffffffffffffffffffffffffffffffffffff191614915050612353565b600190505b949350505050565b6000604051905090565b600080fd5b600080fd5b60007fffffffff0000000000000000000000000000000000000000000000000000000082169050919050565b6123a48161236f565b81146123af57600080fd5b50565b6000813590506123c18161239b565b92915050565b6000602082840312156123dd576123dc612365565b5b60006123eb848285016123b2565b91505092915050565b60008115159050919050565b612409816123f4565b82525050565b60006020820190506124246000830184612400565b92915050565b600081519050919050565b600082825260208201905092915050565b60005b83811015612464578082015181840152602081019050612449565b60008484015250505050565b6000601f19601f8301169050919050565b600061248c8261242a565b6124968185612435565b93506124a6818560208601612446565b6124af81612470565b840191505092915050565b600060208201905081810360008301526124d48184612481565b905092915050565b6000819050919050565b6124ef816124dc565b81146124fa57600080fd5b50565b60008135905061250c816124e6565b92915050565b60006020828403121561252857612527612365565b5b6000612536848285016124fd565b91505092915050565b600073ffffffffffffffffffffffffffffffffffffffff82169050919050565b600061256a8261253f565b9050919050565b61257a8161255f565b82525050565b60006020820190506125956000830184612571565b92915050565b6125a48161255f565b81146125af57600080fd5b50565b6000813590506125c18161259b565b92915050565b600080604083850312156125de576125dd612365565b5b60006125ec858286016125b2565b92505060206125fd858286016124fd565b9150509250929050565b612610816124dc565b82525050565b600060208201905061262b6000830184612607565b92915050565b60008060006060848603121561264a57612649612365565b5b6000612658868287016125b2565b9350506020612669868287016125b2565b925050604061267a868287016124fd565b9150509250925092565b600080fd5b600080fd5b7f4e487b7100000000000000000000000000000000000000000000000000000000600052604160045260246000fd5b6126c682612470565b810181811067ffffffffffffffff821117156126e5576126e461268e565b5b80604052505050565b60006126f861235b565b905061270482826126bd565b919050565b600067ffffffffffffffff8211156127245761272361268e565b5b61272d82612470565b9050602081019050919050565b82818337600083830152505050565b600061275c61275784612709565b6126ee565b90508281526020810184848401111561277857612777612689565b5b61278384828561273a565b509392505050565b600082601f8301126127a05761279f612684565b5b81356127b0848260208601612749565b91505092915050565b6000602082840312156127cf576127ce612365565b5b600082013567ffffffffffffffff8111156127ed576127ec61236a565b5b6127f98482850161278b565b91505092915050565b60006020828403121561281857612817612365565b5b6000612826848285016125b2565b91505092915050565b612838816123f4565b811461284357600080fd5b50565b6000813590506128558161282f565b92915050565b6000806040838503121561287257612871612365565b5b6000612880858286016125b2565b925050602061289185828601612846565b9150509250929050565b600067ffffffffffffffff8211156128b6576128b561268e565b5b6128bf82612470565b9050602081019050919050565b60006128df6128da8461289b565b6126ee565b9050828152602081018484840111156128fb576128fa612689565b5b61290684828561273a565b509392505050565b600082601f83011261292357612922612684565b5b81356129338482602086016128cc565b91505092915050565b6000806000806080858703121561295657612955612365565b5b6000612964878288016125b2565b9450506020612975878288016125b2565b9350506040612986878288016124fd565b925050606085013567ffffffffffffffff8111156129a7576129a661236a565b5b6129b38782880161290e565b91505092959194509250565b600080604083850312156129d6576129d5612365565b5b60006129e4858286016125b2565b92505060206129f5858286016125b2565b9150509250929050565b7f4e487b7100000000000000000000000000000000000000000000000000000000600052602260045260246000fd5b60006002820490506001821680612a4657607f821691505b602082108103612a5957612a586129ff565b5b50919050565b7f4552433732313a20617070726f76616c20746f2063757272656e74206f776e6560008201527f7200000000000000000000000000000000000000000000000000000000000000602082015250565b6000612abb602183612435565b9150612ac682612a5f565b604082019050919050565b60006020820190508181036000830152612aea81612aae565b9050919050565b7f4552433732313a20617070726f76652063616c6c6572206973206e6f7420746f60008201527f6b656e206f776e6572206f7220617070726f76656420666f7220616c6c000000602082015250565b6000612b4d603d83612435565b9150612b5882612af1565b604082019050919050565b60006020820190508181036000830152612b7c81612b40565b9050919050565b6000604082019050612b986000830185612571565b612ba56020830184612571565b9392505050565b600081519050612bbb8161282f565b92915050565b600060208284031215612bd757612bd6612365565b5b6000612be584828501612bac565b91505092915050565b7f4552433732313a20696e76616c696420746f6b656e2049440000000000000000600082015250565b6000612c24601883612435565b9150612c2f82612bee565b602082019050919050565b60006020820190508181036000830152612c5381612c17565b9050919050565b60008190508160005260206000209050919050565b60006020601f8301049050919050565b600082821b905092915050565b600060088302612cbc7fffffffffffffffffffffffffffffffffffffffffffffffffffffffffffffffff82612c7f565b612cc68683612c7f565b95508019841693508086168417925050509392505050565b6000819050919050565b6000612d03612cfe612cf9846124dc565b612cde565b6124dc565b9050919050565b6000819050919050565b612d1d83612ce8565b612d31612d2982612d0a565b848454612c8c565b825550505050565b600090565b612d46612d39565b612d51818484612d14565b505050565b5b81811015612d7557612d6a600082612d3e565b600181019050612d57565b5050565b601f821115612dba57612d8b81612c5a565b612d9484612c6f565b81016020851015612da3578190505b612db7612daf85612c6f565b830182612d56565b50505b505050565b600082821c905092915050565b6000612ddd60001984600802612dbf565b1980831691505092915050565b6000612df68383612dcc565b9150826002028217905092915050565b612e0f8261242a565b67ffffffffffffffff811115612e2857612e2761268e565b5b612e328254612a2e565b612e3d828285612d79565b600060209050601f831160018114612e705760008415612e5e578287015190505b612e688582612dea565b865550612ed0565b601f198416612e7e86612c5a565b60005b82811015612ea657848901518255600182019150602085019450602081019050612e81565b86831015612ec35784890151612ebf601f891682612dcc565b8355505b6001600288020188555050505b505050505050565b7f4552433732313a2061646472657373207a65726f206973206e6f74206120766160008201527f6c6964206f776e65720000000000000000000000000000000000000000000000602082015250565b6000612f34602983612435565b9150612f3f82612ed8565b604082019050919050565b60006020820190508181036000830152612f6381612f27565b9050919050565b7f5468652073616c65206973207061757365640000000000000000000000000000600082015250565b6000612fa0601283612435565b9150612fab82612f6a565b602082019050919050565b60006020820190508181036000830152612fcf81612f93565b9050919050565b7f596f752063616e206f6e6c79206d696e742061206d6178696d756d206f66202760008201527f4d41585f4d494e545f5045525f54582700000000000000000000000000000000602082015250565b6000613032603083612435565b915061303d82612fd6565b604082019050919050565b6000602082019050818103600083015261306181613025565b9050919050565b7f4e487b7100000000000000000000000000000000000000000000000000000000600052601160045260246000fd5b60006130a2826124dc565b91506130ad836124dc565b92508282019050808211156130c5576130c4613068565b5b92915050565b7f596f752063616e206f6e6c79206d696e7420274d41585f4d494e545f5045525f60008201527f545827207065722057616c6c6574000000000000000000000000000000000000602082015250565b6000613127602e83612435565b9150613132826130cb565b604082019050919050565b600060208201905081810360008301526131568161311a565b9050919050565b7f4578636565647320274d41585f544f4b454e5327000000000000000000000000600082015250565b6000613193601483612435565b915061319e8261315d565b602082019050919050565b600060208201905081810360008301526131c281613186565b9050919050565b60006131d4826124dc565b91506131df836124dc565b92508282026131ed816124dc565b9150828204841483151761320457613203613068565b5b5092915050565b7f496e73756666696369656e742066756e64732e20596f75206e656564206d6f7260008201527f2045544821000000000000000000000000000000000000000000000000000000602082015250565b6000613267602583612435565b91506132728261320b565b604082019050919050565b600060208201905081810360008301526132968161325a565b9050919050565b60006132a8826124dc565b91507fffffffffffffffffffffffffffffffffffffffffffffffffffffffffffffffff82036132da576132d9613068565b5b600182019050919050565b7f4f776e61626c653a206e6577206f776e657220697320746865207a65726f206160008201527f6464726573730000000000000000000000000000000000000000000000000000602082015250565b6000613341602683612435565b915061334c826132e5565b604082019050919050565b6000602082019050818103600083015261337081613334565b9050919050565b7f4e487b7100000000000000000000000000000000000000000000000000000000600052601260045260246000fd5b60006133b1826124dc565b91506133bc836124dc565b9250826133cc576133cb613377565b5b828204905092915050565b600081905092915050565b50565b60006133f26000836133d7565b91506133fd826133e2565b600082019050919050565b6000613413826133e5565b9150819050919050565b7f5472616e73666572206661696c65640000000000000000000000000000000000600082015250565b6000613453600f83612435565b915061345e8261341d565b602082019050919050565b6000602082019050818103600083015261348281613446565b9050919050565b7f4552433732313a2063616c6c6572206973206e6f7420746f6b656e206f776e6560008201527f72206f7220617070726f76656400000000000000000000000000000000000000602082015250565b60006134e5602d83612435565b91506134f082613489565b604082019050919050565b60006020820190508181036000830152613514816134d8565b9050919050565b7f4f776e61626c653a2063616c6c6572206973206e6f7420746865206f776e6572600082015250565b6000613551602083612435565b915061355c8261351b565b602082019050919050565b6000602082019050818103600083015261358081613544565b9050919050565b7f4552433732313a20617070726f766520746f2063616c6c657200000000000000600082015250565b60006135bd601983612435565b91506135c882613587565b602082019050919050565b600060208201905081810360008301526135ec816135b0565b9050919050565b7f4552433732313a207472616e736665722066726f6d20696e636f72726563742060008201527f6f776e6572000000000000000000000000000000000000000000000000000000602082015250565b600061364f602583612435565b915061365a826135f3565b604082019050919050565b6000602082019050818103600083015261367e81613642565b9050919050565b7f4552433732313a207472616e7366657220746f20746865207a65726f2061646460008201527f7265737300000000000000000000000000000000000000000000000000000000602082015250565b60006136e1602483612435565b91506136ec82613685565b604082019050919050565b60006020820190508181036000830152613710816136d4565b9050919050565b7f4552433732313a207472616e7366657220746f206e6f6e20455243373231526560008201527f63656976657220696d706c656d656e7465720000000000000000000000000000602082015250565b6000613773603283612435565b915061377e82613717565b604082019050919050565b600060208201905081810360008301526137a281613766565b9050919050565b7f4552433732313a206d696e7420746f20746865207a65726f2061646472657373600082015250565b60006137df602083612435565b91506137ea826137a9565b602082019050919050565b6000602082019050818103600083015261380e816137d2565b9050919050565b7f4552433732313a20746f6b656e20616c7265616479206d696e74656400000000600082015250565b600061384b601c83612435565b915061385682613815565b602082019050919050565b6000602082019050818103600083015261387a8161383e565b9050919050565b600081519050919050565b600082825260208201905092915050565b60006138a882613881565b6138b2818561388c565b93506138c2818560208601612446565b6138cb81612470565b840191505092915050565b60006080820190506138eb6000830187612571565b6138f86020830186612571565b6139056040830185612607565b8181036060830152613917818461389d565b905095945050505050565b6000815190506139318161239b565b92915050565b60006020828403121561394d5761394c612365565b5b600061395b84828501613922565b9150509291505056fea264697066735822122049cb4baef3e56319e1036c68f356cc3d176dbda4ed0d66ee897d2c2e5b637a7e64736f6c63430008120033697066733a2f2f516d564b53556441637a624533475a4d654b53574c4269465750556d756262397a424732464367613268416559562f",
			"opcodes": "PUSH1 0x80 PUSH1 0x40 MSTORE PUSH1 0x0 PUSH1 0x7 SSTORE PUSH1 0x40 MLOAD DUP1 PUSH1 0x40 ADD PUSH1 0x40 MSTORE DUP1 PUSH1 0x5 DUP2 MSTORE PUSH1 0x20 ADD PUSH32 0x2E6A736F6E000000000000000000000000000000000000000000000000000000 DUP2 MSTORE POP PUSH1 0xC SWAP1 DUP2 PUSH3 0x4F SWAP2 SWAP1 PUSH3 0xC08 JUMP JUMPDEST POP CALLVALUE DUP1 ISZERO PUSH3 0x5D JUMPI PUSH1 0x0 DUP1 REVERT JUMPDEST POP PUSH20 0x3CC6CDDA760B79BAFA08DF41ECFA224F810DCEB6 PUSH1 0x1 PUSH1 0x40 MLOAD DUP1 PUSH1 0x40 ADD PUSH1 0x40 MSTORE DUP1 PUSH1 0x10 DUP2 MSTORE PUSH1 0x20 ADD PUSH32 0x456E64616C6C20426174616E204E465400000000000000000000000000000000 DUP2 MSTORE POP PUSH1 0x40 MLOAD DUP1 PUSH1 0x40 ADD PUSH1 0x40 MSTORE DUP1 PUSH1 0x6 DUP2 MSTORE PUSH1 0x20 ADD PUSH32 0x45422D4E46540000000000000000000000000000000000000000000000000000 DUP2 MSTORE POP DUP2 PUSH1 0x0 SWAP1 DUP2 PUSH3 0xF2 SWAP2 SWAP1 PUSH3 0xC08 JUMP JUMPDEST POP DUP1 PUSH1 0x1 SWAP1 DUP2 PUSH3 0x104 SWAP2 SWAP1 PUSH3 0xC08 JUMP JUMPDEST POP POP POP PUSH3 0x127 PUSH3 0x11B PUSH3 0x388 PUSH1 0x20 SHL PUSH1 0x20 SHR JUMP JUMPDEST PUSH3 0x390 PUSH1 0x20 SHL PUSH1 0x20 SHR JUMP JUMPDEST PUSH1 0x0 PUSH14 0xAAEB6D7670E522A718067333CD4E PUSH20 0xFFFFFFFFFFFFFFFFFFFFFFFFFFFFFFFFFFFFFFFF AND EXTCODESIZE GT ISZERO PUSH3 0x31C JUMPI DUP1 ISZERO PUSH3 0x1E2 JUMPI PUSH14 0xAAEB6D7670E522A718067333CD4E PUSH20 0xFFFFFFFFFFFFFFFFFFFFFFFFFFFFFFFFFFFFFFFF AND PUSH4 0x7D3E3DBE ADDRESS DUP5 PUSH1 0x40 MLOAD DUP4 PUSH4 0xFFFFFFFF AND PUSH1 0xE0 SHL DUP2 MSTORE PUSH1 0x4 ADD PUSH3 0x1A8 SWAP3 SWAP2 SWAP1 PUSH3 0xD34 JUMP JUMPDEST PUSH1 0x0 PUSH1 0x40 MLOAD DUP1 DUP4 SUB DUP2 PUSH1 0x0 DUP8 DUP1 EXTCODESIZE ISZERO DUP1 ISZERO PUSH3 0x1C3 JUMPI PUSH1 0x0 DUP1 REVERT JUMPDEST POP GAS CALL ISZERO DUP1 ISZERO PUSH3 0x1D8 JUMPI RETURNDATASIZE PUSH1 0x0 DUP1 RETURNDATACOPY RETURNDATASIZE PUSH1 0x0 REVERT JUMPDEST POP POP POP POP PUSH3 0x31B JUMP JUMPDEST PUSH1 0x0 PUSH20 0xFFFFFFFFFFFFFFFFFFFFFFFFFFFFFFFFFFFFFFFF AND DUP3 PUSH20 0xFFFFFFFFFFFFFFFFFFFFFFFFFFFFFFFFFFFFFFFF AND EQ PUSH3 0x29C JUMPI PUSH14 0xAAEB6D7670E522A718067333CD4E PUSH20 0xFFFFFFFFFFFFFFFFFFFFFFFFFFFFFFFFFFFFFFFF AND PUSH4 0xA0AF2903 ADDRESS DUP5 PUSH1 0x40 MLOAD DUP4 PUSH4 0xFFFFFFFF AND PUSH1 0xE0 SHL DUP2 MSTORE PUSH1 0x4 ADD PUSH3 0x262 SWAP3 SWAP2 SWAP1 PUSH3 0xD34 JUMP JUMPDEST PUSH1 0x0 PUSH1 0x40 MLOAD DUP1 DUP4 SUB DUP2 PUSH1 0x0 DUP8 DUP1 EXTCODESIZE ISZERO DUP1 ISZERO PUSH3 0x27D JUMPI PUSH1 0x0 DUP1 REVERT JUMPDEST POP GAS CALL ISZERO DUP1 ISZERO PUSH3 0x292 JUMPI RETURNDATASIZE PUSH1 0x0 DUP1 RETURNDATACOPY RETURNDATASIZE PUSH1 0x0 REVERT JUMPDEST POP POP POP POP PUSH3 0x31A JUMP JUMPDEST PUSH14 0xAAEB6D7670E522A718067333CD4E PUSH20 0xFFFFFFFFFFFFFFFFFFFFFFFFFFFFFFFFFFFFFFFF AND PUSH4 0x4420E486 ADDRESS PUSH1 0x40 MLOAD DUP3 PUSH4 0xFFFFFFFF AND PUSH1 0xE0 SHL DUP2 MSTORE PUSH1 0x4 ADD PUSH3 0x2E5 SWAP2 SWAP1 PUSH3 0xD61 JUMP JUMPDEST PUSH1 0x0 PUSH1 0x40 MLOAD DUP1 DUP4 SUB DUP2 PUSH1 0x0 DUP8 DUP1 EXTCODESIZE ISZERO DUP1 ISZERO PUSH3 0x300 JUMPI PUSH1 0x0 DUP1 REVERT JUMPDEST POP GAS CALL ISZERO DUP1 ISZERO PUSH3 0x315 JUMPI RETURNDATASIZE PUSH1 0x0 DUP1 RETURNDATACOPY RETURNDATASIZE PUSH1 0x0 REVERT JUMPDEST POP POP POP POP JUMPDEST JUMPDEST JUMPDEST POP POP PUSH1 0x40 MLOAD DUP1 PUSH1 0x60 ADD PUSH1 0x40 MSTORE DUP1 PUSH1 0x36 DUP2 MSTORE PUSH1 0x20 ADD PUSH3 0x4AC4 PUSH1 0x36 SWAP2 CODECOPY PUSH1 0xB SWAP1 DUP2 PUSH3 0x348 SWAP2 SWAP1 PUSH3 0xC08 JUMP JUMPDEST POP PUSH1 0x0 PUSH1 0x1 SWAP1 POP JUMPDEST PUSH1 0xF DUP2 GT PUSH3 0x381 JUMPI PUSH3 0x36B CALLER DUP3 PUSH3 0x456 PUSH1 0x20 SHL PUSH1 0x20 SHR JUMP JUMPDEST DUP1 DUP1 PUSH3 0x378 SWAP1 PUSH3 0xDAD JUMP JUMPDEST SWAP2 POP POP PUSH3 0x350 JUMP JUMPDEST POP PUSH3 0x111A JUMP JUMPDEST PUSH1 0x0 CALLER SWAP1 POP SWAP1 JUMP JUMPDEST PUSH1 0x0 PUSH1 0x6 PUSH1 0x0 SWAP1 SLOAD SWAP1 PUSH2 0x100 EXP SWAP1 DIV PUSH20 0xFFFFFFFFFFFFFFFFFFFFFFFFFFFFFFFFFFFFFFFF AND SWAP1 POP DUP2 PUSH1 0x6 PUSH1 0x0 PUSH2 0x100 EXP DUP2 SLOAD DUP2 PUSH20 0xFFFFFFFFFFFFFFFFFFFFFFFFFFFFFFFFFFFFFFFF MUL NOT AND SWAP1 DUP4 PUSH20 0xFFFFFFFFFFFFFFFFFFFFFFFFFFFFFFFFFFFFFFFF AND MUL OR SWAP1 SSTORE POP DUP2 PUSH20 0xFFFFFFFFFFFFFFFFFFFFFFFFFFFFFFFFFFFFFFFF AND DUP2 PUSH20 0xFFFFFFFFFFFFFFFFFFFFFFFFFFFFFFFFFFFFFFFF AND PUSH32 0x8BE0079C531659141344CD1FD0A4F28419497F9722A3DAAFE3B4186F6B6457E0 PUSH1 0x40 MLOAD PUSH1 0x40 MLOAD DUP1 SWAP2 SUB SWAP1 LOG3 POP POP JUMP JUMPDEST PUSH3 0x478 DUP3 DUP3 PUSH1 0x40 MLOAD DUP1 PUSH1 0x20 ADD PUSH1 0x40 MSTORE DUP1 PUSH1 0x0 DUP2 MSTORE POP PUSH3 0x47C PUSH1 0x20 SHL PUSH1 0x20 SHR JUMP JUMPDEST POP POP JUMP JUMPDEST PUSH3 0x48E DUP4 DUP4 PUSH3 0x4EA PUSH1 0x20 SHL PUSH1 0x20 SHR JUMP JUMPDEST PUSH3 0x4A3 PUSH1 0x0 DUP5 DUP5 DUP5 PUSH3 0x730 PUSH1 0x20 SHL PUSH1 0x20 SHR JUMP JUMPDEST PUSH3 0x4E5 JUMPI PUSH1 0x40 MLOAD PUSH32 0x8C379A000000000000000000000000000000000000000000000000000000000 DUP2 MSTORE PUSH1 0x4 ADD PUSH3 0x4DC SWAP1 PUSH3 0xE81 JUMP JUMPDEST PUSH1 0x40 MLOAD DUP1 SWAP2 SUB SWAP1 REVERT JUMPDEST POP POP POP JUMP JUMPDEST PUSH1 0x0 PUSH20 0xFFFFFFFFFFFFFFFFFFFFFFFFFFFFFFFFFFFFFFFF AND DUP3 PUSH20 0xFFFFFFFFFFFFFFFFFFFFFFFFFFFFFFFFFFFFFFFF AND SUB PUSH3 0x55C JUMPI PUSH1 0x40 MLOAD PUSH32 0x8C379A000000000000000000000000000000000000000000000000000000000 DUP2 MSTORE PUSH1 0x4 ADD PUSH3 0x553 SWAP1 PUSH3 0xEF3 JUMP JUMPDEST PUSH1 0x40 MLOAD DUP1 SWAP2 SUB SWAP1 REVERT JUMPDEST PUSH3 0x56D DUP2 PUSH3 0x8D9 PUSH1 0x20 SHL PUSH1 0x20 SHR JUMP JUMPDEST ISZERO PUSH3 0x5B0 JUMPI PUSH1 0x40 MLOAD PUSH32 0x8C379A000000000000000000000000000000000000000000000000000000000 DUP2 MSTORE PUSH1 0x4 ADD PUSH3 0x5A7 SWAP1 PUSH3 0xF65 JUMP JUMPDEST PUSH1 0x40 MLOAD DUP1 SWAP2 SUB SWAP1 REVERT JUMPDEST PUSH3 0x5C6 PUSH1 0x0 DUP4 DUP4 PUSH1 0x1 PUSH3 0x922 PUSH1 0x20 SHL PUSH1 0x20 SHR JUMP JUMPDEST PUSH3 0x5D7 DUP2 PUSH3 0x8D9 PUSH1 0x20 SHL PUSH1 0x20 SHR JUMP JUMPDEST ISZERO PUSH3 0x61A JUMPI PUSH1 0x40 MLOAD PUSH32 0x8C379A000000000000000000000000000000000000000000000000000000000 DUP2 MSTORE PUSH1 0x4 ADD PUSH3 0x611 SWAP1 PUSH3 0xF65 JUMP JUMPDEST PUSH1 0x40 MLOAD DUP1 SWAP2 SUB SWAP1 REVERT JUMPDEST PUSH1 0x1 PUSH1 0x3 PUSH1 0x0 DUP5 PUSH20 0xFFFFFFFFFFFFFFFFFFFFFFFFFFFFFFFFFFFFFFFF AND PUSH20 0xFFFFFFFFFFFFFFFFFFFFFFFFFFFFFFFFFFFFFFFF AND DUP2 MSTORE PUSH1 0x20 ADD SWAP1 DUP2 MSTORE PUSH1 0x20 ADD PUSH1 0x0 KECCAK256 PUSH1 0x0 DUP3 DUP3 SLOAD ADD SWAP3 POP POP DUP2 SWAP1 SSTORE POP DUP2 PUSH1 0x2 PUSH1 0x0 DUP4 DUP2 MSTORE PUSH1 0x20 ADD SWAP1 DUP2 MSTORE PUSH1 0x20 ADD PUSH1 0x0 KECCAK256 PUSH1 0x0 PUSH2 0x100 EXP DUP2 SLOAD DUP2 PUSH20 0xFFFFFFFFFFFFFFFFFFFFFFFFFFFFFFFFFFFFFFFF MUL NOT AND SWAP1 DUP4 PUSH20 0xFFFFFFFFFFFFFFFFFFFFFFFFFFFFFFFFFFFFFFFF AND MUL OR SWAP1 SSTORE POP DUP1 DUP3 PUSH20 0xFFFFFFFFFFFFFFFFFFFFFFFFFFFFFFFFFFFFFFFF AND PUSH1 0x0 PUSH20 0xFFFFFFFFFFFFFFFFFFFFFFFFFFFFFFFFFFFFFFFF AND PUSH32 0xDDF252AD1BE2C89B69C2B068FC378DAA952BA7F163C4A11628F55A4DF523B3EF PUSH1 0x40 MLOAD PUSH1 0x40 MLOAD DUP1 SWAP2 SUB SWAP1 LOG4 PUSH3 0x72C PUSH1 0x0 DUP4 DUP4 PUSH1 0x1 PUSH3 0x928 PUSH1 0x20 SHL PUSH1 0x20 SHR JUMP JUMPDEST POP POP JUMP JUMPDEST PUSH1 0x0 PUSH3 0x75E DUP5 PUSH20 0xFFFFFFFFFFFFFFFFFFFFFFFFFFFFFFFFFFFFFFFF AND PUSH3 0x92E PUSH1 0x20 SHL PUSH3 0x159F OR PUSH1 0x20 SHR JUMP JUMPDEST ISZERO PUSH3 0x8CC JUMPI DUP4 PUSH20 0xFFFFFFFFFFFFFFFFFFFFFFFFFFFFFFFFFFFFFFFF AND PUSH4 0x150B7A02 PUSH3 0x790 PUSH3 0x388 PUSH1 0x20 SHL PUSH1 0x20 SHR JUMP JUMPDEST DUP8 DUP7 DUP7 PUSH1 0x40 MLOAD DUP6 PUSH4 0xFFFFFFFF AND PUSH1 0xE0 SHL DUP2 MSTORE PUSH1 0x4 ADD PUSH3 0x7B4 SWAP5 SWAP4 SWAP3 SWAP2 SWAP1 PUSH3 0x1032 JUMP JUMPDEST PUSH1 0x20 PUSH1 0x40 MLOAD DUP1 DUP4 SUB DUP2 PUSH1 0x0 DUP8 GAS CALL SWAP3 POP POP POP DUP1 ISZERO PUSH3 0x7F3 JUMPI POP PUSH1 0x40 MLOAD RETURNDATASIZE PUSH1 0x1F NOT PUSH1 0x1F DUP3 ADD AND DUP3 ADD DUP1 PUSH1 0x40 MSTORE POP DUP2 ADD SWAP1 PUSH3 0x7F0 SWAP2 SWAP1 PUSH3 0x10E8 JUMP JUMPDEST PUSH1 0x1 JUMPDEST PUSH3 0x87B JUMPI RETURNDATASIZE DUP1 PUSH1 0x0 DUP2 EQ PUSH3 0x826 JUMPI PUSH1 0x40 MLOAD SWAP2 POP PUSH1 0x1F NOT PUSH1 0x3F RETURNDATASIZE ADD AND DUP3 ADD PUSH1 0x40 MSTORE RETURNDATASIZE DUP3 MSTORE RETURNDATASIZE PUSH1 0x0 PUSH1 0x20 DUP5 ADD RETURNDATACOPY PUSH3 0x82B JUMP JUMPDEST PUSH1 0x60 SWAP2 POP JUMPDEST POP PUSH1 0x0 DUP2 MLOAD SUB PUSH3 0x873 JUMPI PUSH1 0x40 MLOAD PUSH32 0x8C379A000000000000000000000000000000000000000000000000000000000 DUP2 MSTORE PUSH1 0x4 ADD PUSH3 0x86A SWAP1 PUSH3 0xE81 JUMP JUMPDEST PUSH1 0x40 MLOAD DUP1 SWAP2 SUB SWAP1 REVERT JUMPDEST DUP1 MLOAD DUP2 PUSH1 0x20 ADD REVERT JUMPDEST PUSH4 0x150B7A02 PUSH1 0xE0 SHL PUSH28 0xFFFFFFFFFFFFFFFFFFFFFFFFFFFFFFFFFFFFFFFFFFFFFFFFFFFFFFFF NOT AND DUP2 PUSH28 0xFFFFFFFFFFFFFFFFFFFFFFFFFFFFFFFFFFFFFFFFFFFFFFFFFFFFFFFF NOT AND EQ SWAP2 POP POP PUSH3 0x8D1 JUMP JUMPDEST PUSH1 0x1 SWAP1 POP JUMPDEST SWAP5 SWAP4 POP POP POP POP JUMP JUMPDEST PUSH1 0x0 DUP1 PUSH20 0xFFFFFFFFFFFFFFFFFFFFFFFFFFFFFFFFFFFFFFFF AND PUSH3 0x903 DUP4 PUSH3 0x951 PUSH1 0x20 SHL PUSH1 0x20 SHR JUMP JUMPDEST PUSH20 0xFFFFFFFFFFFFFFFFFFFFFFFFFFFFFFFFFFFFFFFF AND EQ ISZERO SWAP1 POP SWAP2 SWAP1 POP JUMP JUMPDEST POP POP POP POP JUMP JUMPDEST POP POP POP POP JUMP JUMPDEST PUSH1 0x0 DUP1 DUP3 PUSH20 0xFFFFFFFFFFFFFFFFFFFFFFFFFFFFFFFFFFFFFFFF AND EXTCODESIZE GT SWAP1 POP SWAP2 SWAP1 POP JUMP JUMPDEST PUSH1 0x0 PUSH1 0x2 PUSH1 0x0 DUP4 DUP2 MSTORE PUSH1 0x20 ADD SWAP1 DUP2 MSTORE PUSH1 0x20 ADD PUSH1 0x0 KECCAK256 PUSH1 0x0 SWAP1 SLOAD SWAP1 PUSH2 0x100 EXP SWAP1 DIV PUSH20 0xFFFFFFFFFFFFFFFFFFFFFFFFFFFFFFFFFFFFFFFF AND SWAP1 POP SWAP2 SWAP1 POP JUMP JUMPDEST PUSH1 0x0 DUP2 MLOAD SWAP1 POP SWAP2 SWAP1 POP JUMP JUMPDEST PUSH32 0x4E487B7100000000000000000000000000000000000000000000000000000000 PUSH1 0x0 MSTORE PUSH1 0x41 PUSH1 0x4 MSTORE PUSH1 0x24 PUSH1 0x0 REVERT JUMPDEST PUSH32 0x4E487B7100000000000000000000000000000000000000000000000000000000 PUSH1 0x0 MSTORE PUSH1 0x22 PUSH1 0x4 MSTORE PUSH1 0x24 PUSH1 0x0 REVERT JUMPDEST PUSH1 0x0 PUSH1 0x2 DUP3 DIV SWAP1 POP PUSH1 0x1 DUP3 AND DUP1 PUSH3 0xA10 JUMPI PUSH1 0x7F DUP3 AND SWAP2 POP JUMPDEST PUSH1 0x20 DUP3 LT DUP2 SUB PUSH3 0xA26 JUMPI PUSH3 0xA25 PUSH3 0x9C8 JUMP JUMPDEST JUMPDEST POP SWAP2 SWAP1 POP JUMP JUMPDEST PUSH1 0x0 DUP2 SWAP1 POP DUP2 PUSH1 0x0 MSTORE PUSH1 0x20 PUSH1 0x0 KECCAK256 SWAP1 POP SWAP2 SWAP1 POP JUMP JUMPDEST PUSH1 0x0 PUSH1 0x20 PUSH1 0x1F DUP4 ADD DIV SWAP1 POP SWAP2 SWAP1 POP JUMP JUMPDEST PUSH1 0x0 DUP3 DUP3 SHL SWAP1 POP SWAP3 SWAP2 POP POP JUMP JUMPDEST PUSH1 0x0 PUSH1 0x8 DUP4 MUL PUSH3 0xA90 PUSH32 0xFFFFFFFFFFFFFFFFFFFFFFFFFFFFFFFFFFFFFFFFFFFFFFFFFFFFFFFFFFFFFFFF DUP3 PUSH3 0xA51 JUMP JUMPDEST PUSH3 0xA9C DUP7 DUP4 PUSH3 0xA51 JUMP JUMPDEST SWAP6 POP DUP1 NOT DUP5 AND SWAP4 POP DUP1 DUP7 AND DUP5 OR SWAP3 POP POP POP SWAP4 SWAP3 POP POP POP JUMP JUMPDEST PUSH1 0x0 DUP2 SWAP1 POP SWAP2 SWAP1 POP JUMP JUMPDEST PUSH1 0x0 DUP2 SWAP1 POP SWAP2 SWAP1 POP JUMP JUMPDEST PUSH1 0x0 PUSH3 0xAE9 PUSH3 0xAE3 PUSH3 0xADD DUP5 PUSH3 0xAB4 JUMP JUMPDEST PUSH3 0xABE JUMP JUMPDEST PUSH3 0xAB4 JUMP JUMPDEST SWAP1 POP SWAP2 SWAP1 POP JUMP JUMPDEST PUSH1 0x0 DUP2 SWAP1 POP SWAP2 SWAP1 POP JUMP JUMPDEST PUSH3 0xB05 DUP4 PUSH3 0xAC8 JUMP JUMPDEST PUSH3 0xB1D PUSH3 0xB14 DUP3 PUSH3 0xAF0 JUMP JUMPDEST DUP5 DUP5 SLOAD PUSH3 0xA5E JUMP JUMPDEST DUP3 SSTORE POP POP POP POP JUMP JUMPDEST PUSH1 0x0 SWAP1 JUMP JUMPDEST PUSH3 0xB34 PUSH3 0xB25 JUMP JUMPDEST PUSH3 0xB41 DUP2 DUP5 DUP5 PUSH3 0xAFA JUMP JUMPDEST POP POP POP JUMP JUMPDEST JUMPDEST DUP2 DUP2 LT ISZERO PUSH3 0xB69 JUMPI PUSH3 0xB5D PUSH1 0x0 DUP3 PUSH3 0xB2A JUMP JUMPDEST PUSH1 0x1 DUP2 ADD SWAP1 POP PUSH3 0xB47 JUMP JUMPDEST POP POP JUMP JUMPDEST PUSH1 0x1F DUP3 GT ISZERO PUSH3 0xBB8 JUMPI PUSH3 0xB82 DUP2 PUSH3 0xA2C JUMP JUMPDEST PUSH3 0xB8D DUP5 PUSH3 0xA41 JUMP JUMPDEST DUP2 ADD PUSH1 0x20 DUP6 LT ISZERO PUSH3 0xB9D JUMPI DUP2 SWAP1 POP JUMPDEST PUSH3 0xBB5 PUSH3 0xBAC DUP6 PUSH3 0xA41 JUMP JUMPDEST DUP4 ADD DUP3 PUSH3 0xB46 JUMP JUMPDEST POP POP JUMPDEST POP POP POP JUMP JUMPDEST PUSH1 0x0 DUP3 DUP3 SHR SWAP1 POP SWAP3 SWAP2 POP POP JUMP JUMPDEST PUSH1 0x0 PUSH3 0xBDD PUSH1 0x0 NOT DUP5 PUSH1 0x8 MUL PUSH3 0xBBD JUMP JUMPDEST NOT DUP1 DUP4 AND SWAP2 POP POP SWAP3 SWAP2 POP POP JUMP JUMPDEST PUSH1 0x0 PUSH3 0xBF8 DUP4 DUP4 PUSH3 0xBCA JUMP JUMPDEST SWAP2 POP DUP3 PUSH1 0x2 MUL DUP3 OR SWAP1 POP SWAP3 SWAP2 POP POP JUMP JUMPDEST PUSH3 0xC13 DUP3 PUSH3 0x98E JUMP JUMPDEST PUSH8 0xFFFFFFFFFFFFFFFF DUP2 GT ISZERO PUSH3 0xC2F JUMPI PUSH3 0xC2E PUSH3 0x999 JUMP JUMPDEST JUMPDEST PUSH3 0xC3B DUP3 SLOAD PUSH3 0x9F7 JUMP JUMPDEST PUSH3 0xC48 DUP3 DUP3 DUP6 PUSH3 0xB6D JUMP JUMPDEST PUSH1 0x0 PUSH1 0x20 SWAP1 POP PUSH1 0x1F DUP4 GT PUSH1 0x1 DUP2 EQ PUSH3 0xC80 JUMPI PUSH1 0x0 DUP5 ISZERO PUSH3 0xC6B JUMPI DUP3 DUP8 ADD MLOAD SWAP1 POP JUMPDEST PUSH3 0xC77 DUP6 DUP3 PUSH3 0xBEA JUMP JUMPDEST DUP7 SSTORE POP PUSH3 0xCE7 JUMP JUMPDEST PUSH1 0x1F NOT DUP5 AND PUSH3 0xC90 DUP7 PUSH3 0xA2C JUMP JUMPDEST PUSH1 0x0 JUMPDEST DUP3 DUP2 LT ISZERO PUSH3 0xCBA JUMPI DUP5 DUP10 ADD MLOAD DUP3 SSTORE PUSH1 0x1 DUP3 ADD SWAP2 POP PUSH1 0x20 DUP6 ADD SWAP5 POP PUSH1 0x20 DUP2 ADD SWAP1 POP PUSH3 0xC93 JUMP JUMPDEST DUP7 DUP4 LT ISZERO PUSH3 0xCDA JUMPI DUP5 DUP10 ADD MLOAD PUSH3 0xCD6 PUSH1 0x1F DUP10 AND DUP3 PUSH3 0xBCA JUMP JUMPDEST DUP4 SSTORE POP JUMPDEST PUSH1 0x1 PUSH1 0x2 DUP9 MUL ADD DUP9 SSTORE POP POP POP JUMPDEST POP POP POP POP POP POP JUMP JUMPDEST PUSH1 0x0 PUSH20 0xFFFFFFFFFFFFFFFFFFFFFFFFFFFFFFFFFFFFFFFF DUP3 AND SWAP1 POP SWAP2 SWAP1 POP JUMP JUMPDEST PUSH1 0x0 PUSH3 0xD1C DUP3 PUSH3 0xCEF JUMP JUMPDEST SWAP1 POP SWAP2 SWAP1 POP JUMP JUMPDEST PUSH3 0xD2E DUP2 PUSH3 0xD0F JUMP JUMPDEST DUP3 MSTORE POP POP JUMP JUMPDEST PUSH1 0x0 PUSH1 0x40 DUP3 ADD SWAP1 POP PUSH3 0xD4B PUSH1 0x0 DUP4 ADD DUP6 PUSH3 0xD23 JUMP JUMPDEST PUSH3 0xD5A PUSH1 0x20 DUP4 ADD DUP5 PUSH3 0xD23 JUMP JUMPDEST SWAP4 SWAP3 POP POP POP JUMP JUMPDEST PUSH1 0x0 PUSH1 0x20 DUP3 ADD SWAP1 POP PUSH3 0xD78 PUSH1 0x0 DUP4 ADD DUP5 PUSH3 0xD23 JUMP JUMPDEST SWAP3 SWAP2 POP POP JUMP JUMPDEST PUSH32 0x4E487B7100000000000000000000000000000000000000000000000000000000 PUSH1 0x0 MSTORE PUSH1 0x11 PUSH1 0x4 MSTORE PUSH1 0x24 PUSH1 0x0 REVERT JUMPDEST PUSH1 0x0 PUSH3 0xDBA DUP3 PUSH3 0xAB4 JUMP JUMPDEST SWAP2 POP PUSH32 0xFFFFFFFFFFFFFFFFFFFFFFFFFFFFFFFFFFFFFFFFFFFFFFFFFFFFFFFFFFFFFFFF DUP3 SUB PUSH3 0xDEF JUMPI PUSH3 0xDEE PUSH3 0xD7E JUMP JUMPDEST JUMPDEST PUSH1 0x1 DUP3 ADD SWAP1 POP SWAP2 SWAP1 POP JUMP JUMPDEST PUSH1 0x0 DUP3 DUP3 MSTORE PUSH1 0x20 DUP3 ADD SWAP1 POP SWAP3 SWAP2 POP POP JUMP JUMPDEST PUSH32 0x4552433732313A207472616E7366657220746F206E6F6E204552433732315265 PUSH1 0x0 DUP3 ADD MSTORE PUSH32 0x63656976657220696D706C656D656E7465720000000000000000000000000000 PUSH1 0x20 DUP3 ADD MSTORE POP JUMP JUMPDEST PUSH1 0x0 PUSH3 0xE69 PUSH1 0x32 DUP4 PUSH3 0xDFA JUMP JUMPDEST SWAP2 POP PUSH3 0xE76 DUP3 PUSH3 0xE0B JUMP JUMPDEST PUSH1 0x40 DUP3 ADD SWAP1 POP SWAP2 SWAP1 POP JUMP JUMPDEST PUSH1 0x0 PUSH1 0x20 DUP3 ADD SWAP1 POP DUP2 DUP2 SUB PUSH1 0x0 DUP4 ADD MSTORE PUSH3 0xE9C DUP2 PUSH3 0xE5A JUMP JUMPDEST SWAP1 POP SWAP2 SWAP1 POP JUMP JUMPDEST PUSH32 0x4552433732313A206D696E7420746F20746865207A65726F2061646472657373 PUSH1 0x0 DUP3 ADD MSTORE POP JUMP JUMPDEST PUSH1 0x0 PUSH3 0xEDB PUSH1 0x20 DUP4 PUSH3 0xDFA JUMP JUMPDEST SWAP2 POP PUSH3 0xEE8 DUP3 PUSH3 0xEA3 JUMP JUMPDEST PUSH1 0x20 DUP3 ADD SWAP1 POP SWAP2 SWAP1 POP JUMP JUMPDEST PUSH1 0x0 PUSH1 0x20 DUP3 ADD SWAP1 POP DUP2 DUP2 SUB PUSH1 0x0 DUP4 ADD MSTORE PUSH3 0xF0E DUP2 PUSH3 0xECC JUMP JUMPDEST SWAP1 POP SWAP2 SWAP1 POP JUMP JUMPDEST PUSH32 0x4552433732313A20746F6B656E20616C7265616479206D696E74656400000000 PUSH1 0x0 DUP3 ADD MSTORE POP JUMP JUMPDEST PUSH1 0x0 PUSH3 0xF4D PUSH1 0x1C DUP4 PUSH3 0xDFA JUMP JUMPDEST SWAP2 POP PUSH3 0xF5A DUP3 PUSH3 0xF15 JUMP JUMPDEST PUSH1 0x20 DUP3 ADD SWAP1 POP SWAP2 SWAP1 POP JUMP JUMPDEST PUSH1 0x0 PUSH1 0x20 DUP3 ADD SWAP1 POP DUP2 DUP2 SUB PUSH1 0x0 DUP4 ADD MSTORE PUSH3 0xF80 DUP2 PUSH3 0xF3E JUMP JUMPDEST SWAP1 POP SWAP2 SWAP1 POP JUMP JUMPDEST PUSH3 0xF92 DUP2 PUSH3 0xAB4 JUMP JUMPDEST DUP3 MSTORE POP POP JUMP JUMPDEST PUSH1 0x0 DUP2 MLOAD SWAP1 POP SWAP2 SWAP1 POP JUMP JUMPDEST PUSH1 0x0 DUP3 DUP3 MSTORE PUSH1 0x20 DUP3 ADD SWAP1 POP SWAP3 SWAP2 POP POP JUMP JUMPDEST PUSH1 0x0 JUMPDEST DUP4 DUP2 LT ISZERO PUSH3 0xFD4 JUMPI DUP1 DUP3 ADD MLOAD DUP2 DUP5 ADD MSTORE PUSH1 0x20 DUP2 ADD SWAP1 POP PUSH3 0xFB7 JUMP JUMPDEST PUSH1 0x0 DUP5 DUP5 ADD MSTORE POP POP POP POP JUMP JUMPDEST PUSH1 0x0 PUSH1 0x1F NOT PUSH1 0x1F DUP4 ADD AND SWAP1 POP SWAP2 SWAP1 POP JUMP JUMPDEST PUSH1 0x0 PUSH3 0xFFE DUP3 PUSH3 0xF98 JUMP JUMPDEST PUSH3 0x100A DUP2 DUP6 PUSH3 0xFA3 JUMP JUMPDEST SWAP4 POP PUSH3 0x101C DUP2 DUP6 PUSH1 0x20 DUP7 ADD PUSH3 0xFB4 JUMP JUMPDEST PUSH3 0x1027 DUP2 PUSH3 0xFE0 JUMP JUMPDEST DUP5 ADD SWAP2 POP POP SWAP3 SWAP2 POP POP JUMP JUMPDEST PUSH1 0x0 PUSH1 0x80 DUP3 ADD SWAP1 POP PUSH3 0x1049 PUSH1 0x0 DUP4 ADD DUP8 PUSH3 0xD23 JUMP JUMPDEST PUSH3 0x1058 PUSH1 0x20 DUP4 ADD DUP7 PUSH3 0xD23 JUMP JUMPDEST PUSH3 0x1067 PUSH1 0x40 DUP4 ADD DUP6 PUSH3 0xF87 JUMP JUMPDEST DUP2 DUP2 SUB PUSH1 0x60 DUP4 ADD MSTORE PUSH3 0x107B DUP2 DUP5 PUSH3 0xFF1 JUMP JUMPDEST SWAP1 POP SWAP6 SWAP5 POP POP POP POP POP JUMP JUMPDEST PUSH1 0x0 DUP1 REVERT JUMPDEST PUSH1 0x0 PUSH32 0xFFFFFFFF00000000000000000000000000000000000000000000000000000000 DUP3 AND SWAP1 POP SWAP2 SWAP1 POP JUMP JUMPDEST PUSH3 0x10C2 DUP2 PUSH3 0x108B JUMP JUMPDEST DUP2 EQ PUSH3 0x10CE JUMPI PUSH1 0x0 DUP1 REVERT JUMPDEST POP JUMP JUMPDEST PUSH1 0x0 DUP2 MLOAD SWAP1 POP PUSH3 0x10E2 DUP2 PUSH3 0x10B7 JUMP JUMPDEST SWAP3 SWAP2 POP POP JUMP JUMPDEST PUSH1 0x0 PUSH1 0x20 DUP3 DUP5 SUB SLT ISZERO PUSH3 0x1101 JUMPI PUSH3 0x1100 PUSH3 0x1086 JUMP JUMPDEST JUMPDEST PUSH1 0x0 PUSH3 0x1111 DUP5 DUP3 DUP6 ADD PUSH3 0x10D1 JUMP JUMPDEST SWAP2 POP POP SWAP3 SWAP2 POP POP JUMP JUMPDEST PUSH2 0x399A DUP1 PUSH3 0x112A PUSH1 0x0 CODECOPY PUSH1 0x0 RETURN INVALID PUSH1 0x80 PUSH1 0x40 MSTORE PUSH1 0x4 CALLDATASIZE LT PUSH2 0x1C2 JUMPI PUSH1 0x0 CALLDATALOAD PUSH1 0xE0 SHR DUP1 PUSH4 0x8ECAD721 GT PUSH2 0xF7 JUMPI DUP1 PUSH4 0xA22CB465 GT PUSH2 0x95 JUMPI DUP1 PUSH4 0xE985E9C5 GT PUSH2 0x64 JUMPI DUP1 PUSH4 0xE985E9C5 EQ PUSH2 0x60F JUMPI DUP1 PUSH4 0xF2FDE38B EQ PUSH2 0x64C JUMPI DUP1 PUSH4 0xF44B79B3 EQ PUSH2 0x675 JUMPI DUP1 PUSH4 0xF47C84C5 EQ PUSH2 0x67F JUMPI PUSH2 0x1C2 JUMP JUMPDEST DUP1 PUSH4 0xA22CB465 EQ PUSH2 0x555 JUMPI DUP1 PUSH4 0xB88D4FDE EQ PUSH2 0x57E JUMPI DUP1 PUSH4 0xC6682862 EQ PUSH2 0x5A7 JUMPI DUP1 PUSH4 0xC87B56DD EQ PUSH2 0x5D2 JUMPI PUSH2 0x1C2 JUMP JUMPDEST DUP1 PUSH4 0x9ABC8320 GT PUSH2 0xD1 JUMPI DUP1 PUSH4 0x9ABC8320 EQ PUSH2 0x4B8 JUMPI DUP1 PUSH4 0x9FD07CF0 EQ PUSH2 0x4E3 JUMPI DUP1 PUSH4 0xA035B1FE EQ PUSH2 0x50E JUMPI DUP1 PUSH4 0xA0712D68 EQ PUSH2 0x539 JUMPI PUSH2 0x1C2 JUMP JUMPDEST DUP1 PUSH4 0x8ECAD721 EQ PUSH2 0x439 JUMPI DUP1 PUSH4 0x91B7F5ED EQ PUSH2 0x464 JUMPI DUP1 PUSH4 0x95D89B41 EQ PUSH2 0x48D JUMPI PUSH2 0x1C2 JUMP JUMPDEST DUP1 PUSH4 0x42842E0E GT PUSH2 0x164 JUMPI DUP1 PUSH4 0x63DAA09B GT PUSH2 0x13E JUMPI DUP1 PUSH4 0x63DAA09B EQ PUSH2 0x391 JUMPI DUP1 PUSH4 0x70A08231 EQ PUSH2 0x3BA JUMPI DUP1 PUSH4 0x715018A6 EQ PUSH2 0x3F7 JUMPI DUP1 PUSH4 0x8DA5CB5B EQ PUSH2 0x40E JUMPI PUSH2 0x1C2 JUMP JUMPDEST DUP1 PUSH4 0x42842E0E EQ PUSH2 0x300 JUMPI DUP1 PUSH4 0x564566A8 EQ PUSH2 0x329 JUMPI DUP1 PUSH4 0x6352211E EQ PUSH2 0x354 JUMPI PUSH2 0x1C2 JUMP JUMPDEST DUP1 PUSH4 0x95EA7B3 GT PUSH2 0x1A0 JUMPI DUP1 PUSH4 0x95EA7B3 EQ PUSH2 0x26C JUMPI DUP1 PUSH4 0x18160DDD EQ PUSH2 0x295 JUMPI DUP1 PUSH4 0x23B872DD EQ PUSH2 0x2C0 JUMPI DUP1 PUSH4 0x34918DFD EQ PUSH2 0x2E9 JUMPI PUSH2 0x1C2 JUMP JUMPDEST DUP1 PUSH4 0x1FFC9A7 EQ PUSH2 0x1C7 JUMPI DUP1 PUSH4 0x6FDDE03 EQ PUSH2 0x204 JUMPI DUP1 PUSH4 0x81812FC EQ PUSH2 0x22F JUMPI JUMPDEST PUSH1 0x0 DUP1 REVERT JUMPDEST CALLVALUE DUP1 ISZERO PUSH2 0x1D3 JUMPI PUSH1 0x0 DUP1 REVERT JUMPDEST POP PUSH2 0x1EE PUSH1 0x4 DUP1 CALLDATASIZE SUB DUP2 ADD SWAP1 PUSH2 0x1E9 SWAP2 SWAP1 PUSH2 0x23C7 JUMP JUMPDEST PUSH2 0x6AA JUMP JUMPDEST PUSH1 0x40 MLOAD PUSH2 0x1FB SWAP2 SWAP1 PUSH2 0x240F JUMP JUMPDEST PUSH1 0x40 MLOAD DUP1 SWAP2 SUB SWAP1 RETURN JUMPDEST CALLVALUE DUP1 ISZERO PUSH2 0x210 JUMPI PUSH1 0x0 DUP1 REVERT JUMPDEST POP PUSH2 0x219 PUSH2 0x78C JUMP JUMPDEST PUSH1 0x40 MLOAD PUSH2 0x226 SWAP2 SWAP1 PUSH2 0x24BA JUMP JUMPDEST PUSH1 0x40 MLOAD DUP1 SWAP2 SUB SWAP1 RETURN JUMPDEST CALLVALUE DUP1 ISZERO PUSH2 0x23B JUMPI PUSH1 0x0 DUP1 REVERT JUMPDEST POP PUSH2 0x256 PUSH1 0x4 DUP1 CALLDATASIZE SUB DUP2 ADD SWAP1 PUSH2 0x251 SWAP2 SWAP1 PUSH2 0x2512 JUMP JUMPDEST PUSH2 0x81E JUMP JUMPDEST PUSH1 0x40 MLOAD PUSH2 0x263 SWAP2 SWAP1 PUSH2 0x2580 JUMP JUMPDEST PUSH1 0x40 MLOAD DUP1 SWAP2 SUB SWAP1 RETURN JUMPDEST CALLVALUE DUP1 ISZERO PUSH2 0x278 JUMPI PUSH1 0x0 DUP1 REVERT JUMPDEST POP PUSH2 0x293 PUSH1 0x4 DUP1 CALLDATASIZE SUB DUP2 ADD SWAP1 PUSH2 0x28E SWAP2 SWAP1 PUSH2 0x25C7 JUMP JUMPDEST PUSH2 0x864 JUMP JUMPDEST STOP JUMPDEST CALLVALUE DUP1 ISZERO PUSH2 0x2A1 JUMPI PUSH1 0x0 DUP1 REVERT JUMPDEST POP PUSH2 0x2AA PUSH2 0x97B JUMP JUMPDEST PUSH1 0x40 MLOAD PUSH2 0x2B7 SWAP2 SWAP1 PUSH2 0x2616 JUMP JUMPDEST PUSH1 0x40 MLOAD DUP1 SWAP2 SUB SWAP1 RETURN JUMPDEST CALLVALUE DUP1 ISZERO PUSH2 0x2CC JUMPI PUSH1 0x0 DUP1 REVERT JUMPDEST POP PUSH2 0x2E7 PUSH1 0x4 DUP1 CALLDATASIZE SUB DUP2 ADD SWAP1 PUSH2 0x2E2 SWAP2 SWAP1 PUSH2 0x2631 JUMP JUMPDEST PUSH2 0x981 JUMP JUMPDEST STOP JUMPDEST CALLVALUE DUP1 ISZERO PUSH2 0x2F5 JUMPI PUSH1 0x0 DUP1 REVERT JUMPDEST POP PUSH2 0x2FE PUSH2 0xA8D JUMP JUMPDEST STOP JUMPDEST CALLVALUE DUP1 ISZERO PUSH2 0x30C JUMPI PUSH1 0x0 DUP1 REVERT JUMPDEST POP PUSH2 0x327 PUSH1 0x4 DUP1 CALLDATASIZE SUB DUP2 ADD SWAP1 PUSH2 0x322 SWAP2 SWAP1 PUSH2 0x2631 JUMP JUMPDEST PUSH2 0xAC1 JUMP JUMPDEST STOP JUMPDEST CALLVALUE DUP1 ISZERO PUSH2 0x335 JUMPI PUSH1 0x0 DUP1 REVERT JUMPDEST POP PUSH2 0x33E PUSH2 0xBCD JUMP JUMPDEST PUSH1 0x40 MLOAD PUSH2 0x34B SWAP2 SWAP1 PUSH2 0x240F JUMP JUMPDEST PUSH1 0x40 MLOAD DUP1 SWAP2 SUB SWAP1 RETURN JUMPDEST CALLVALUE DUP1 ISZERO PUSH2 0x360 JUMPI PUSH1 0x0 DUP1 REVERT JUMPDEST POP PUSH2 0x37B PUSH1 0x4 DUP1 CALLDATASIZE SUB DUP2 ADD SWAP1 PUSH2 0x376 SWAP2 SWAP1 PUSH2 0x2512 JUMP JUMPDEST PUSH2 0xBE0 JUMP JUMPDEST PUSH1 0x40 MLOAD PUSH2 0x388 SWAP2 SWAP1 PUSH2 0x2580 JUMP JUMPDEST PUSH1 0x40 MLOAD DUP1 SWAP2 SUB SWAP1 RETURN JUMPDEST CALLVALUE DUP1 ISZERO PUSH2 0x39D JUMPI PUSH1 0x0 DUP1 REVERT JUMPDEST POP PUSH2 0x3B8 PUSH1 0x4 DUP1 CALLDATASIZE SUB DUP2 ADD SWAP1 PUSH2 0x3B3 SWAP2 SWAP1 PUSH2 0x27B9 JUMP JUMPDEST PUSH2 0xC66 JUMP JUMPDEST STOP JUMPDEST CALLVALUE DUP1 ISZERO PUSH2 0x3C6 JUMPI PUSH1 0x0 DUP1 REVERT JUMPDEST POP PUSH2 0x3E1 PUSH1 0x4 DUP1 CALLDATASIZE SUB DUP2 ADD SWAP1 PUSH2 0x3DC SWAP2 SWAP1 PUSH2 0x2802 JUMP JUMPDEST PUSH2 0xC81 JUMP JUMPDEST PUSH1 0x40 MLOAD PUSH2 0x3EE SWAP2 SWAP1 PUSH2 0x2616 JUMP JUMPDEST PUSH1 0x40 MLOAD DUP1 SWAP2 SUB SWAP1 RETURN JUMPDEST CALLVALUE DUP1 ISZERO PUSH2 0x403 JUMPI PUSH1 0x0 DUP1 REVERT JUMPDEST POP PUSH2 0x40C PUSH2 0xD38 JUMP JUMPDEST STOP JUMPDEST CALLVALUE DUP1 ISZERO PUSH2 0x41A JUMPI PUSH1 0x0 DUP1 REVERT JUMPDEST POP PUSH2 0x423 PUSH2 0xD4C JUMP JUMPDEST PUSH1 0x40 MLOAD PUSH2 0x430 SWAP2 SWAP1 PUSH2 0x2580 JUMP JUMPDEST PUSH1 0x40 MLOAD DUP1 SWAP2 SUB SWAP1 RETURN JUMPDEST CALLVALUE DUP1 ISZERO PUSH2 0x445 JUMPI PUSH1 0x0 DUP1 REVERT JUMPDEST POP PUSH2 0x44E PUSH2 0xD76 JUMP JUMPDEST PUSH1 0x40 MLOAD PUSH2 0x45B SWAP2 SWAP1 PUSH2 0x2616 JUMP JUMPDEST PUSH1 0x40 MLOAD DUP1 SWAP2 SUB SWAP1 RETURN JUMPDEST CALLVALUE DUP1 ISZERO PUSH2 0x470 JUMPI PUSH1 0x0 DUP1 REVERT JUMPDEST POP PUSH2 0x48B PUSH1 0x4 DUP1 CALLDATASIZE SUB DUP2 ADD SWAP1 PUSH2 0x486 SWAP2 SWAP1 PUSH2 0x2512 JUMP JUMPDEST PUSH2 0xD7B JUMP JUMPDEST STOP JUMPDEST CALLVALUE DUP1 ISZERO PUSH2 0x499 JUMPI PUSH1 0x0 DUP1 REVERT JUMPDEST POP PUSH2 0x4A2 PUSH2 0xD8D JUMP JUMPDEST PUSH1 0x40 MLOAD PUSH2 0x4AF SWAP2 SWAP1 PUSH2 0x24BA JUMP JUMPDEST PUSH1 0x40 MLOAD DUP1 SWAP2 SUB SWAP1 RETURN JUMPDEST CALLVALUE DUP1 ISZERO PUSH2 0x4C4 JUMPI PUSH1 0x0 DUP1 REVERT JUMPDEST POP PUSH2 0x4CD PUSH2 0xE1F JUMP JUMPDEST PUSH1 0x40 MLOAD PUSH2 0x4DA SWAP2 SWAP1 PUSH2 0x24BA JUMP JUMPDEST PUSH1 0x40 MLOAD DUP1 SWAP2 SUB SWAP1 RETURN JUMPDEST CALLVALUE DUP1 ISZERO PUSH2 0x4EF JUMPI PUSH1 0x0 DUP1 REVERT JUMPDEST POP PUSH2 0x4F8 PUSH2 0xEAD JUMP JUMPDEST PUSH1 0x40 MLOAD PUSH2 0x505 SWAP2 SWAP1 PUSH2 0x2616 JUMP JUMPDEST PUSH1 0x40 MLOAD DUP1 SWAP2 SUB SWAP1 RETURN JUMPDEST CALLVALUE DUP1 ISZERO PUSH2 0x51A JUMPI PUSH1 0x0 DUP1 REVERT JUMPDEST POP PUSH2 0x523 PUSH2 0xEB2 JUMP JUMPDEST PUSH1 0x40 MLOAD PUSH2 0x530 SWAP2 SWAP1 PUSH2 0x2616 JUMP JUMPDEST PUSH1 0x40 MLOAD DUP1 SWAP2 SUB SWAP1 RETURN JUMPDEST PUSH2 0x553 PUSH1 0x4 DUP1 CALLDATASIZE SUB DUP2 ADD SWAP1 PUSH2 0x54E SWAP2 SWAP1 PUSH2 0x2512 JUMP JUMPDEST PUSH2 0xEB8 JUMP JUMPDEST STOP JUMPDEST CALLVALUE DUP1 ISZERO PUSH2 0x561 JUMPI PUSH1 0x0 DUP1 REVERT JUMPDEST POP PUSH2 0x57C PUSH1 0x4 DUP1 CALLDATASIZE SUB DUP2 ADD SWAP1 PUSH2 0x577 SWAP2 SWAP1 PUSH2 0x285B JUMP JUMPDEST PUSH2 0x1120 JUMP JUMPDEST STOP JUMPDEST CALLVALUE DUP1 ISZERO PUSH2 0x58A JUMPI PUSH1 0x0 DUP1 REVERT JUMPDEST POP PUSH2 0x5A5 PUSH1 0x4 DUP1 CALLDATASIZE SUB DUP2 ADD SWAP1 PUSH2 0x5A0 SWAP2 SWAP1 PUSH2 0x293C JUMP JUMPDEST PUSH2 0x1136 JUMP JUMPDEST STOP JUMPDEST CALLVALUE DUP1 ISZERO PUSH2 0x5B3 JUMPI PUSH1 0x0 DUP1 REVERT JUMPDEST POP PUSH2 0x5BC PUSH2 0x1244 JUMP JUMPDEST PUSH1 0x40 MLOAD PUSH2 0x5C9 SWAP2 SWAP1 PUSH2 0x24BA JUMP JUMPDEST PUSH1 0x40 MLOAD DUP1 SWAP2 SUB SWAP1 RETURN JUMPDEST CALLVALUE DUP1 ISZERO PUSH2 0x5DE JUMPI PUSH1 0x0 DUP1 REVERT JUMPDEST POP PUSH2 0x5F9 PUSH1 0x4 DUP1 CALLDATASIZE SUB DUP2 ADD SWAP1 PUSH2 0x5F4 SWAP2 SWAP1 PUSH2 0x2512 JUMP JUMPDEST PUSH2 0x12D2 JUMP JUMPDEST PUSH1 0x40 MLOAD PUSH2 0x606 SWAP2 SWAP1 PUSH2 0x24BA JUMP JUMPDEST PUSH1 0x40 MLOAD DUP1 SWAP2 SUB SWAP1 RETURN JUMPDEST CALLVALUE DUP1 ISZERO PUSH2 0x61B JUMPI PUSH1 0x0 DUP1 REVERT JUMPDEST POP PUSH2 0x636 PUSH1 0x4 DUP1 CALLDATASIZE SUB DUP2 ADD SWAP1 PUSH2 0x631 SWAP2 SWAP1 PUSH2 0x29BF JUMP JUMPDEST PUSH2 0x12EB JUMP JUMPDEST PUSH1 0x40 MLOAD PUSH2 0x643 SWAP2 SWAP1 PUSH2 0x240F JUMP JUMPDEST PUSH1 0x40 MLOAD DUP1 SWAP2 SUB SWAP1 RETURN JUMPDEST CALLVALUE DUP1 ISZERO PUSH2 0x658 JUMPI PUSH1 0x0 DUP1 REVERT JUMPDEST POP PUSH2 0x673 PUSH1 0x4 DUP1 CALLDATASIZE SUB DUP2 ADD SWAP1 PUSH2 0x66E SWAP2 SWAP1 PUSH2 0x2802 JUMP JUMPDEST PUSH2 0x137F JUMP JUMPDEST STOP JUMPDEST PUSH2 0x67D PUSH2 0x1402 JUMP JUMPDEST STOP JUMPDEST CALLVALUE DUP1 ISZERO PUSH2 0x68B JUMPI PUSH1 0x0 DUP1 REVERT JUMPDEST POP PUSH2 0x694 PUSH2 0x1599 JUMP JUMPDEST PUSH1 0x40 MLOAD PUSH2 0x6A1 SWAP2 SWAP1 PUSH2 0x2616 JUMP JUMPDEST PUSH1 0x40 MLOAD DUP1 SWAP2 SUB SWAP1 RETURN JUMPDEST PUSH1 0x0 PUSH32 0x80AC58CD00000000000000000000000000000000000000000000000000000000 PUSH28 0xFFFFFFFFFFFFFFFFFFFFFFFFFFFFFFFFFFFFFFFFFFFFFFFFFFFFFFFF NOT AND DUP3 PUSH28 0xFFFFFFFFFFFFFFFFFFFFFFFFFFFFFFFFFFFFFFFFFFFFFFFFFFFFFFFF NOT AND EQ DUP1 PUSH2 0x775 JUMPI POP PUSH32 0x5B5E139F00000000000000000000000000000000000000000000000000000000 PUSH28 0xFFFFFFFFFFFFFFFFFFFFFFFFFFFFFFFFFFFFFFFFFFFFFFFFFFFFFFFF NOT AND DUP3 PUSH28 0xFFFFFFFFFFFFFFFFFFFFFFFFFFFFFFFFFFFFFFFFFFFFFFFFFFFFFFFF NOT AND EQ JUMPDEST DUP1 PUSH2 0x785 JUMPI POP PUSH2 0x784 DUP3 PUSH2 0x15C2 JUMP JUMPDEST JUMPDEST SWAP1 POP SWAP2 SWAP1 POP JUMP JUMPDEST PUSH1 0x60 PUSH1 0x0 DUP1 SLOAD PUSH2 0x79B SWAP1 PUSH2 0x2A2E JUMP JUMPDEST DUP1 PUSH1 0x1F ADD PUSH1 0x20 DUP1 SWAP2 DIV MUL PUSH1 0x20 ADD PUSH1 0x40 MLOAD SWAP1 DUP2 ADD PUSH1 0x40 MSTORE DUP1 SWAP3 SWAP2 SWAP1 DUP2 DUP2 MSTORE PUSH1 0x20 ADD DUP3 DUP1 SLOAD PUSH2 0x7C7 SWAP1 PUSH2 0x2A2E JUMP JUMPDEST DUP1 ISZERO PUSH2 0x814 JUMPI DUP1 PUSH1 0x1F LT PUSH2 0x7E9 JUMPI PUSH2 0x100 DUP1 DUP4 SLOAD DIV MUL DUP4 MSTORE SWAP2 PUSH1 0x20 ADD SWAP2 PUSH2 0x814 JUMP JUMPDEST DUP3 ADD SWAP2 SWAP1 PUSH1 0x0 MSTORE PUSH1 0x20 PUSH1 0x0 KECCAK256 SWAP1 JUMPDEST DUP2 SLOAD DUP2 MSTORE SWAP1 PUSH1 0x1 ADD SWAP1 PUSH1 0x20 ADD DUP1 DUP4 GT PUSH2 0x7F7 JUMPI DUP3 SWAP1 SUB PUSH1 0x1F AND DUP3 ADD SWAP2 JUMPDEST POP POP POP POP POP SWAP1 POP SWAP1 JUMP JUMPDEST PUSH1 0x0 PUSH2 0x829 DUP3 PUSH2 0x162C JUMP JUMPDEST PUSH1 0x4 PUSH1 0x0 DUP4 DUP2 MSTORE PUSH1 0x20 ADD SWAP1 DUP2 MSTORE PUSH1 0x20 ADD PUSH1 0x0 KECCAK256 PUSH1 0x0 SWAP1 SLOAD SWAP1 PUSH2 0x100 EXP SWAP1 DIV PUSH20 0xFFFFFFFFFFFFFFFFFFFFFFFFFFFFFFFFFFFFFFFF AND SWAP1 POP SWAP2 SWAP1 POP JUMP JUMPDEST PUSH1 0x0 PUSH2 0x86F DUP3 PUSH2 0xBE0 JUMP JUMPDEST SWAP1 POP DUP1 PUSH20 0xFFFFFFFFFFFFFFFFFFFFFFFFFFFFFFFFFFFFFFFF AND DUP4 PUSH20 0xFFFFFFFFFFFFFFFFFFFFFFFFFFFFFFFFFFFFFFFF AND SUB PUSH2 0x8DF JUMPI PUSH1 0x40 MLOAD PUSH32 0x8C379A000000000000000000000000000000000000000000000000000000000 DUP2 MSTORE PUSH1 0x4 ADD PUSH2 0x8D6 SWAP1 PUSH2 0x2AD1 JUMP JUMPDEST PUSH1 0x40 MLOAD DUP1 SWAP2 SUB SWAP1 REVERT JUMPDEST DUP1 PUSH20 0xFFFFFFFFFFFFFFFFFFFFFFFFFFFFFFFFFFFFFFFF AND PUSH2 0x8FE PUSH2 0x1677 JUMP JUMPDEST PUSH20 0xFFFFFFFFFFFFFFFFFFFFFFFFFFFFFFFFFFFFFFFF AND EQ DUP1 PUSH2 0x92D JUMPI POP PUSH2 0x92C DUP2 PUSH2 0x927 PUSH2 0x1677 JUMP JUMPDEST PUSH2 0x12EB JUMP JUMPDEST JUMPDEST PUSH2 0x96C JUMPI PUSH1 0x40 MLOAD PUSH32 0x8C379A000000000000000000000000000000000000000000000000000000000 DUP2 MSTORE PUSH1 0x4 ADD PUSH2 0x963 SWAP1 PUSH2 0x2B63 JUMP JUMPDEST PUSH1 0x40 MLOAD DUP1 SWAP2 SUB SWAP1 REVERT JUMPDEST PUSH2 0x976 DUP4 DUP4 PUSH2 0x167F JUMP JUMPDEST POP POP POP JUMP JUMPDEST PUSH1 0x9 SLOAD DUP2 JUMP JUMPDEST PUSH1 0x0 PUSH14 0xAAEB6D7670E522A718067333CD4E PUSH20 0xFFFFFFFFFFFFFFFFFFFFFFFFFFFFFFFFFFFFFFFF AND EXTCODESIZE GT ISZERO PUSH2 0xA7D JUMPI PUSH14 0xAAEB6D7670E522A718067333CD4E PUSH20 0xFFFFFFFFFFFFFFFFFFFFFFFFFFFFFFFFFFFFFFFF AND PUSH4 0xC6171134 ADDRESS CALLER PUSH1 0x40 MLOAD DUP4 PUSH4 0xFFFFFFFF AND PUSH1 0xE0 SHL DUP2 MSTORE PUSH1 0x4 ADD PUSH2 0x9F8 SWAP3 SWAP2 SWAP1 PUSH2 0x2B83 JUMP JUMPDEST PUSH1 0x20 PUSH1 0x40 MLOAD DUP1 DUP4 SUB DUP2 PUSH1 0x0 DUP8 GAS CALL ISZERO DUP1 ISZERO PUSH2 0xA17 JUMPI RETURNDATASIZE PUSH1 0x0 DUP1 RETURNDATACOPY RETURNDATASIZE PUSH1 0x0 REVERT JUMPDEST POP POP POP POP PUSH1 0x40 MLOAD RETURNDATASIZE PUSH1 0x1F NOT PUSH1 0x1F DUP3 ADD AND DUP3 ADD DUP1 PUSH1 0x40 MSTORE POP DUP2 ADD SWAP1 PUSH2 0xA3B SWAP2 SWAP1 PUSH2 0x2BC1 JUMP JUMPDEST PUSH2 0xA7C JUMPI CALLER PUSH1 0x40 MLOAD PUSH32 0xEDE71DCC00000000000000000000000000000000000000000000000000000000 DUP2 MSTORE PUSH1 0x4 ADD PUSH2 0xA73 SWAP2 SWAP1 PUSH2 0x2580 JUMP JUMPDEST PUSH1 0x40 MLOAD DUP1 SWAP2 SUB SWAP1 REVERT JUMPDEST JUMPDEST PUSH2 0xA88 DUP4 DUP4 DUP4 PUSH2 0x1738 JUMP JUMPDEST POP POP POP JUMP JUMPDEST PUSH2 0xA95 PUSH2 0x1798 JUMP JUMPDEST PUSH1 0x8 PUSH1 0x0 SWAP1 SLOAD SWAP1 PUSH2 0x100 EXP SWAP1 DIV PUSH1 0xFF AND ISZERO PUSH1 0x8 PUSH1 0x0 PUSH2 0x100 EXP DUP2 SLOAD DUP2 PUSH1 0xFF MUL NOT AND SWAP1 DUP4 ISZERO ISZERO MUL OR SWAP1 SSTORE POP JUMP JUMPDEST PUSH1 0x0 PUSH14 0xAAEB6D7670E522A718067333CD4E PUSH20 0xFFFFFFFFFFFFFFFFFFFFFFFFFFFFFFFFFFFFFFFF AND EXTCODESIZE GT ISZERO PUSH2 0xBBD JUMPI PUSH14 0xAAEB6D7670E522A718067333CD4E PUSH20 0xFFFFFFFFFFFFFFFFFFFFFFFFFFFFFFFFFFFFFFFF AND PUSH4 0xC6171134 ADDRESS CALLER PUSH1 0x40 MLOAD DUP4 PUSH4 0xFFFFFFFF AND PUSH1 0xE0 SHL DUP2 MSTORE PUSH1 0x4 ADD PUSH2 0xB38 SWAP3 SWAP2 SWAP1 PUSH2 0x2B83 JUMP JUMPDEST PUSH1 0x20 PUSH1 0x40 MLOAD DUP1 DUP4 SUB DUP2 PUSH1 0x0 DUP8 GAS CALL ISZERO DUP1 ISZERO PUSH2 0xB57 JUMPI RETURNDATASIZE PUSH1 0x0 DUP1 RETURNDATACOPY RETURNDATASIZE PUSH1 0x0 REVERT JUMPDEST POP POP POP POP PUSH1 0x40 MLOAD RETURNDATASIZE PUSH1 0x1F NOT PUSH1 0x1F DUP3 ADD AND DUP3 ADD DUP1 PUSH1 0x40 MSTORE POP DUP2 ADD SWAP1 PUSH2 0xB7B SWAP2 SWAP1 PUSH2 0x2BC1 JUMP JUMPDEST PUSH2 0xBBC JUMPI CALLER PUSH1 0x40 MLOAD PUSH32 0xEDE71DCC00000000000000000000000000000000000000000000000000000000 DUP2 MSTORE PUSH1 0x4 ADD PUSH2 0xBB3 SWAP2 SWAP1 PUSH2 0x2580 JUMP JUMPDEST PUSH1 0x40 MLOAD DUP1 SWAP2 SUB SWAP1 REVERT JUMPDEST JUMPDEST PUSH2 0xBC8 DUP4 DUP4 DUP4 PUSH2 0x1816 JUMP JUMPDEST POP POP POP JUMP JUMPDEST PUSH1 0x8 PUSH1 0x0 SWAP1 SLOAD SWAP1 PUSH2 0x100 EXP SWAP1 DIV PUSH1 0xFF AND DUP2 JUMP JUMPDEST PUSH1 0x0 DUP1 PUSH2 0xBEC DUP4 PUSH2 0x1836 JUMP JUMPDEST SWAP1 POP PUSH1 0x0 PUSH20 0xFFFFFFFFFFFFFFFFFFFFFFFFFFFFFFFFFFFFFFFF AND DUP2 PUSH20 0xFFFFFFFFFFFFFFFFFFFFFFFFFFFFFFFFFFFFFFFF AND SUB PUSH2 0xC5D JUMPI PUSH1 0x40 MLOAD PUSH32 0x8C379A000000000000000000000000000000000000000000000000000000000 DUP2 MSTORE PUSH1 0x4 ADD PUSH2 0xC54 SWAP1 PUSH2 0x2C3A JUMP JUMPDEST PUSH1 0x40 MLOAD DUP1 SWAP2 SUB SWAP1 REVERT JUMPDEST DUP1 SWAP2 POP POP SWAP2 SWAP1 POP JUMP JUMPDEST PUSH2 0xC6E PUSH2 0x1798 JUMP JUMPDEST DUP1 PUSH1 0xB SWAP1 DUP2 PUSH2 0xC7D SWAP2 SWAP1 PUSH2 0x2E06 JUMP JUMPDEST POP POP JUMP JUMPDEST PUSH1 0x0 DUP1 PUSH20 0xFFFFFFFFFFFFFFFFFFFFFFFFFFFFFFFFFFFFFFFF AND DUP3 PUSH20 0xFFFFFFFFFFFFFFFFFFFFFFFFFFFFFFFFFFFFFFFF AND SUB PUSH2 0xCF1 JUMPI PUSH1 0x40 MLOAD PUSH32 0x8C379A000000000000000000000000000000000000000000000000000000000 DUP2 MSTORE PUSH1 0x4 ADD PUSH2 0xCE8 SWAP1 PUSH2 0x2F4A JUMP JUMPDEST PUSH1 0x40 MLOAD DUP1 SWAP2 SUB SWAP1 REVERT JUMPDEST PUSH1 0x3 PUSH1 0x0 DUP4 PUSH20 0xFFFFFFFFFFFFFFFFFFFFFFFFFFFFFFFFFFFFFFFF AND PUSH20 0xFFFFFFFFFFFFFFFFFFFFFFFFFFFFFFFFFFFFFFFF AND DUP2 MSTORE PUSH1 0x20 ADD SWAP1 DUP2 MSTORE PUSH1 0x20 ADD PUSH1 0x0 KECCAK256 SLOAD SWAP1 POP SWAP2 SWAP1 POP JUMP JUMPDEST PUSH2 0xD40 PUSH2 0x1798 JUMP JUMPDEST PUSH2 0xD4A PUSH1 0x0 PUSH2 0x1873 JUMP JUMPDEST JUMP JUMPDEST PUSH1 0x0 PUSH1 0x6 PUSH1 0x0 SWAP1 SLOAD SWAP1 PUSH2 0x100 EXP SWAP1 DIV PUSH20 0xFFFFFFFFFFFFFFFFFFFFFFFFFFFFFFFFFFFFFFFF AND SWAP1 POP SWAP1 JUMP JUMPDEST PUSH1 0x5 DUP2 JUMP JUMPDEST PUSH2 0xD83 PUSH2 0x1798 JUMP JUMPDEST DUP1 PUSH1 0x7 DUP2 SWAP1 SSTORE POP POP JUMP JUMPDEST PUSH1 0x60 PUSH1 0x1 DUP1 SLOAD PUSH2 0xD9C SWAP1 PUSH2 0x2A2E JUMP JUMPDEST DUP1 PUSH1 0x1F ADD PUSH1 0x20 DUP1 SWAP2 DIV MUL PUSH1 0x20 ADD PUSH1 0x40 MLOAD SWAP1 DUP2 ADD PUSH1 0x40 MSTORE DUP1 SWAP3 SWAP2 SWAP1 DUP2 DUP2 MSTORE PUSH1 0x20 ADD DUP3 DUP1 SLOAD PUSH2 0xDC8 SWAP1 PUSH2 0x2A2E JUMP JUMPDEST DUP1 ISZERO PUSH2 0xE15 JUMPI DUP1 PUSH1 0x1F LT PUSH2 0xDEA JUMPI PUSH2 0x100 DUP1 DUP4 SLOAD DIV MUL DUP4 MSTORE SWAP2 PUSH1 0x20 ADD SWAP2 PUSH2 0xE15 JUMP JUMPDEST DUP3 ADD SWAP2 SWAP1 PUSH1 0x0 MSTORE PUSH1 0x20 PUSH1 0x0 KECCAK256 SWAP1 JUMPDEST DUP2 SLOAD DUP2 MSTORE SWAP1 PUSH1 0x1 ADD SWAP1 PUSH1 0x20 ADD DUP1 DUP4 GT PUSH2 0xDF8 JUMPI DUP3 SWAP1 SUB PUSH1 0x1F AND DUP3 ADD SWAP2 JUMPDEST POP POP POP POP POP SWAP1 POP SWAP1 JUMP JUMPDEST PUSH1 0xB DUP1 SLOAD PUSH2 0xE2C SWAP1 PUSH2 0x2A2E JUMP JUMPDEST DUP1 PUSH1 0x1F ADD PUSH1 0x20 DUP1 SWAP2 DIV MUL PUSH1 0x20 ADD PUSH1 0x40 MLOAD SWAP1 DUP2 ADD PUSH1 0x40 MSTORE DUP1 SWAP3 SWAP2 SWAP1 DUP2 DUP2 MSTORE PUSH1 0x20 ADD DUP3 DUP1 SLOAD PUSH2 0xE58 SWAP1 PUSH2 0x2A2E JUMP JUMPDEST DUP1 ISZERO PUSH2 0xEA5 JUMPI DUP1 PUSH1 0x1F LT PUSH2 0xE7A JUMPI PUSH2 0x100 DUP1 DUP4 SLOAD DIV MUL DUP4 MSTORE SWAP2 PUSH1 0x20 ADD SWAP2 PUSH2 0xEA5 JUMP JUMPDEST DUP3 ADD SWAP2 SWAP1 PUSH1 0x0 MSTORE PUSH1 0x20 PUSH1 0x0 KECCAK256 SWAP1 JUMPDEST DUP2 SLOAD DUP2 MSTORE SWAP1 PUSH1 0x1 ADD SWAP1 PUSH1 0x20 ADD DUP1 DUP4 GT PUSH2 0xE88 JUMPI DUP3 SWAP1 SUB PUSH1 0x1F AND DUP3 ADD SWAP2 JUMPDEST POP POP POP POP POP DUP2 JUMP JUMPDEST PUSH1 0xF DUP2 JUMP JUMPDEST PUSH1 0x7 SLOAD DUP2 JUMP JUMPDEST PUSH1 0x8 PUSH1 0x0 SWAP1 SLOAD SWAP1 PUSH2 0x100 EXP SWAP1 DIV PUSH1 0xFF AND PUSH2 0xF07 JUMPI PUSH1 0x40 MLOAD PUSH32 0x8C379A000000000000000000000000000000000000000000000000000000000 DUP2 MSTORE PUSH1 0x4 ADD PUSH2 0xEFE SWAP1 PUSH2 0x2FB6 JUMP JUMPDEST PUSH1 0x40 MLOAD DUP1 SWAP2 SUB SWAP1 REVERT JUMPDEST PUSH1 0x5 DUP2 GT ISZERO PUSH2 0xF4B JUMPI PUSH1 0x40 MLOAD PUSH32 0x8C379A000000000000000000000000000000000000000000000000000000000 DUP2 MSTORE PUSH1 0x4 ADD PUSH2 0xF42 SWAP1 PUSH2 0x3048 JUMP JUMPDEST PUSH1 0x40 MLOAD DUP1 SWAP2 SUB SWAP1 REVERT JUMPDEST PUSH1 0xA DUP2 PUSH1 0xA PUSH1 0x0 CALLER PUSH20 0xFFFFFFFFFFFFFFFFFFFFFFFFFFFFFFFFFFFFFFFF AND PUSH20 0xFFFFFFFFFFFFFFFFFFFFFFFFFFFFFFFFFFFFFFFF AND DUP2 MSTORE PUSH1 0x20 ADD SWAP1 DUP2 MSTORE PUSH1 0x20 ADD PUSH1 0x0 KECCAK256 SLOAD PUSH2 0xF98 SWAP2 SWAP1 PUSH2 0x3097 JUMP JUMPDEST GT ISZERO PUSH2 0xFD9 JUMPI PUSH1 0x40 MLOAD PUSH32 0x8C379A000000000000000000000000000000000000000000000000000000000 DUP2 MSTORE PUSH1 0x4 ADD PUSH2 0xFD0 SWAP1 PUSH2 0x313D JUMP JUMPDEST PUSH1 0x40 MLOAD DUP1 SWAP2 SUB SWAP1 REVERT JUMPDEST PUSH1 0x0 PUSH1 0x9 SLOAD SWAP1 POP PUSH2 0x3E8 DUP3 DUP3 PUSH2 0xFEF SWAP2 SWAP1 PUSH2 0x3097 JUMP JUMPDEST GT ISZERO PUSH2 0x1030 JUMPI PUSH1 0x40 MLOAD PUSH32 0x8C379A000000000000000000000000000000000000000000000000000000000 DUP2 MSTORE PUSH1 0x4 ADD PUSH2 0x1027 SWAP1 PUSH2 0x31A9 JUMP JUMPDEST PUSH1 0x40 MLOAD DUP1 SWAP2 SUB SWAP1 REVERT JUMPDEST CALLVALUE PUSH1 0x7 SLOAD DUP4 PUSH2 0x103F SWAP2 SWAP1 PUSH2 0x31C9 JUMP JUMPDEST GT ISZERO PUSH2 0x1080 JUMPI PUSH1 0x40 MLOAD PUSH32 0x8C379A000000000000000000000000000000000000000000000000000000000 DUP2 MSTORE PUSH1 0x4 ADD PUSH2 0x1077 SWAP1 PUSH2 0x327D JUMP JUMPDEST PUSH1 0x40 MLOAD DUP1 SWAP2 SUB SWAP1 REVERT JUMPDEST PUSH1 0x0 PUSH1 0x1 SWAP1 POP JUMPDEST DUP3 DUP2 GT PUSH2 0x10B7 JUMPI PUSH2 0x10A4 CALLER PUSH1 0x1 DUP5 PUSH2 0x109F SWAP2 SWAP1 PUSH2 0x3097 JUMP JUMPDEST PUSH2 0x1939 JUMP JUMPDEST DUP1 DUP1 PUSH2 0x10AF SWAP1 PUSH2 0x329D JUMP JUMPDEST SWAP2 POP POP PUSH2 0x1087 JUMP JUMPDEST POP DUP2 PUSH1 0xA PUSH1 0x0 CALLER PUSH20 0xFFFFFFFFFFFFFFFFFFFFFFFFFFFFFFFFFFFFFFFF AND PUSH20 0xFFFFFFFFFFFFFFFFFFFFFFFFFFFFFFFFFFFFFFFF AND DUP2 MSTORE PUSH1 0x20 ADD SWAP1 DUP2 MSTORE PUSH1 0x20 ADD PUSH1 0x0 KECCAK256 PUSH1 0x0 DUP3 DUP3 SLOAD PUSH2 0x1107 SWAP2 SWAP1 PUSH2 0x3097 JUMP JUMPDEST SWAP3 POP POP DUP2 SWAP1 SSTORE POP DUP2 DUP2 PUSH2 0x111A SWAP2 SWAP1 PUSH2 0x3097 JUMP JUMPDEST SWAP1 POP POP POP JUMP JUMPDEST PUSH2 0x1132 PUSH2 0x112B PUSH2 0x1677 JUMP JUMPDEST DUP4 DUP4 PUSH2 0x1957 JUMP JUMPDEST POP POP JUMP JUMPDEST PUSH1 0x0 PUSH14 0xAAEB6D7670E522A718067333CD4E PUSH20 0xFFFFFFFFFFFFFFFFFFFFFFFFFFFFFFFFFFFFFFFF AND EXTCODESIZE GT ISZERO PUSH2 0x1232 JUMPI PUSH14 0xAAEB6D7670E522A718067333CD4E PUSH20 0xFFFFFFFFFFFFFFFFFFFFFFFFFFFFFFFFFFFFFFFF AND PUSH4 0xC6171134 ADDRESS CALLER PUSH1 0x40 MLOAD DUP4 PUSH4 0xFFFFFFFF AND PUSH1 0xE0 SHL DUP2 MSTORE PUSH1 0x4 ADD PUSH2 0x11AD SWAP3 SWAP2 SWAP1 PUSH2 0x2B83 JUMP JUMPDEST PUSH1 0x20 PUSH1 0x40 MLOAD DUP1 DUP4 SUB DUP2 PUSH1 0x0 DUP8 GAS CALL ISZERO DUP1 ISZERO PUSH2 0x11CC JUMPI RETURNDATASIZE PUSH1 0x0 DUP1 RETURNDATACOPY RETURNDATASIZE PUSH1 0x0 REVERT JUMPDEST POP POP POP POP PUSH1 0x40 MLOAD RETURNDATASIZE PUSH1 0x1F NOT PUSH1 0x1F DUP3 ADD AND DUP3 ADD DUP1 PUSH1 0x40 MSTORE POP DUP2 ADD SWAP1 PUSH2 0x11F0 SWAP2 SWAP1 PUSH2 0x2BC1 JUMP JUMPDEST PUSH2 0x1231 JUMPI CALLER PUSH1 0x40 MLOAD PUSH32 0xEDE71DCC00000000000000000000000000000000000000000000000000000000 DUP2 MSTORE PUSH1 0x4 ADD PUSH2 0x1228 SWAP2 SWAP1 PUSH2 0x2580 JUMP JUMPDEST PUSH1 0x40 MLOAD DUP1 SWAP2 SUB SWAP1 REVERT JUMPDEST JUMPDEST PUSH2 0x123E DUP5 DUP5 DUP5 DUP5 PUSH2 0x1AC3 JUMP JUMPDEST POP POP POP POP JUMP JUMPDEST PUSH1 0xC DUP1 SLOAD PUSH2 0x1251 SWAP1 PUSH2 0x2A2E JUMP JUMPDEST DUP1 PUSH1 0x1F ADD PUSH1 0x20 DUP1 SWAP2 DIV MUL PUSH1 0x20 ADD PUSH1 0x40 MLOAD SWAP1 DUP2 ADD PUSH1 0x40 MSTORE DUP1 SWAP3 SWAP2 SWAP1 DUP2 DUP2 MSTORE PUSH1 0x20 ADD DUP3 DUP1 SLOAD PUSH2 0x127D SWAP1 PUSH2 0x2A2E JUMP JUMPDEST DUP1 ISZERO PUSH2 0x12CA JUMPI DUP1 PUSH1 0x1F LT PUSH2 0x129F JUMPI PUSH2 0x100 DUP1 DUP4 SLOAD DIV MUL DUP4 MSTORE SWAP2 PUSH1 0x20 ADD SWAP2 PUSH2 0x12CA JUMP JUMPDEST DUP3 ADD SWAP2 SWAP1 PUSH1 0x0 MSTORE PUSH1 0x20 PUSH1 0x0 KECCAK256 SWAP1 JUMPDEST DUP2 SLOAD DUP2 MSTORE SWAP1 PUSH1 0x1 ADD SWAP1 PUSH1 0x20 ADD DUP1 DUP4 GT PUSH2 0x12AD JUMPI DUP3 SWAP1 SUB PUSH1 0x1F AND DUP3 ADD SWAP2 JUMPDEST POP POP POP POP POP DUP2 JUMP JUMPDEST PUSH1 0x60 PUSH1 0x40 MLOAD DUP1 PUSH1 0x20 ADD PUSH1 0x40 MSTORE DUP1 PUSH1 0x0 DUP2 MSTORE POP SWAP1 POP SWAP2 SWAP1 POP JUMP JUMPDEST PUSH1 0x0 PUSH1 0x5 PUSH1 0x0 DUP5 PUSH20 0xFFFFFFFFFFFFFFFFFFFFFFFFFFFFFFFFFFFFFFFF AND PUSH20 0xFFFFFFFFFFFFFFFFFFFFFFFFFFFFFFFFFFFFFFFF AND DUP2 MSTORE PUSH1 0x20 ADD SWAP1 DUP2 MSTORE PUSH1 0x20 ADD PUSH1 0x0 KECCAK256 PUSH1 0x0 DUP4 PUSH20 0xFFFFFFFFFFFFFFFFFFFFFFFFFFFFFFFFFFFFFFFF AND PUSH20 0xFFFFFFFFFFFFFFFFFFFFFFFFFFFFFFFFFFFFFFFF AND DUP2 MSTORE PUSH1 0x20 ADD SWAP1 DUP2 MSTORE PUSH1 0x20 ADD PUSH1 0x0 KECCAK256 PUSH1 0x0 SWAP1 SLOAD SWAP1 PUSH2 0x100 EXP SWAP1 DIV PUSH1 0xFF AND SWAP1 POP SWAP3 SWAP2 POP POP JUMP JUMPDEST PUSH2 0x1387 PUSH2 0x1798 JUMP JUMPDEST PUSH1 0x0 PUSH20 0xFFFFFFFFFFFFFFFFFFFFFFFFFFFFFFFFFFFFFFFF AND DUP2 PUSH20 0xFFFFFFFFFFFFFFFFFFFFFFFFFFFFFFFFFFFFFFFF AND SUB PUSH2 0x13F6 JUMPI PUSH1 0x40 MLOAD PUSH32 0x8C379A000000000000000000000000000000000000000000000000000000000 DUP2 MSTORE PUSH1 0x4 ADD PUSH2 0x13ED SWAP1 PUSH2 0x3357 JUMP JUMPDEST PUSH1 0x40 MLOAD DUP1 SWAP2 SUB SWAP1 REVERT JUMPDEST PUSH2 0x13FF DUP2 PUSH2 0x1873 JUMP JUMPDEST POP JUMP JUMPDEST PUSH2 0x140A PUSH2 0x1798 JUMP JUMPDEST PUSH1 0x0 SELFBALANCE SWAP1 POP PUSH1 0x0 PUSH1 0x64 PUSH1 0x46 DUP4 PUSH2 0x1420 SWAP2 SWAP1 PUSH2 0x31C9 JUMP JUMPDEST PUSH2 0x142A SWAP2 SWAP1 PUSH2 0x33A6 JUMP JUMPDEST SWAP1 POP PUSH1 0x0 PUSH1 0x64 PUSH1 0x1E DUP5 PUSH2 0x143D SWAP2 SWAP1 PUSH2 0x31C9 JUMP JUMPDEST PUSH2 0x1447 SWAP2 SWAP1 PUSH2 0x33A6 JUMP JUMPDEST SWAP1 POP PUSH1 0x0 PUSH20 0xDB765A02A59FB25A8C2BE041027621C726DFF2F1 PUSH20 0xFFFFFFFFFFFFFFFFFFFFFFFFFFFFFFFFFFFFFFFF AND DUP4 PUSH1 0x40 MLOAD PUSH2 0x1483 SWAP1 PUSH2 0x3408 JUMP JUMPDEST PUSH1 0x0 PUSH1 0x40 MLOAD DUP1 DUP4 SUB DUP2 DUP6 DUP8 GAS CALL SWAP3 POP POP POP RETURNDATASIZE DUP1 PUSH1 0x0 DUP2 EQ PUSH2 0x14C0 JUMPI PUSH1 0x40 MLOAD SWAP2 POP PUSH1 0x1F NOT PUSH1 0x3F RETURNDATASIZE ADD AND DUP3 ADD PUSH1 0x40 MSTORE RETURNDATASIZE DUP3 MSTORE RETURNDATASIZE PUSH1 0x0 PUSH1 0x20 DUP5 ADD RETURNDATACOPY PUSH2 0x14C5 JUMP JUMPDEST PUSH1 0x60 SWAP2 POP JUMPDEST POP POP SWAP1 POP PUSH1 0x0 PUSH20 0xDB765A02A59FB25A8C2BE041027621C726DFF2F1 PUSH20 0xFFFFFFFFFFFFFFFFFFFFFFFFFFFFFFFFFFFFFFFF AND DUP4 PUSH1 0x40 MLOAD PUSH2 0x1503 SWAP1 PUSH2 0x3408 JUMP JUMPDEST PUSH1 0x0 PUSH1 0x40 MLOAD DUP1 DUP4 SUB DUP2 DUP6 DUP8 GAS CALL SWAP3 POP POP POP RETURNDATASIZE DUP1 PUSH1 0x0 DUP2 EQ PUSH2 0x1540 JUMPI PUSH1 0x40 MLOAD SWAP2 POP PUSH1 0x1F NOT PUSH1 0x3F RETURNDATASIZE ADD AND DUP3 ADD PUSH1 0x40 MSTORE RETURNDATASIZE DUP3 MSTORE RETURNDATASIZE PUSH1 0x0 PUSH1 0x20 DUP5 ADD RETURNDATACOPY PUSH2 0x1545 JUMP JUMPDEST PUSH1 0x60 SWAP2 POP JUMPDEST POP POP SWAP1 POP DUP2 DUP1 ISZERO PUSH2 0x1553 JUMPI POP DUP1 JUMPDEST PUSH2 0x1592 JUMPI PUSH1 0x40 MLOAD PUSH32 0x8C379A000000000000000000000000000000000000000000000000000000000 DUP2 MSTORE PUSH1 0x4 ADD PUSH2 0x1589 SWAP1 PUSH2 0x3469 JUMP JUMPDEST PUSH1 0x40 MLOAD DUP1 SWAP2 SUB SWAP1 REVERT JUMPDEST POP POP POP POP POP JUMP JUMPDEST PUSH2 0x3E8 DUP2 JUMP JUMPDEST PUSH1 0x0 DUP1 DUP3 PUSH20 0xFFFFFFFFFFFFFFFFFFFFFFFFFFFFFFFFFFFFFFFF AND EXTCODESIZE GT SWAP1 POP SWAP2 SWAP1 POP JUMP JUMPDEST PUSH1 0x0 PUSH32 0x1FFC9A700000000000000000000000000000000000000000000000000000000 PUSH28 0xFFFFFFFFFFFFFFFFFFFFFFFFFFFFFFFFFFFFFFFFFFFFFFFFFFFFFFFF NOT AND DUP3 PUSH28 0xFFFFFFFFFFFFFFFFFFFFFFFFFFFFFFFFFFFFFFFFFFFFFFFFFFFFFFFF NOT AND EQ SWAP1 POP SWAP2 SWAP1 POP JUMP JUMPDEST PUSH2 0x1635 DUP2 PUSH2 0x1B25 JUMP JUMPDEST PUSH2 0x1674 JUMPI PUSH1 0x40 MLOAD PUSH32 0x8C379A000000000000000000000000000000000000000000000000000000000 DUP2 MSTORE PUSH1 0x4 ADD PUSH2 0x166B SWAP1 PUSH2 0x2C3A JUMP JUMPDEST PUSH1 0x40 MLOAD DUP1 SWAP2 SUB SWAP1 REVERT JUMPDEST POP JUMP JUMPDEST PUSH1 0x0 CALLER SWAP1 POP SWAP1 JUMP JUMPDEST DUP2 PUSH1 0x4 PUSH1 0x0 DUP4 DUP2 MSTORE PUSH1 0x20 ADD SWAP1 DUP2 MSTORE PUSH1 0x20 ADD PUSH1 0x0 KECCAK256 PUSH1 0x0 PUSH2 0x100 EXP DUP2 SLOAD DUP2 PUSH20 0xFFFFFFFFFFFFFFFFFFFFFFFFFFFFFFFFFFFFFFFF MUL NOT AND SWAP1 DUP4 PUSH20 0xFFFFFFFFFFFFFFFFFFFFFFFFFFFFFFFFFFFFFFFF AND MUL OR SWAP1 SSTORE POP DUP1 DUP3 PUSH20 0xFFFFFFFFFFFFFFFFFFFFFFFFFFFFFFFFFFFFFFFF AND PUSH2 0x16F2 DUP4 PUSH2 0xBE0 JUMP JUMPDEST PUSH20 0xFFFFFFFFFFFFFFFFFFFFFFFFFFFFFFFFFFFFFFFF AND PUSH32 0x8C5BE1E5EBEC7D5BD14F71427D1E84F3DD0314C0F7B2291E5B200AC8C7C3B925 PUSH1 0x40 MLOAD PUSH1 0x40 MLOAD DUP1 SWAP2 SUB SWAP1 LOG4 POP POP JUMP JUMPDEST PUSH2 0x1749 PUSH2 0x1743 PUSH2 0x1677 JUMP JUMPDEST DUP3 PUSH2 0x1B66 JUMP JUMPDEST PUSH2 0x1788 JUMPI PUSH1 0x40 MLOAD PUSH32 0x8C379A000000000000000000000000000000000000000000000000000000000 DUP2 MSTORE PUSH1 0x4 ADD PUSH2 0x177F SWAP1 PUSH2 0x34FB JUMP JUMPDEST PUSH1 0x40 MLOAD DUP1 SWAP2 SUB SWAP1 REVERT JUMPDEST PUSH2 0x1793 DUP4 DUP4 DUP4 PUSH2 0x1BFB JUMP JUMPDEST POP POP POP JUMP JUMPDEST PUSH2 0x17A0 PUSH2 0x1677 JUMP JUMPDEST PUSH20 0xFFFFFFFFFFFFFFFFFFFFFFFFFFFFFFFFFFFFFFFF AND PUSH2 0x17BE PUSH2 0xD4C JUMP JUMPDEST PUSH20 0xFFFFFFFFFFFFFFFFFFFFFFFFFFFFFFFFFFFFFFFF AND EQ PUSH2 0x1814 JUMPI PUSH1 0x40 MLOAD PUSH32 0x8C379A000000000000000000000000000000000000000000000000000000000 DUP2 MSTORE PUSH1 0x4 ADD PUSH2 0x180B SWAP1 PUSH2 0x3567 JUMP JUMPDEST PUSH1 0x40 MLOAD DUP1 SWAP2 SUB SWAP1 REVERT JUMPDEST JUMP JUMPDEST PUSH2 0x1831 DUP4 DUP4 DUP4 PUSH1 0x40 MLOAD DUP1 PUSH1 0x20 ADD PUSH1 0x40 MSTORE DUP1 PUSH1 0x0 DUP2 MSTORE POP PUSH2 0x1136 JUMP JUMPDEST POP POP POP JUMP JUMPDEST PUSH1 0x0 PUSH1 0x2 PUSH1 0x0 DUP4 DUP2 MSTORE PUSH1 0x20 ADD SWAP1 DUP2 MSTORE PUSH1 0x20 ADD PUSH1 0x0 KECCAK256 PUSH1 0x0 SWAP1 SLOAD SWAP1 PUSH2 0x100 EXP SWAP1 DIV PUSH20 0xFFFFFFFFFFFFFFFFFFFFFFFFFFFFFFFFFFFFFFFF AND SWAP1 POP SWAP2 SWAP1 POP JUMP JUMPDEST PUSH1 0x0 PUSH1 0x6 PUSH1 0x0 SWAP1 SLOAD SWAP1 PUSH2 0x100 EXP SWAP1 DIV PUSH20 0xFFFFFFFFFFFFFFFFFFFFFFFFFFFFFFFFFFFFFFFF AND SWAP1 POP DUP2 PUSH1 0x6 PUSH1 0x0 PUSH2 0x100 EXP DUP2 SLOAD DUP2 PUSH20 0xFFFFFFFFFFFFFFFFFFFFFFFFFFFFFFFFFFFFFFFF MUL NOT AND SWAP1 DUP4 PUSH20 0xFFFFFFFFFFFFFFFFFFFFFFFFFFFFFFFFFFFFFFFF AND MUL OR SWAP1 SSTORE POP DUP2 PUSH20 0xFFFFFFFFFFFFFFFFFFFFFFFFFFFFFFFFFFFFFFFF AND DUP2 PUSH20 0xFFFFFFFFFFFFFFFFFFFFFFFFFFFFFFFFFFFFFFFF AND PUSH32 0x8BE0079C531659141344CD1FD0A4F28419497F9722A3DAAFE3B4186F6B6457E0 PUSH1 0x40 MLOAD PUSH1 0x40 MLOAD DUP1 SWAP2 SUB SWAP1 LOG3 POP POP JUMP JUMPDEST PUSH2 0x1953 DUP3 DUP3 PUSH1 0x40 MLOAD DUP1 PUSH1 0x20 ADD PUSH1 0x40 MSTORE DUP1 PUSH1 0x0 DUP2 MSTORE POP PUSH2 0x1EF4 JUMP JUMPDEST POP POP JUMP JUMPDEST DUP2 PUSH20 0xFFFFFFFFFFFFFFFFFFFFFFFFFFFFFFFFFFFFFFFF AND DUP4 PUSH20 0xFFFFFFFFFFFFFFFFFFFFFFFFFFFFFFFFFFFFFFFF AND SUB PUSH2 0x19C5 JUMPI PUSH1 0x40 MLOAD PUSH32 0x8C379A000000000000000000000000000000000000000000000000000000000 DUP2 MSTORE PUSH1 0x4 ADD PUSH2 0x19BC SWAP1 PUSH2 0x35D3 JUMP JUMPDEST PUSH1 0x40 MLOAD DUP1 SWAP2 SUB SWAP1 REVERT JUMPDEST DUP1 PUSH1 0x5 PUSH1 0x0 DUP6 PUSH20 0xFFFFFFFFFFFFFFFFFFFFFFFFFFFFFFFFFFFFFFFF AND PUSH20 0xFFFFFFFFFFFFFFFFFFFFFFFFFFFFFFFFFFFFFFFF AND DUP2 MSTORE PUSH1 0x20 ADD SWAP1 DUP2 MSTORE PUSH1 0x20 ADD PUSH1 0x0 KECCAK256 PUSH1 0x0 DUP5 PUSH20 0xFFFFFFFFFFFFFFFFFFFFFFFFFFFFFFFFFFFFFFFF AND PUSH20 0xFFFFFFFFFFFFFFFFFFFFFFFFFFFFFFFFFFFFFFFF AND DUP2 MSTORE PUSH1 0x20 ADD SWAP1 DUP2 MSTORE PUSH1 0x20 ADD PUSH1 0x0 KECCAK256 PUSH1 0x0 PUSH2 0x100 EXP DUP2 SLOAD DUP2 PUSH1 0xFF MUL NOT AND SWAP1 DUP4 ISZERO ISZERO MUL OR SWAP1 SSTORE POP DUP2 PUSH20 0xFFFFFFFFFFFFFFFFFFFFFFFFFFFFFFFFFFFFFFFF AND DUP4 PUSH20 0xFFFFFFFFFFFFFFFFFFFFFFFFFFFFFFFFFFFFFFFF AND PUSH32 0x17307EAB39AB6107E8899845AD3D59BD9653F200F220920489CA2B5937696C31 DUP4 PUSH1 0x40 MLOAD PUSH2 0x1AB6 SWAP2 SWAP1 PUSH2 0x240F JUMP JUMPDEST PUSH1 0x40 MLOAD DUP1 SWAP2 SUB SWAP1 LOG3 POP POP POP JUMP JUMPDEST PUSH2 0x1AD4 PUSH2 0x1ACE PUSH2 0x1677 JUMP JUMPDEST DUP4 PUSH2 0x1B66 JUMP JUMPDEST PUSH2 0x1B13 JUMPI PUSH1 0x40 MLOAD PUSH32 0x8C379A000000000000000000000000000000000000000000000000000000000 DUP2 MSTORE PUSH1 0x4 ADD PUSH2 0x1B0A SWAP1 PUSH2 0x34FB JUMP JUMPDEST PUSH1 0x40 MLOAD DUP1 SWAP2 SUB SWAP1 REVERT JUMPDEST PUSH2 0x1B1F DUP5 DUP5 DUP5 DUP5 PUSH2 0x1F4F JUMP JUMPDEST POP POP POP POP JUMP JUMPDEST PUSH1 0x0 DUP1 PUSH20 0xFFFFFFFFFFFFFFFFFFFFFFFFFFFFFFFFFFFFFFFF AND PUSH2 0x1B47 DUP4 PUSH2 0x1836 JUMP JUMPDEST PUSH20 0xFFFFFFFFFFFFFFFFFFFFFFFFFFFFFFFFFFFFFFFF AND EQ ISZERO SWAP1 POP SWAP2 SWAP1 POP JUMP JUMPDEST PUSH1 0x0 DUP1 PUSH2 0x1B72 DUP4 PUSH2 0xBE0 JUMP JUMPDEST SWAP1 POP DUP1 PUSH20 0xFFFFFFFFFFFFFFFFFFFFFFFFFFFFFFFFFFFFFFFF AND DUP5 PUSH20 0xFFFFFFFFFFFFFFFFFFFFFFFFFFFFFFFFFFFFFFFF AND EQ DUP1 PUSH2 0x1BB4 JUMPI POP PUSH2 0x1BB3 DUP2 DUP6 PUSH2 0x12EB JUMP JUMPDEST JUMPDEST DUP1 PUSH2 0x1BF2 JUMPI POP DUP4 PUSH20 0xFFFFFFFFFFFFFFFFFFFFFFFFFFFFFFFFFFFFFFFF AND PUSH2 0x1BDA DUP5 PUSH2 0x81E JUMP JUMPDEST PUSH20 0xFFFFFFFFFFFFFFFFFFFFFFFFFFFFFFFFFFFFFFFF AND EQ JUMPDEST SWAP2 POP POP SWAP3 SWAP2 POP POP JUMP JUMPDEST DUP3 PUSH20 0xFFFFFFFFFFFFFFFFFFFFFFFFFFFFFFFFFFFFFFFF AND PUSH2 0x1C1B DUP3 PUSH2 0xBE0 JUMP JUMPDEST PUSH20 0xFFFFFFFFFFFFFFFFFFFFFFFFFFFFFFFFFFFFFFFF AND EQ PUSH2 0x1C71 JUMPI PUSH1 0x40 MLOAD PUSH32 0x8C379A000000000000000000000000000000000000000000000000000000000 DUP2 MSTORE PUSH1 0x4 ADD PUSH2 0x1C68 SWAP1 PUSH2 0x3665 JUMP JUMPDEST PUSH1 0x40 MLOAD DUP1 SWAP2 SUB SWAP1 REVERT JUMPDEST PUSH1 0x0 PUSH20 0xFFFFFFFFFFFFFFFFFFFFFFFFFFFFFFFFFFFFFFFF AND DUP3 PUSH20 0xFFFFFFFFFFFFFFFFFFFFFFFFFFFFFFFFFFFFFFFF AND SUB PUSH2 0x1CE0 JUMPI PUSH1 0x40 MLOAD PUSH32 0x8C379A000000000000000000000000000000000000000000000000000000000 DUP2 MSTORE PUSH1 0x4 ADD PUSH2 0x1CD7 SWAP1 PUSH2 0x36F7 JUMP JUMPDEST PUSH1 0x40 MLOAD DUP1 SWAP2 SUB SWAP1 REVERT JUMPDEST PUSH2 0x1CED DUP4 DUP4 DUP4 PUSH1 0x1 PUSH2 0x1FAB JUMP JUMPDEST DUP3 PUSH20 0xFFFFFFFFFFFFFFFFFFFFFFFFFFFFFFFFFFFFFFFF AND PUSH2 0x1D0D DUP3 PUSH2 0xBE0 JUMP JUMPDEST PUSH20 0xFFFFFFFFFFFFFFFFFFFFFFFFFFFFFFFFFFFFFFFF AND EQ PUSH2 0x1D63 JUMPI PUSH1 0x40 MLOAD PUSH32 0x8C379A000000000000000000000000000000000000000000000000000000000 DUP2 MSTORE PUSH1 0x4 ADD PUSH2 0x1D5A SWAP1 PUSH2 0x3665 JUMP JUMPDEST PUSH1 0x40 MLOAD DUP1 SWAP2 SUB SWAP1 REVERT JUMPDEST PUSH1 0x4 PUSH1 0x0 DUP3 DUP2 MSTORE PUSH1 0x20 ADD SWAP1 DUP2 MSTORE PUSH1 0x20 ADD PUSH1 0x0 KECCAK256 PUSH1 0x0 PUSH2 0x100 EXP DUP2 SLOAD SWAP1 PUSH20 0xFFFFFFFFFFFFFFFFFFFFFFFFFFFFFFFFFFFFFFFF MUL NOT AND SWAP1 SSTORE PUSH1 0x1 PUSH1 0x3 PUSH1 0x0 DUP6 PUSH20 0xFFFFFFFFFFFFFFFFFFFFFFFFFFFFFFFFFFFFFFFF AND PUSH20 0xFFFFFFFFFFFFFFFFFFFFFFFFFFFFFFFFFFFFFFFF AND DUP2 MSTORE PUSH1 0x20 ADD SWAP1 DUP2 MSTORE PUSH1 0x20 ADD PUSH1 0x0 KECCAK256 PUSH1 0x0 DUP3 DUP3 SLOAD SUB SWAP3 POP POP DUP2 SWAP1 SSTORE POP PUSH1 0x1 PUSH1 0x3 PUSH1 0x0 DUP5 PUSH20 0xFFFFFFFFFFFFFFFFFFFFFFFFFFFFFFFFFFFFFFFF AND PUSH20 0xFFFFFFFFFFFFFFFFFFFFFFFFFFFFFFFFFFFFFFFF AND DUP2 MSTORE PUSH1 0x20 ADD SWAP1 DUP2 MSTORE PUSH1 0x20 ADD PUSH1 0x0 KECCAK256 PUSH1 0x0 DUP3 DUP3 SLOAD ADD SWAP3 POP POP DUP2 SWAP1 SSTORE POP DUP2 PUSH1 0x2 PUSH1 0x0 DUP4 DUP2 MSTORE PUSH1 0x20 ADD SWAP1 DUP2 MSTORE PUSH1 0x20 ADD PUSH1 0x0 KECCAK256 PUSH1 0x0 PUSH2 0x100 EXP DUP2 SLOAD DUP2 PUSH20 0xFFFFFFFFFFFFFFFFFFFFFFFFFFFFFFFFFFFFFFFF MUL NOT AND SWAP1 DUP4 PUSH20 0xFFFFFFFFFFFFFFFFFFFFFFFFFFFFFFFFFFFFFFFF AND MUL OR SWAP1 SSTORE POP DUP1 DUP3 PUSH20 0xFFFFFFFFFFFFFFFFFFFFFFFFFFFFFFFFFFFFFFFF AND DUP5 PUSH20 0xFFFFFFFFFFFFFFFFFFFFFFFFFFFFFFFFFFFFFFFF AND PUSH32 0xDDF252AD1BE2C89B69C2B068FC378DAA952BA7F163C4A11628F55A4DF523B3EF PUSH1 0x40 MLOAD PUSH1 0x40 MLOAD DUP1 SWAP2 SUB SWAP1 LOG4 PUSH2 0x1EEF DUP4 DUP4 DUP4 PUSH1 0x1 PUSH2 0x1FB1 JUMP JUMPDEST POP POP POP JUMP JUMPDEST PUSH2 0x1EFE DUP4 DUP4 PUSH2 0x1FB7 JUMP JUMPDEST PUSH2 0x1F0B PUSH1 0x0 DUP5 DUP5 DUP5 PUSH2 0x21D4 JUMP JUMPDEST PUSH2 0x1F4A JUMPI PUSH1 0x40 MLOAD PUSH32 0x8C379A000000000000000000000000000000000000000000000000000000000 DUP2 MSTORE PUSH1 0x4 ADD PUSH2 0x1F41 SWAP1 PUSH2 0x3789 JUMP JUMPDEST PUSH1 0x40 MLOAD DUP1 SWAP2 SUB SWAP1 REVERT JUMPDEST POP POP POP JUMP JUMPDEST PUSH2 0x1F5A DUP5 DUP5 DUP5 PUSH2 0x1BFB JUMP JUMPDEST PUSH2 0x1F66 DUP5 DUP5 DUP5 DUP5 PUSH2 0x21D4 JUMP JUMPDEST PUSH2 0x1FA5 JUMPI PUSH1 0x40 MLOAD PUSH32 0x8C379A000000000000000000000000000000000000000000000000000000000 DUP2 MSTORE PUSH1 0x4 ADD PUSH2 0x1F9C SWAP1 PUSH2 0x3789 JUMP JUMPDEST PUSH1 0x40 MLOAD DUP1 SWAP2 SUB SWAP1 REVERT JUMPDEST POP POP POP POP JUMP JUMPDEST POP POP POP POP JUMP JUMPDEST POP POP POP POP JUMP JUMPDEST PUSH1 0x0 PUSH20 0xFFFFFFFFFFFFFFFFFFFFFFFFFFFFFFFFFFFFFFFF AND DUP3 PUSH20 0xFFFFFFFFFFFFFFFFFFFFFFFFFFFFFFFFFFFFFFFF AND SUB PUSH2 0x2026 JUMPI PUSH1 0x40 MLOAD PUSH32 0x8C379A000000000000000000000000000000000000000000000000000000000 DUP2 MSTORE PUSH1 0x4 ADD PUSH2 0x201D SWAP1 PUSH2 0x37F5 JUMP JUMPDEST PUSH1 0x40 MLOAD DUP1 SWAP2 SUB SWAP1 REVERT JUMPDEST PUSH2 0x202F DUP2 PUSH2 0x1B25 JUMP JUMPDEST ISZERO PUSH2 0x206F JUMPI PUSH1 0x40 MLOAD PUSH32 0x8C379A000000000000000000000000000000000000000000000000000000000 DUP2 MSTORE PUSH1 0x4 ADD PUSH2 0x2066 SWAP1 PUSH2 0x3861 JUMP JUMPDEST PUSH1 0x40 MLOAD DUP1 SWAP2 SUB SWAP1 REVERT JUMPDEST PUSH2 0x207D PUSH1 0x0 DUP4 DUP4 PUSH1 0x1 PUSH2 0x1FAB JUMP JUMPDEST PUSH2 0x2086 DUP2 PUSH2 0x1B25 JUMP JUMPDEST ISZERO PUSH2 0x20C6 JUMPI PUSH1 0x40 MLOAD PUSH32 0x8C379A000000000000000000000000000000000000000000000000000000000 DUP2 MSTORE PUSH1 0x4 ADD PUSH2 0x20BD SWAP1 PUSH2 0x3861 JUMP JUMPDEST PUSH1 0x40 MLOAD DUP1 SWAP2 SUB SWAP1 REVERT JUMPDEST PUSH1 0x1 PUSH1 0x3 PUSH1 0x0 DUP5 PUSH20 0xFFFFFFFFFFFFFFFFFFFFFFFFFFFFFFFFFFFFFFFF AND PUSH20 0xFFFFFFFFFFFFFFFFFFFFFFFFFFFFFFFFFFFFFFFF AND DUP2 MSTORE PUSH1 0x20 ADD SWAP1 DUP2 MSTORE PUSH1 0x20 ADD PUSH1 0x0 KECCAK256 PUSH1 0x0 DUP3 DUP3 SLOAD ADD SWAP3 POP POP DUP2 SWAP1 SSTORE POP DUP2 PUSH1 0x2 PUSH1 0x0 DUP4 DUP2 MSTORE PUSH1 0x20 ADD SWAP1 DUP2 MSTORE PUSH1 0x20 ADD PUSH1 0x0 KECCAK256 PUSH1 0x0 PUSH2 0x100 EXP DUP2 SLOAD DUP2 PUSH20 0xFFFFFFFFFFFFFFFFFFFFFFFFFFFFFFFFFFFFFFFF MUL NOT AND SWAP1 DUP4 PUSH20 0xFFFFFFFFFFFFFFFFFFFFFFFFFFFFFFFFFFFFFFFF AND MUL OR SWAP1 SSTORE POP DUP1 DUP3 PUSH20 0xFFFFFFFFFFFFFFFFFFFFFFFFFFFFFFFFFFFFFFFF AND PUSH1 0x0 PUSH20 0xFFFFFFFFFFFFFFFFFFFFFFFFFFFFFFFFFFFFFFFF AND PUSH32 0xDDF252AD1BE2C89B69C2B068FC378DAA952BA7F163C4A11628F55A4DF523B3EF PUSH1 0x40 MLOAD PUSH1 0x40 MLOAD DUP1 SWAP2 SUB SWAP1 LOG4 PUSH2 0x21D0 PUSH1 0x0 DUP4 DUP4 PUSH1 0x1 PUSH2 0x1FB1 JUMP JUMPDEST POP POP JUMP JUMPDEST PUSH1 0x0 PUSH2 0x21F5 DUP5 PUSH20 0xFFFFFFFFFFFFFFFFFFFFFFFFFFFFFFFFFFFFFFFF AND PUSH2 0x159F JUMP JUMPDEST ISZERO PUSH2 0x234E JUMPI DUP4 PUSH20 0xFFFFFFFFFFFFFFFFFFFFFFFFFFFFFFFFFFFFFFFF AND PUSH4 0x150B7A02 PUSH2 0x221E PUSH2 0x1677 JUMP JUMPDEST DUP8 DUP7 DUP7 PUSH1 0x40 MLOAD DUP6 PUSH4 0xFFFFFFFF AND PUSH1 0xE0 SHL DUP2 MSTORE PUSH1 0x4 ADD PUSH2 0x2240 SWAP5 SWAP4 SWAP3 SWAP2 SWAP1 PUSH2 0x38D6 JUMP JUMPDEST PUSH1 0x20 PUSH1 0x40 MLOAD DUP1 DUP4 SUB DUP2 PUSH1 0x0 DUP8 GAS CALL SWAP3 POP POP POP DUP1 ISZERO PUSH2 0x227C JUMPI POP PUSH1 0x40 MLOAD RETURNDATASIZE PUSH1 0x1F NOT PUSH1 0x1F DUP3 ADD AND DUP3 ADD DUP1 PUSH1 0x40 MSTORE POP DUP2 ADD SWAP1 PUSH2 0x2279 SWAP2 SWAP1 PUSH2 0x3937 JUMP JUMPDEST PUSH1 0x1 JUMPDEST PUSH2 0x22FE JUMPI RETURNDATASIZE DUP1 PUSH1 0x0 DUP2 EQ PUSH2 0x22AC JUMPI PUSH1 0x40 MLOAD SWAP2 POP PUSH1 0x1F NOT PUSH1 0x3F RETURNDATASIZE ADD AND DUP3 ADD PUSH1 0x40 MSTORE RETURNDATASIZE DUP3 MSTORE RETURNDATASIZE PUSH1 0x0 PUSH1 0x20 DUP5 ADD RETURNDATACOPY PUSH2 0x22B1 JUMP JUMPDEST PUSH1 0x60 SWAP2 POP JUMPDEST POP PUSH1 0x0 DUP2 MLOAD SUB PUSH2 0x22F6 JUMPI PUSH1 0x40 MLOAD PUSH32 0x8C379A000000000000000000000000000000000000000000000000000000000 DUP2 MSTORE PUSH1 0x4 ADD PUSH2 0x22ED SWAP1 PUSH2 0x3789 JUMP JUMPDEST PUSH1 0x40 MLOAD DUP1 SWAP2 SUB SWAP1 REVERT JUMPDEST DUP1 MLOAD DUP2 PUSH1 0x20 ADD REVERT JUMPDEST PUSH4 0x150B7A02 PUSH1 0xE0 SHL PUSH28 0xFFFFFFFFFFFFFFFFFFFFFFFFFFFFFFFFFFFFFFFFFFFFFFFFFFFFFFFF NOT AND DUP2 PUSH28 0xFFFFFFFFFFFFFFFFFFFFFFFFFFFFFFFFFFFFFFFFFFFFFFFFFFFFFFFF NOT AND EQ SWAP2 POP POP PUSH2 0x2353 JUMP JUMPDEST PUSH1 0x1 SWAP1 POP JUMPDEST SWAP5 SWAP4 POP POP POP POP JUMP JUMPDEST PUSH1 0x0 PUSH1 0x40 MLOAD SWAP1 POP SWAP1 JUMP JUMPDEST PUSH1 0x0 DUP1 REVERT JUMPDEST PUSH1 0x0 DUP1 REVERT JUMPDEST PUSH1 0x0 PUSH32 0xFFFFFFFF00000000000000000000000000000000000000000000000000000000 DUP3 AND SWAP1 POP SWAP2 SWAP1 POP JUMP JUMPDEST PUSH2 0x23A4 DUP2 PUSH2 0x236F JUMP JUMPDEST DUP2 EQ PUSH2 0x23AF JUMPI PUSH1 0x0 DUP1 REVERT JUMPDEST POP JUMP JUMPDEST PUSH1 0x0 DUP2 CALLDATALOAD SWAP1 POP PUSH2 0x23C1 DUP2 PUSH2 0x239B JUMP JUMPDEST SWAP3 SWAP2 POP POP JUMP JUMPDEST PUSH1 0x0 PUSH1 0x20 DUP3 DUP5 SUB SLT ISZERO PUSH2 0x23DD JUMPI PUSH2 0x23DC PUSH2 0x2365 JUMP JUMPDEST JUMPDEST PUSH1 0x0 PUSH2 0x23EB DUP5 DUP3 DUP6 ADD PUSH2 0x23B2 JUMP JUMPDEST SWAP2 POP POP SWAP3 SWAP2 POP POP JUMP JUMPDEST PUSH1 0x0 DUP2 ISZERO ISZERO SWAP1 POP SWAP2 SWAP1 POP JUMP JUMPDEST PUSH2 0x2409 DUP2 PUSH2 0x23F4 JUMP JUMPDEST DUP3 MSTORE POP POP JUMP JUMPDEST PUSH1 0x0 PUSH1 0x20 DUP3 ADD SWAP1 POP PUSH2 0x2424 PUSH1 0x0 DUP4 ADD DUP5 PUSH2 0x2400 JUMP JUMPDEST SWAP3 SWAP2 POP POP JUMP JUMPDEST PUSH1 0x0 DUP2 MLOAD SWAP1 POP SWAP2 SWAP1 POP JUMP JUMPDEST PUSH1 0x0 DUP3 DUP3 MSTORE PUSH1 0x20 DUP3 ADD SWAP1 POP SWAP3 SWAP2 POP POP JUMP JUMPDEST PUSH1 0x0 JUMPDEST DUP4 DUP2 LT ISZERO PUSH2 0x2464 JUMPI DUP1 DUP3 ADD MLOAD DUP2 DUP5 ADD MSTORE PUSH1 0x20 DUP2 ADD SWAP1 POP PUSH2 0x2449 JUMP JUMPDEST PUSH1 0x0 DUP5 DUP5 ADD MSTORE POP POP POP POP JUMP JUMPDEST PUSH1 0x0 PUSH1 0x1F NOT PUSH1 0x1F DUP4 ADD AND SWAP1 POP SWAP2 SWAP1 POP JUMP JUMPDEST PUSH1 0x0 PUSH2 0x248C DUP3 PUSH2 0x242A JUMP JUMPDEST PUSH2 0x2496 DUP2 DUP6 PUSH2 0x2435 JUMP JUMPDEST SWAP4 POP PUSH2 0x24A6 DUP2 DUP6 PUSH1 0x20 DUP7 ADD PUSH2 0x2446 JUMP JUMPDEST PUSH2 0x24AF DUP2 PUSH2 0x2470 JUMP JUMPDEST DUP5 ADD SWAP2 POP POP SWAP3 SWAP2 POP POP JUMP JUMPDEST PUSH1 0x0 PUSH1 0x20 DUP3 ADD SWAP1 POP DUP2 DUP2 SUB PUSH1 0x0 DUP4 ADD MSTORE PUSH2 0x24D4 DUP2 DUP5 PUSH2 0x2481 JUMP JUMPDEST SWAP1 POP SWAP3 SWAP2 POP POP JUMP JUMPDEST PUSH1 0x0 DUP2 SWAP1 POP SWAP2 SWAP1 POP JUMP JUMPDEST PUSH2 0x24EF DUP2 PUSH2 0x24DC JUMP JUMPDEST DUP2 EQ PUSH2 0x24FA JUMPI PUSH1 0x0 DUP1 REVERT JUMPDEST POP JUMP JUMPDEST PUSH1 0x0 DUP2 CALLDATALOAD SWAP1 POP PUSH2 0x250C DUP2 PUSH2 0x24E6 JUMP JUMPDEST SWAP3 SWAP2 POP POP JUMP JUMPDEST PUSH1 0x0 PUSH1 0x20 DUP3 DUP5 SUB SLT ISZERO PUSH2 0x2528 JUMPI PUSH2 0x2527 PUSH2 0x2365 JUMP JUMPDEST JUMPDEST PUSH1 0x0 PUSH2 0x2536 DUP5 DUP3 DUP6 ADD PUSH2 0x24FD JUMP JUMPDEST SWAP2 POP POP SWAP3 SWAP2 POP POP JUMP JUMPDEST PUSH1 0x0 PUSH20 0xFFFFFFFFFFFFFFFFFFFFFFFFFFFFFFFFFFFFFFFF DUP3 AND SWAP1 POP SWAP2 SWAP1 POP JUMP JUMPDEST PUSH1 0x0 PUSH2 0x256A DUP3 PUSH2 0x253F JUMP JUMPDEST SWAP1 POP SWAP2 SWAP1 POP JUMP JUMPDEST PUSH2 0x257A DUP2 PUSH2 0x255F JUMP JUMPDEST DUP3 MSTORE POP POP JUMP JUMPDEST PUSH1 0x0 PUSH1 0x20 DUP3 ADD SWAP1 POP PUSH2 0x2595 PUSH1 0x0 DUP4 ADD DUP5 PUSH2 0x2571 JUMP JUMPDEST SWAP3 SWAP2 POP POP JUMP JUMPDEST PUSH2 0x25A4 DUP2 PUSH2 0x255F JUMP JUMPDEST DUP2 EQ PUSH2 0x25AF JUMPI PUSH1 0x0 DUP1 REVERT JUMPDEST POP JUMP JUMPDEST PUSH1 0x0 DUP2 CALLDATALOAD SWAP1 POP PUSH2 0x25C1 DUP2 PUSH2 0x259B JUMP JUMPDEST SWAP3 SWAP2 POP POP JUMP JUMPDEST PUSH1 0x0 DUP1 PUSH1 0x40 DUP4 DUP6 SUB SLT ISZERO PUSH2 0x25DE JUMPI PUSH2 0x25DD PUSH2 0x2365 JUMP JUMPDEST JUMPDEST PUSH1 0x0 PUSH2 0x25EC DUP6 DUP3 DUP7 ADD PUSH2 0x25B2 JUMP JUMPDEST SWAP3 POP POP PUSH1 0x20 PUSH2 0x25FD DUP6 DUP3 DUP7 ADD PUSH2 0x24FD JUMP JUMPDEST SWAP2 POP POP SWAP3 POP SWAP3 SWAP1 POP JUMP JUMPDEST PUSH2 0x2610 DUP2 PUSH2 0x24DC JUMP JUMPDEST DUP3 MSTORE POP POP JUMP JUMPDEST PUSH1 0x0 PUSH1 0x20 DUP3 ADD SWAP1 POP PUSH2 0x262B PUSH1 0x0 DUP4 ADD DUP5 PUSH2 0x2607 JUMP JUMPDEST SWAP3 SWAP2 POP POP JUMP JUMPDEST PUSH1 0x0 DUP1 PUSH1 0x0 PUSH1 0x60 DUP5 DUP7 SUB SLT ISZERO PUSH2 0x264A JUMPI PUSH2 0x2649 PUSH2 0x2365 JUMP JUMPDEST JUMPDEST PUSH1 0x0 PUSH2 0x2658 DUP7 DUP3 DUP8 ADD PUSH2 0x25B2 JUMP JUMPDEST SWAP4 POP POP PUSH1 0x20 PUSH2 0x2669 DUP7 DUP3 DUP8 ADD PUSH2 0x25B2 JUMP JUMPDEST SWAP3 POP POP PUSH1 0x40 PUSH2 0x267A DUP7 DUP3 DUP8 ADD PUSH2 0x24FD JUMP JUMPDEST SWAP2 POP POP SWAP3 POP SWAP3 POP SWAP3 JUMP JUMPDEST PUSH1 0x0 DUP1 REVERT JUMPDEST PUSH1 0x0 DUP1 REVERT JUMPDEST PUSH32 0x4E487B7100000000000000000000000000000000000000000000000000000000 PUSH1 0x0 MSTORE PUSH1 0x41 PUSH1 0x4 MSTORE PUSH1 0x24 PUSH1 0x0 REVERT JUMPDEST PUSH2 0x26C6 DUP3 PUSH2 0x2470 JUMP JUMPDEST DUP2 ADD DUP2 DUP2 LT PUSH8 0xFFFFFFFFFFFFFFFF DUP3 GT OR ISZERO PUSH2 0x26E5 JUMPI PUSH2 0x26E4 PUSH2 0x268E JUMP JUMPDEST JUMPDEST DUP1 PUSH1 0x40 MSTORE POP POP POP JUMP JUMPDEST PUSH1 0x0 PUSH2 0x26F8 PUSH2 0x235B JUMP JUMPDEST SWAP1 POP PUSH2 0x2704 DUP3 DUP3 PUSH2 0x26BD JUMP JUMPDEST SWAP2 SWAP1 POP JUMP JUMPDEST PUSH1 0x0 PUSH8 0xFFFFFFFFFFFFFFFF DUP3 GT ISZERO PUSH2 0x2724 JUMPI PUSH2 0x2723 PUSH2 0x268E JUMP JUMPDEST JUMPDEST PUSH2 0x272D DUP3 PUSH2 0x2470 JUMP JUMPDEST SWAP1 POP PUSH1 0x20 DUP2 ADD SWAP1 POP SWAP2 SWAP1 POP JUMP JUMPDEST DUP3 DUP2 DUP4 CALLDATACOPY PUSH1 0x0 DUP4 DUP4 ADD MSTORE POP POP POP JUMP JUMPDEST PUSH1 0x0 PUSH2 0x275C PUSH2 0x2757 DUP5 PUSH2 0x2709 JUMP JUMPDEST PUSH2 0x26EE JUMP JUMPDEST SWAP1 POP DUP3 DUP2 MSTORE PUSH1 0x20 DUP2 ADD DUP5 DUP5 DUP5 ADD GT ISZERO PUSH2 0x2778 JUMPI PUSH2 0x2777 PUSH2 0x2689 JUMP JUMPDEST JUMPDEST PUSH2 0x2783 DUP5 DUP3 DUP6 PUSH2 0x273A JUMP JUMPDEST POP SWAP4 SWAP3 POP POP POP JUMP JUMPDEST PUSH1 0x0 DUP3 PUSH1 0x1F DUP4 ADD SLT PUSH2 0x27A0 JUMPI PUSH2 0x279F PUSH2 0x2684 JUMP JUMPDEST JUMPDEST DUP2 CALLDATALOAD PUSH2 0x27B0 DUP5 DUP3 PUSH1 0x20 DUP7 ADD PUSH2 0x2749 JUMP JUMPDEST SWAP2 POP POP SWAP3 SWAP2 POP POP JUMP JUMPDEST PUSH1 0x0 PUSH1 0x20 DUP3 DUP5 SUB SLT ISZERO PUSH2 0x27CF JUMPI PUSH2 0x27CE PUSH2 0x2365 JUMP JUMPDEST JUMPDEST PUSH1 0x0 DUP3 ADD CALLDATALOAD PUSH8 0xFFFFFFFFFFFFFFFF DUP2 GT ISZERO PUSH2 0x27ED JUMPI PUSH2 0x27EC PUSH2 0x236A JUMP JUMPDEST JUMPDEST PUSH2 0x27F9 DUP5 DUP3 DUP6 ADD PUSH2 0x278B JUMP JUMPDEST SWAP2 POP POP SWAP3 SWAP2 POP POP JUMP JUMPDEST PUSH1 0x0 PUSH1 0x20 DUP3 DUP5 SUB SLT ISZERO PUSH2 0x2818 JUMPI PUSH2 0x2817 PUSH2 0x2365 JUMP JUMPDEST JUMPDEST PUSH1 0x0 PUSH2 0x2826 DUP5 DUP3 DUP6 ADD PUSH2 0x25B2 JUMP JUMPDEST SWAP2 POP POP SWAP3 SWAP2 POP POP JUMP JUMPDEST PUSH2 0x2838 DUP2 PUSH2 0x23F4 JUMP JUMPDEST DUP2 EQ PUSH2 0x2843 JUMPI PUSH1 0x0 DUP1 REVERT JUMPDEST POP JUMP JUMPDEST PUSH1 0x0 DUP2 CALLDATALOAD SWAP1 POP PUSH2 0x2855 DUP2 PUSH2 0x282F JUMP JUMPDEST SWAP3 SWAP2 POP POP JUMP JUMPDEST PUSH1 0x0 DUP1 PUSH1 0x40 DUP4 DUP6 SUB SLT ISZERO PUSH2 0x2872 JUMPI PUSH2 0x2871 PUSH2 0x2365 JUMP JUMPDEST JUMPDEST PUSH1 0x0 PUSH2 0x2880 DUP6 DUP3 DUP7 ADD PUSH2 0x25B2 JUMP JUMPDEST SWAP3 POP POP PUSH1 0x20 PUSH2 0x2891 DUP6 DUP3 DUP7 ADD PUSH2 0x2846 JUMP JUMPDEST SWAP2 POP POP SWAP3 POP SWAP3 SWAP1 POP JUMP JUMPDEST PUSH1 0x0 PUSH8 0xFFFFFFFFFFFFFFFF DUP3 GT ISZERO PUSH2 0x28B6 JUMPI PUSH2 0x28B5 PUSH2 0x268E JUMP JUMPDEST JUMPDEST PUSH2 0x28BF DUP3 PUSH2 0x2470 JUMP JUMPDEST SWAP1 POP PUSH1 0x20 DUP2 ADD SWAP1 POP SWAP2 SWAP1 POP JUMP JUMPDEST PUSH1 0x0 PUSH2 0x28DF PUSH2 0x28DA DUP5 PUSH2 0x289B JUMP JUMPDEST PUSH2 0x26EE JUMP JUMPDEST SWAP1 POP DUP3 DUP2 MSTORE PUSH1 0x20 DUP2 ADD DUP5 DUP5 DUP5 ADD GT ISZERO PUSH2 0x28FB JUMPI PUSH2 0x28FA PUSH2 0x2689 JUMP JUMPDEST JUMPDEST PUSH2 0x2906 DUP5 DUP3 DUP6 PUSH2 0x273A JUMP JUMPDEST POP SWAP4 SWAP3 POP POP POP JUMP JUMPDEST PUSH1 0x0 DUP3 PUSH1 0x1F DUP4 ADD SLT PUSH2 0x2923 JUMPI PUSH2 0x2922 PUSH2 0x2684 JUMP JUMPDEST JUMPDEST DUP2 CALLDATALOAD PUSH2 0x2933 DUP5 DUP3 PUSH1 0x20 DUP7 ADD PUSH2 0x28CC JUMP JUMPDEST SWAP2 POP POP SWAP3 SWAP2 POP POP JUMP JUMPDEST PUSH1 0x0 DUP1 PUSH1 0x0 DUP1 PUSH1 0x80 DUP6 DUP8 SUB SLT ISZERO PUSH2 0x2956 JUMPI PUSH2 0x2955 PUSH2 0x2365 JUMP JUMPDEST JUMPDEST PUSH1 0x0 PUSH2 0x2964 DUP8 DUP3 DUP9 ADD PUSH2 0x25B2 JUMP JUMPDEST SWAP5 POP POP PUSH1 0x20 PUSH2 0x2975 DUP8 DUP3 DUP9 ADD PUSH2 0x25B2 JUMP JUMPDEST SWAP4 POP POP PUSH1 0x40 PUSH2 0x2986 DUP8 DUP3 DUP9 ADD PUSH2 0x24FD JUMP JUMPDEST SWAP3 POP POP PUSH1 0x60 DUP6 ADD CALLDATALOAD PUSH8 0xFFFFFFFFFFFFFFFF DUP2 GT ISZERO PUSH2 0x29A7 JUMPI PUSH2 0x29A6 PUSH2 0x236A JUMP JUMPDEST JUMPDEST PUSH2 0x29B3 DUP8 DUP3 DUP9 ADD PUSH2 0x290E JUMP JUMPDEST SWAP2 POP POP SWAP3 SWAP6 SWAP2 SWAP5 POP SWAP3 POP JUMP JUMPDEST PUSH1 0x0 DUP1 PUSH1 0x40 DUP4 DUP6 SUB SLT ISZERO PUSH2 0x29D6 JUMPI PUSH2 0x29D5 PUSH2 0x2365 JUMP JUMPDEST JUMPDEST PUSH1 0x0 PUSH2 0x29E4 DUP6 DUP3 DUP7 ADD PUSH2 0x25B2 JUMP JUMPDEST SWAP3 POP POP PUSH1 0x20 PUSH2 0x29F5 DUP6 DUP3 DUP7 ADD PUSH2 0x25B2 JUMP JUMPDEST SWAP2 POP POP SWAP3 POP SWAP3 SWAP1 POP JUMP JUMPDEST PUSH32 0x4E487B7100000000000000000000000000000000000000000000000000000000 PUSH1 0x0 MSTORE PUSH1 0x22 PUSH1 0x4 MSTORE PUSH1 0x24 PUSH1 0x0 REVERT JUMPDEST PUSH1 0x0 PUSH1 0x2 DUP3 DIV SWAP1 POP PUSH1 0x1 DUP3 AND DUP1 PUSH2 0x2A46 JUMPI PUSH1 0x7F DUP3 AND SWAP2 POP JUMPDEST PUSH1 0x20 DUP3 LT DUP2 SUB PUSH2 0x2A59 JUMPI PUSH2 0x2A58 PUSH2 0x29FF JUMP JUMPDEST JUMPDEST POP SWAP2 SWAP1 POP JUMP JUMPDEST PUSH32 0x4552433732313A20617070726F76616C20746F2063757272656E74206F776E65 PUSH1 0x0 DUP3 ADD MSTORE PUSH32 0x7200000000000000000000000000000000000000000000000000000000000000 PUSH1 0x20 DUP3 ADD MSTORE POP JUMP JUMPDEST PUSH1 0x0 PUSH2 0x2ABB PUSH1 0x21 DUP4 PUSH2 0x2435 JUMP JUMPDEST SWAP2 POP PUSH2 0x2AC6 DUP3 PUSH2 0x2A5F JUMP JUMPDEST PUSH1 0x40 DUP3 ADD SWAP1 POP SWAP2 SWAP1 POP JUMP JUMPDEST PUSH1 0x0 PUSH1 0x20 DUP3 ADD SWAP1 POP DUP2 DUP2 SUB PUSH1 0x0 DUP4 ADD MSTORE PUSH2 0x2AEA DUP2 PUSH2 0x2AAE JUMP JUMPDEST SWAP1 POP SWAP2 SWAP1 POP JUMP JUMPDEST PUSH32 0x4552433732313A20617070726F76652063616C6C6572206973206E6F7420746F PUSH1 0x0 DUP3 ADD MSTORE PUSH32 0x6B656E206F776E6572206F7220617070726F76656420666F7220616C6C000000 PUSH1 0x20 DUP3 ADD MSTORE POP JUMP JUMPDEST PUSH1 0x0 PUSH2 0x2B4D PUSH1 0x3D DUP4 PUSH2 0x2435 JUMP JUMPDEST SWAP2 POP PUSH2 0x2B58 DUP3 PUSH2 0x2AF1 JUMP JUMPDEST PUSH1 0x40 DUP3 ADD SWAP1 POP SWAP2 SWAP1 POP JUMP JUMPDEST PUSH1 0x0 PUSH1 0x20 DUP3 ADD SWAP1 POP DUP2 DUP2 SUB PUSH1 0x0 DUP4 ADD MSTORE PUSH2 0x2B7C DUP2 PUSH2 0x2B40 JUMP JUMPDEST SWAP1 POP SWAP2 SWAP1 POP JUMP JUMPDEST PUSH1 0x0 PUSH1 0x40 DUP3 ADD SWAP1 POP PUSH2 0x2B98 PUSH1 0x0 DUP4 ADD DUP6 PUSH2 0x2571 JUMP JUMPDEST PUSH2 0x2BA5 PUSH1 0x20 DUP4 ADD DUP5 PUSH2 0x2571 JUMP JUMPDEST SWAP4 SWAP3 POP POP POP JUMP JUMPDEST PUSH1 0x0 DUP2 MLOAD SWAP1 POP PUSH2 0x2BBB DUP2 PUSH2 0x282F JUMP JUMPDEST SWAP3 SWAP2 POP POP JUMP JUMPDEST PUSH1 0x0 PUSH1 0x20 DUP3 DUP5 SUB SLT ISZERO PUSH2 0x2BD7 JUMPI PUSH2 0x2BD6 PUSH2 0x2365 JUMP JUMPDEST JUMPDEST PUSH1 0x0 PUSH2 0x2BE5 DUP5 DUP3 DUP6 ADD PUSH2 0x2BAC JUMP JUMPDEST SWAP2 POP POP SWAP3 SWAP2 POP POP JUMP JUMPDEST PUSH32 0x4552433732313A20696E76616C696420746F6B656E2049440000000000000000 PUSH1 0x0 DUP3 ADD MSTORE POP JUMP JUMPDEST PUSH1 0x0 PUSH2 0x2C24 PUSH1 0x18 DUP4 PUSH2 0x2435 JUMP JUMPDEST SWAP2 POP PUSH2 0x2C2F DUP3 PUSH2 0x2BEE JUMP JUMPDEST PUSH1 0x20 DUP3 ADD SWAP1 POP SWAP2 SWAP1 POP JUMP JUMPDEST PUSH1 0x0 PUSH1 0x20 DUP3 ADD SWAP1 POP DUP2 DUP2 SUB PUSH1 0x0 DUP4 ADD MSTORE PUSH2 0x2C53 DUP2 PUSH2 0x2C17 JUMP JUMPDEST SWAP1 POP SWAP2 SWAP1 POP JUMP JUMPDEST PUSH1 0x0 DUP2 SWAP1 POP DUP2 PUSH1 0x0 MSTORE PUSH1 0x20 PUSH1 0x0 KECCAK256 SWAP1 POP SWAP2 SWAP1 POP JUMP JUMPDEST PUSH1 0x0 PUSH1 0x20 PUSH1 0x1F DUP4 ADD DIV SWAP1 POP SWAP2 SWAP1 POP JUMP JUMPDEST PUSH1 0x0 DUP3 DUP3 SHL SWAP1 POP SWAP3 SWAP2 POP POP JUMP JUMPDEST PUSH1 0x0 PUSH1 0x8 DUP4 MUL PUSH2 0x2CBC PUSH32 0xFFFFFFFFFFFFFFFFFFFFFFFFFFFFFFFFFFFFFFFFFFFFFFFFFFFFFFFFFFFFFFFF DUP3 PUSH2 0x2C7F JUMP JUMPDEST PUSH2 0x2CC6 DUP7 DUP4 PUSH2 0x2C7F JUMP JUMPDEST SWAP6 POP DUP1 NOT DUP5 AND SWAP4 POP DUP1 DUP7 AND DUP5 OR SWAP3 POP POP POP SWAP4 SWAP3 POP POP POP JUMP JUMPDEST PUSH1 0x0 DUP2 SWAP1 POP SWAP2 SWAP1 POP JUMP JUMPDEST PUSH1 0x0 PUSH2 0x2D03 PUSH2 0x2CFE PUSH2 0x2CF9 DUP5 PUSH2 0x24DC JUMP JUMPDEST PUSH2 0x2CDE JUMP JUMPDEST PUSH2 0x24DC JUMP JUMPDEST SWAP1 POP SWAP2 SWAP1 POP JUMP JUMPDEST PUSH1 0x0 DUP2 SWAP1 POP SWAP2 SWAP1 POP JUMP JUMPDEST PUSH2 0x2D1D DUP4 PUSH2 0x2CE8 JUMP JUMPDEST PUSH2 0x2D31 PUSH2 0x2D29 DUP3 PUSH2 0x2D0A JUMP JUMPDEST DUP5 DUP5 SLOAD PUSH2 0x2C8C JUMP JUMPDEST DUP3 SSTORE POP POP POP POP JUMP JUMPDEST PUSH1 0x0 SWAP1 JUMP JUMPDEST PUSH2 0x2D46 PUSH2 0x2D39 JUMP JUMPDEST PUSH2 0x2D51 DUP2 DUP5 DUP5 PUSH2 0x2D14 JUMP JUMPDEST POP POP POP JUMP JUMPDEST JUMPDEST DUP2 DUP2 LT ISZERO PUSH2 0x2D75 JUMPI PUSH2 0x2D6A PUSH1 0x0 DUP3 PUSH2 0x2D3E JUMP JUMPDEST PUSH1 0x1 DUP2 ADD SWAP1 POP PUSH2 0x2D57 JUMP JUMPDEST POP POP JUMP JUMPDEST PUSH1 0x1F DUP3 GT ISZERO PUSH2 0x2DBA JUMPI PUSH2 0x2D8B DUP2 PUSH2 0x2C5A JUMP JUMPDEST PUSH2 0x2D94 DUP5 PUSH2 0x2C6F JUMP JUMPDEST DUP2 ADD PUSH1 0x20 DUP6 LT ISZERO PUSH2 0x2DA3 JUMPI DUP2 SWAP1 POP JUMPDEST PUSH2 0x2DB7 PUSH2 0x2DAF DUP6 PUSH2 0x2C6F JUMP JUMPDEST DUP4 ADD DUP3 PUSH2 0x2D56 JUMP JUMPDEST POP POP JUMPDEST POP POP POP JUMP JUMPDEST PUSH1 0x0 DUP3 DUP3 SHR SWAP1 POP SWAP3 SWAP2 POP POP JUMP JUMPDEST PUSH1 0x0 PUSH2 0x2DDD PUSH1 0x0 NOT DUP5 PUSH1 0x8 MUL PUSH2 0x2DBF JUMP JUMPDEST NOT DUP1 DUP4 AND SWAP2 POP POP SWAP3 SWAP2 POP POP JUMP JUMPDEST PUSH1 0x0 PUSH2 0x2DF6 DUP4 DUP4 PUSH2 0x2DCC JUMP JUMPDEST SWAP2 POP DUP3 PUSH1 0x2 MUL DUP3 OR SWAP1 POP SWAP3 SWAP2 POP POP JUMP JUMPDEST PUSH2 0x2E0F DUP3 PUSH2 0x242A JUMP JUMPDEST PUSH8 0xFFFFFFFFFFFFFFFF DUP2 GT ISZERO PUSH2 0x2E28 JUMPI PUSH2 0x2E27 PUSH2 0x268E JUMP JUMPDEST JUMPDEST PUSH2 0x2E32 DUP3 SLOAD PUSH2 0x2A2E JUMP JUMPDEST PUSH2 0x2E3D DUP3 DUP3 DUP6 PUSH2 0x2D79 JUMP JUMPDEST PUSH1 0x0 PUSH1 0x20 SWAP1 POP PUSH1 0x1F DUP4 GT PUSH1 0x1 DUP2 EQ PUSH2 0x2E70 JUMPI PUSH1 0x0 DUP5 ISZERO PUSH2 0x2E5E JUMPI DUP3 DUP8 ADD MLOAD SWAP1 POP JUMPDEST PUSH2 0x2E68 DUP6 DUP3 PUSH2 0x2DEA JUMP JUMPDEST DUP7 SSTORE POP PUSH2 0x2ED0 JUMP JUMPDEST PUSH1 0x1F NOT DUP5 AND PUSH2 0x2E7E DUP7 PUSH2 0x2C5A JUMP JUMPDEST PUSH1 0x0 JUMPDEST DUP3 DUP2 LT ISZERO PUSH2 0x2EA6 JUMPI DUP5 DUP10 ADD MLOAD DUP3 SSTORE PUSH1 0x1 DUP3 ADD SWAP2 POP PUSH1 0x20 DUP6 ADD SWAP5 POP PUSH1 0x20 DUP2 ADD SWAP1 POP PUSH2 0x2E81 JUMP JUMPDEST DUP7 DUP4 LT ISZERO PUSH2 0x2EC3 JUMPI DUP5 DUP10 ADD MLOAD PUSH2 0x2EBF PUSH1 0x1F DUP10 AND DUP3 PUSH2 0x2DCC JUMP JUMPDEST DUP4 SSTORE POP JUMPDEST PUSH1 0x1 PUSH1 0x2 DUP9 MUL ADD DUP9 SSTORE POP POP POP JUMPDEST POP POP POP POP POP POP JUMP JUMPDEST PUSH32 0x4552433732313A2061646472657373207A65726F206973206E6F742061207661 PUSH1 0x0 DUP3 ADD MSTORE PUSH32 0x6C6964206F776E65720000000000000000000000000000000000000000000000 PUSH1 0x20 DUP3 ADD MSTORE POP JUMP JUMPDEST PUSH1 0x0 PUSH2 0x2F34 PUSH1 0x29 DUP4 PUSH2 0x2435 JUMP JUMPDEST SWAP2 POP PUSH2 0x2F3F DUP3 PUSH2 0x2ED8 JUMP JUMPDEST PUSH1 0x40 DUP3 ADD SWAP1 POP SWAP2 SWAP1 POP JUMP JUMPDEST PUSH1 0x0 PUSH1 0x20 DUP3 ADD SWAP1 POP DUP2 DUP2 SUB PUSH1 0x0 DUP4 ADD MSTORE PUSH2 0x2F63 DUP2 PUSH2 0x2F27 JUMP JUMPDEST SWAP1 POP SWAP2 SWAP1 POP JUMP JUMPDEST PUSH32 0x5468652073616C65206973207061757365640000000000000000000000000000 PUSH1 0x0 DUP3 ADD MSTORE POP JUMP JUMPDEST PUSH1 0x0 PUSH2 0x2FA0 PUSH1 0x12 DUP4 PUSH2 0x2435 JUMP JUMPDEST SWAP2 POP PUSH2 0x2FAB DUP3 PUSH2 0x2F6A JUMP JUMPDEST PUSH1 0x20 DUP3 ADD SWAP1 POP SWAP2 SWAP1 POP JUMP JUMPDEST PUSH1 0x0 PUSH1 0x20 DUP3 ADD SWAP1 POP DUP2 DUP2 SUB PUSH1 0x0 DUP4 ADD MSTORE PUSH2 0x2FCF DUP2 PUSH2 0x2F93 JUMP JUMPDEST SWAP1 POP SWAP2 SWAP1 POP JUMP JUMPDEST PUSH32 0x596F752063616E206F6E6C79206D696E742061206D6178696D756D206F662027 PUSH1 0x0 DUP3 ADD MSTORE PUSH32 0x4D41585F4D494E545F5045525F54582700000000000000000000000000000000 PUSH1 0x20 DUP3 ADD MSTORE POP JUMP JUMPDEST PUSH1 0x0 PUSH2 0x3032 PUSH1 0x30 DUP4 PUSH2 0x2435 JUMP JUMPDEST SWAP2 POP PUSH2 0x303D DUP3 PUSH2 0x2FD6 JUMP JUMPDEST PUSH1 0x40 DUP3 ADD SWAP1 POP SWAP2 SWAP1 POP JUMP JUMPDEST PUSH1 0x0 PUSH1 0x20 DUP3 ADD SWAP1 POP DUP2 DUP2 SUB PUSH1 0x0 DUP4 ADD MSTORE PUSH2 0x3061 DUP2 PUSH2 0x3025 JUMP JUMPDEST SWAP1 POP SWAP2 SWAP1 POP JUMP JUMPDEST PUSH32 0x4E487B7100000000000000000000000000000000000000000000000000000000 PUSH1 0x0 MSTORE PUSH1 0x11 PUSH1 0x4 MSTORE PUSH1 0x24 PUSH1 0x0 REVERT JUMPDEST PUSH1 0x0 PUSH2 0x30A2 DUP3 PUSH2 0x24DC JUMP JUMPDEST SWAP2 POP PUSH2 0x30AD DUP4 PUSH2 0x24DC JUMP JUMPDEST SWAP3 POP DUP3 DUP3 ADD SWAP1 POP DUP1 DUP3 GT ISZERO PUSH2 0x30C5 JUMPI PUSH2 0x30C4 PUSH2 0x3068 JUMP JUMPDEST JUMPDEST SWAP3 SWAP2 POP POP JUMP JUMPDEST PUSH32 0x596F752063616E206F6E6C79206D696E7420274D41585F4D494E545F5045525F PUSH1 0x0 DUP3 ADD MSTORE PUSH32 0x545827207065722057616C6C6574000000000000000000000000000000000000 PUSH1 0x20 DUP3 ADD MSTORE POP JUMP JUMPDEST PUSH1 0x0 PUSH2 0x3127 PUSH1 0x2E DUP4 PUSH2 0x2435 JUMP JUMPDEST SWAP2 POP PUSH2 0x3132 DUP3 PUSH2 0x30CB JUMP JUMPDEST PUSH1 0x40 DUP3 ADD SWAP1 POP SWAP2 SWAP1 POP JUMP JUMPDEST PUSH1 0x0 PUSH1 0x20 DUP3 ADD SWAP1 POP DUP2 DUP2 SUB PUSH1 0x0 DUP4 ADD MSTORE PUSH2 0x3156 DUP2 PUSH2 0x311A JUMP JUMPDEST SWAP1 POP SWAP2 SWAP1 POP JUMP JUMPDEST PUSH32 0x4578636565647320274D41585F544F4B454E5327000000000000000000000000 PUSH1 0x0 DUP3 ADD MSTORE POP JUMP JUMPDEST PUSH1 0x0 PUSH2 0x3193 PUSH1 0x14 DUP4 PUSH2 0x2435 JUMP JUMPDEST SWAP2 POP PUSH2 0x319E DUP3 PUSH2 0x315D JUMP JUMPDEST PUSH1 0x20 DUP3 ADD SWAP1 POP SWAP2 SWAP1 POP JUMP JUMPDEST PUSH1 0x0 PUSH1 0x20 DUP3 ADD SWAP1 POP DUP2 DUP2 SUB PUSH1 0x0 DUP4 ADD MSTORE PUSH2 0x31C2 DUP2 PUSH2 0x3186 JUMP JUMPDEST SWAP1 POP SWAP2 SWAP1 POP JUMP JUMPDEST PUSH1 0x0 PUSH2 0x31D4 DUP3 PUSH2 0x24DC JUMP JUMPDEST SWAP2 POP PUSH2 0x31DF DUP4 PUSH2 0x24DC JUMP JUMPDEST SWAP3 POP DUP3 DUP3 MUL PUSH2 0x31ED DUP2 PUSH2 0x24DC JUMP JUMPDEST SWAP2 POP DUP3 DUP3 DIV DUP5 EQ DUP4 ISZERO OR PUSH2 0x3204 JUMPI PUSH2 0x3203 PUSH2 0x3068 JUMP JUMPDEST JUMPDEST POP SWAP3 SWAP2 POP POP JUMP JUMPDEST PUSH32 0x496E73756666696369656E742066756E64732E20596F75206E656564206D6F72 PUSH1 0x0 DUP3 ADD MSTORE PUSH32 0x2045544821000000000000000000000000000000000000000000000000000000 PUSH1 0x20 DUP3 ADD MSTORE POP JUMP JUMPDEST PUSH1 0x0 PUSH2 0x3267 PUSH1 0x25 DUP4 PUSH2 0x2435 JUMP JUMPDEST SWAP2 POP PUSH2 0x3272 DUP3 PUSH2 0x320B JUMP JUMPDEST PUSH1 0x40 DUP3 ADD SWAP1 POP SWAP2 SWAP1 POP JUMP JUMPDEST PUSH1 0x0 PUSH1 0x20 DUP3 ADD SWAP1 POP DUP2 DUP2 SUB PUSH1 0x0 DUP4 ADD MSTORE PUSH2 0x3296 DUP2 PUSH2 0x325A JUMP JUMPDEST SWAP1 POP SWAP2 SWAP1 POP JUMP JUMPDEST PUSH1 0x0 PUSH2 0x32A8 DUP3 PUSH2 0x24DC JUMP JUMPDEST SWAP2 POP PUSH32 0xFFFFFFFFFFFFFFFFFFFFFFFFFFFFFFFFFFFFFFFFFFFFFFFFFFFFFFFFFFFFFFFF DUP3 SUB PUSH2 0x32DA JUMPI PUSH2 0x32D9 PUSH2 0x3068 JUMP JUMPDEST JUMPDEST PUSH1 0x1 DUP3 ADD SWAP1 POP SWAP2 SWAP1 POP JUMP JUMPDEST PUSH32 0x4F776E61626C653A206E6577206F776E657220697320746865207A65726F2061 PUSH1 0x0 DUP3 ADD MSTORE PUSH32 0x6464726573730000000000000000000000000000000000000000000000000000 PUSH1 0x20 DUP3 ADD MSTORE POP JUMP JUMPDEST PUSH1 0x0 PUSH2 0x3341 PUSH1 0x26 DUP4 PUSH2 0x2435 JUMP JUMPDEST SWAP2 POP PUSH2 0x334C DUP3 PUSH2 0x32E5 JUMP JUMPDEST PUSH1 0x40 DUP3 ADD SWAP1 POP SWAP2 SWAP1 POP JUMP JUMPDEST PUSH1 0x0 PUSH1 0x20 DUP3 ADD SWAP1 POP DUP2 DUP2 SUB PUSH1 0x0 DUP4 ADD MSTORE PUSH2 0x3370 DUP2 PUSH2 0x3334 JUMP JUMPDEST SWAP1 POP SWAP2 SWAP1 POP JUMP JUMPDEST PUSH32 0x4E487B7100000000000000000000000000000000000000000000000000000000 PUSH1 0x0 MSTORE PUSH1 0x12 PUSH1 0x4 MSTORE PUSH1 0x24 PUSH1 0x0 REVERT JUMPDEST PUSH1 0x0 PUSH2 0x33B1 DUP3 PUSH2 0x24DC JUMP JUMPDEST SWAP2 POP PUSH2 0x33BC DUP4 PUSH2 0x24DC JUMP JUMPDEST SWAP3 POP DUP3 PUSH2 0x33CC JUMPI PUSH2 0x33CB PUSH2 0x3377 JUMP JUMPDEST JUMPDEST DUP3 DUP3 DIV SWAP1 POP SWAP3 SWAP2 POP POP JUMP JUMPDEST PUSH1 0x0 DUP2 SWAP1 POP SWAP3 SWAP2 POP POP JUMP JUMPDEST POP JUMP JUMPDEST PUSH1 0x0 PUSH2 0x33F2 PUSH1 0x0 DUP4 PUSH2 0x33D7 JUMP JUMPDEST SWAP2 POP PUSH2 0x33FD DUP3 PUSH2 0x33E2 JUMP JUMPDEST PUSH1 0x0 DUP3 ADD SWAP1 POP SWAP2 SWAP1 POP JUMP JUMPDEST PUSH1 0x0 PUSH2 0x3413 DUP3 PUSH2 0x33E5 JUMP JUMPDEST SWAP2 POP DUP2 SWAP1 POP SWAP2 SWAP1 POP JUMP JUMPDEST PUSH32 0x5472616E73666572206661696C65640000000000000000000000000000000000 PUSH1 0x0 DUP3 ADD MSTORE POP JUMP JUMPDEST PUSH1 0x0 PUSH2 0x3453 PUSH1 0xF DUP4 PUSH2 0x2435 JUMP JUMPDEST SWAP2 POP PUSH2 0x345E DUP3 PUSH2 0x341D JUMP JUMPDEST PUSH1 0x20 DUP3 ADD SWAP1 POP SWAP2 SWAP1 POP JUMP JUMPDEST PUSH1 0x0 PUSH1 0x20 DUP3 ADD SWAP1 POP DUP2 DUP2 SUB PUSH1 0x0 DUP4 ADD MSTORE PUSH2 0x3482 DUP2 PUSH2 0x3446 JUMP JUMPDEST SWAP1 POP SWAP2 SWAP1 POP JUMP JUMPDEST PUSH32 0x4552433732313A2063616C6C6572206973206E6F7420746F6B656E206F776E65 PUSH1 0x0 DUP3 ADD MSTORE PUSH32 0x72206F7220617070726F76656400000000000000000000000000000000000000 PUSH1 0x20 DUP3 ADD MSTORE POP JUMP JUMPDEST PUSH1 0x0 PUSH2 0x34E5 PUSH1 0x2D DUP4 PUSH2 0x2435 JUMP JUMPDEST SWAP2 POP PUSH2 0x34F0 DUP3 PUSH2 0x3489 JUMP JUMPDEST PUSH1 0x40 DUP3 ADD SWAP1 POP SWAP2 SWAP1 POP JUMP JUMPDEST PUSH1 0x0 PUSH1 0x20 DUP3 ADD SWAP1 POP DUP2 DUP2 SUB PUSH1 0x0 DUP4 ADD MSTORE PUSH2 0x3514 DUP2 PUSH2 0x34D8 JUMP JUMPDEST SWAP1 POP SWAP2 SWAP1 POP JUMP JUMPDEST PUSH32 0x4F776E61626C653A2063616C6C6572206973206E6F7420746865206F776E6572 PUSH1 0x0 DUP3 ADD MSTORE POP JUMP JUMPDEST PUSH1 0x0 PUSH2 0x3551 PUSH1 0x20 DUP4 PUSH2 0x2435 JUMP JUMPDEST SWAP2 POP PUSH2 0x355C DUP3 PUSH2 0x351B JUMP JUMPDEST PUSH1 0x20 DUP3 ADD SWAP1 POP SWAP2 SWAP1 POP JUMP JUMPDEST PUSH1 0x0 PUSH1 0x20 DUP3 ADD SWAP1 POP DUP2 DUP2 SUB PUSH1 0x0 DUP4 ADD MSTORE PUSH2 0x3580 DUP2 PUSH2 0x3544 JUMP JUMPDEST SWAP1 POP SWAP2 SWAP1 POP JUMP JUMPDEST PUSH32 0x4552433732313A20617070726F766520746F2063616C6C657200000000000000 PUSH1 0x0 DUP3 ADD MSTORE POP JUMP JUMPDEST PUSH1 0x0 PUSH2 0x35BD PUSH1 0x19 DUP4 PUSH2 0x2435 JUMP JUMPDEST SWAP2 POP PUSH2 0x35C8 DUP3 PUSH2 0x3587 JUMP JUMPDEST PUSH1 0x20 DUP3 ADD SWAP1 POP SWAP2 SWAP1 POP JUMP JUMPDEST PUSH1 0x0 PUSH1 0x20 DUP3 ADD SWAP1 POP DUP2 DUP2 SUB PUSH1 0x0 DUP4 ADD MSTORE PUSH2 0x35EC DUP2 PUSH2 0x35B0 JUMP JUMPDEST SWAP1 POP SWAP2 SWAP1 POP JUMP JUMPDEST PUSH32 0x4552433732313A207472616E736665722066726F6D20696E636F727265637420 PUSH1 0x0 DUP3 ADD MSTORE PUSH32 0x6F776E6572000000000000000000000000000000000000000000000000000000 PUSH1 0x20 DUP3 ADD MSTORE POP JUMP JUMPDEST PUSH1 0x0 PUSH2 0x364F PUSH1 0x25 DUP4 PUSH2 0x2435 JUMP JUMPDEST SWAP2 POP PUSH2 0x365A DUP3 PUSH2 0x35F3 JUMP JUMPDEST PUSH1 0x40 DUP3 ADD SWAP1 POP SWAP2 SWAP1 POP JUMP JUMPDEST PUSH1 0x0 PUSH1 0x20 DUP3 ADD SWAP1 POP DUP2 DUP2 SUB PUSH1 0x0 DUP4 ADD MSTORE PUSH2 0x367E DUP2 PUSH2 0x3642 JUMP JUMPDEST SWAP1 POP SWAP2 SWAP1 POP JUMP JUMPDEST PUSH32 0x4552433732313A207472616E7366657220746F20746865207A65726F20616464 PUSH1 0x0 DUP3 ADD MSTORE PUSH32 0x7265737300000000000000000000000000000000000000000000000000000000 PUSH1 0x20 DUP3 ADD MSTORE POP JUMP JUMPDEST PUSH1 0x0 PUSH2 0x36E1 PUSH1 0x24 DUP4 PUSH2 0x2435 JUMP JUMPDEST SWAP2 POP PUSH2 0x36EC DUP3 PUSH2 0x3685 JUMP JUMPDEST PUSH1 0x40 DUP3 ADD SWAP1 POP SWAP2 SWAP1 POP JUMP JUMPDEST PUSH1 0x0 PUSH1 0x20 DUP3 ADD SWAP1 POP DUP2 DUP2 SUB PUSH1 0x0 DUP4 ADD MSTORE PUSH2 0x3710 DUP2 PUSH2 0x36D4 JUMP JUMPDEST SWAP1 POP SWAP2 SWAP1 POP JUMP JUMPDEST PUSH32 0x4552433732313A207472616E7366657220746F206E6F6E204552433732315265 PUSH1 0x0 DUP3 ADD MSTORE PUSH32 0x63656976657220696D706C656D656E7465720000000000000000000000000000 PUSH1 0x20 DUP3 ADD MSTORE POP JUMP JUMPDEST PUSH1 0x0 PUSH2 0x3773 PUSH1 0x32 DUP4 PUSH2 0x2435 JUMP JUMPDEST SWAP2 POP PUSH2 0x377E DUP3 PUSH2 0x3717 JUMP JUMPDEST PUSH1 0x40 DUP3 ADD SWAP1 POP SWAP2 SWAP1 POP JUMP JUMPDEST PUSH1 0x0 PUSH1 0x20 DUP3 ADD SWAP1 POP DUP2 DUP2 SUB PUSH1 0x0 DUP4 ADD MSTORE PUSH2 0x37A2 DUP2 PUSH2 0x3766 JUMP JUMPDEST SWAP1 POP SWAP2 SWAP1 POP JUMP JUMPDEST PUSH32 0x4552433732313A206D696E7420746F20746865207A65726F2061646472657373 PUSH1 0x0 DUP3 ADD MSTORE POP JUMP JUMPDEST PUSH1 0x0 PUSH2 0x37DF PUSH1 0x20 DUP4 PUSH2 0x2435 JUMP JUMPDEST SWAP2 POP PUSH2 0x37EA DUP3 PUSH2 0x37A9 JUMP JUMPDEST PUSH1 0x20 DUP3 ADD SWAP1 POP SWAP2 SWAP1 POP JUMP JUMPDEST PUSH1 0x0 PUSH1 0x20 DUP3 ADD SWAP1 POP DUP2 DUP2 SUB PUSH1 0x0 DUP4 ADD MSTORE PUSH2 0x380E DUP2 PUSH2 0x37D2 JUMP JUMPDEST SWAP1 POP SWAP2 SWAP1 POP JUMP JUMPDEST PUSH32 0x4552433732313A20746F6B656E20616C7265616479206D696E74656400000000 PUSH1 0x0 DUP3 ADD MSTORE POP JUMP JUMPDEST PUSH1 0x0 PUSH2 0x384B PUSH1 0x1C DUP4 PUSH2 0x2435 JUMP JUMPDEST SWAP2 POP PUSH2 0x3856 DUP3 PUSH2 0x3815 JUMP JUMPDEST PUSH1 0x20 DUP3 ADD SWAP1 POP SWAP2 SWAP1 POP JUMP JUMPDEST PUSH1 0x0 PUSH1 0x20 DUP3 ADD SWAP1 POP DUP2 DUP2 SUB PUSH1 0x0 DUP4 ADD MSTORE PUSH2 0x387A DUP2 PUSH2 0x383E JUMP JUMPDEST SWAP1 POP SWAP2 SWAP1 POP JUMP JUMPDEST PUSH1 0x0 DUP2 MLOAD SWAP1 POP SWAP2 SWAP1 POP JUMP JUMPDEST PUSH1 0x0 DUP3 DUP3 MSTORE PUSH1 0x20 DUP3 ADD SWAP1 POP SWAP3 SWAP2 POP POP JUMP JUMPDEST PUSH1 0x0 PUSH2 0x38A8 DUP3 PUSH2 0x3881 JUMP JUMPDEST PUSH2 0x38B2 DUP2 DUP6 PUSH2 0x388C JUMP JUMPDEST SWAP4 POP PUSH2 0x38C2 DUP2 DUP6 PUSH1 0x20 DUP7 ADD PUSH2 0x2446 JUMP JUMPDEST PUSH2 0x38CB DUP2 PUSH2 0x2470 JUMP JUMPDEST DUP5 ADD SWAP2 POP POP SWAP3 SWAP2 POP POP JUMP JUMPDEST PUSH1 0x0 PUSH1 0x80 DUP3 ADD SWAP1 POP PUSH2 0x38EB PUSH1 0x0 DUP4 ADD DUP8 PUSH2 0x2571 JUMP JUMPDEST PUSH2 0x38F8 PUSH1 0x20 DUP4 ADD DUP7 PUSH2 0x2571 JUMP JUMPDEST PUSH2 0x3905 PUSH1 0x40 DUP4 ADD DUP6 PUSH2 0x2607 JUMP JUMPDEST DUP2 DUP2 SUB PUSH1 0x60 DUP4 ADD MSTORE PUSH2 0x3917 DUP2 DUP5 PUSH2 0x389D JUMP JUMPDEST SWAP1 POP SWAP6 SWAP5 POP POP POP POP POP JUMP JUMPDEST PUSH1 0x0 DUP2 MLOAD SWAP1 POP PUSH2 0x3931 DUP2 PUSH2 0x239B JUMP JUMPDEST SWAP3 SWAP2 POP POP JUMP JUMPDEST PUSH1 0x0 PUSH1 0x20 DUP3 DUP5 SUB SLT ISZERO PUSH2 0x394D JUMPI PUSH2 0x394C PUSH2 0x2365 JUMP JUMPDEST JUMPDEST PUSH1 0x0 PUSH2 0x395B DUP5 DUP3 DUP6 ADD PUSH2 0x3922 JUMP JUMPDEST SWAP2 POP POP SWAP3 SWAP2 POP POP JUMP INVALID LOG2 PUSH5 0x6970667358 0x22 SLT KECCAK256 0x49 0xCB 0x4B 0xAE RETURN 0xE5 PUSH4 0x19E1036C PUSH9 0xF356CC3D176DBDA4ED 0xD PUSH7 0xEE897D2C2E5B63 PUSH27 0x7E64736F6C63430008120033697066733A2F2F516D564B53556441 PUSH4 0x7A624533 SELFBALANCE GAS 0x4D PUSH6 0x4B53574C4269 CHAINID JUMPI POP SSTORE PUSH14 0x756262397A424732464367613268 COINBASE PUSH6 0x59562F000000 "
		},
		"gasEstimates": {
			"creation": {
				"codeDepositCost": "2949200",
				"executionCost": "infinite",
				"totalCost": "infinite"
			},
			"external": {
				"MAX_MINT_PER_TX()": "375",
				"MAX_TOKENS()": "439",
				"TOKENS_RESERVED()": "396",
				"approve(address,uint256)": "infinite",
				"balanceOf(address)": "2943",
				"baseExtension()": "infinite",
				"baseUri()": "infinite",
				"flipSaleState()": "28926",
				"getApproved(uint256)": "5323",
				"isApprovedForAll(address,address)": "infinite",
				"isSaleActive()": "2539",
				"mint(uint256)": "infinite",
				"name()": "infinite",
				"owner()": "2633",
				"ownerOf(uint256)": "3089",
				"price()": "2518",
				"renounceOwnership()": "30487",
				"safeTransferFrom(address,address,uint256)": "infinite",
				"safeTransferFrom(address,address,uint256,bytes)": "infinite",
				"setApprovalForAll(address,bool)": "infinite",
				"setBaseURU(string)": "infinite",
				"setPrice(uint256)": "24852",
				"supportsInterface(bytes4)": "820",
				"symbol()": "infinite",
				"tokenURI(uint256)": "1017",
				"totalSupply()": "2497",
				"transferFrom(address,address,uint256)": "infinite",
				"transferOwnership(address)": "30810",
				"withdrawalAll()": "infinite"
			},
			"internal": {
				"_baseURI()": "infinite"
			}
		},
		"methodIdentifiers": {
			"MAX_MINT_PER_TX()": "8ecad721",
			"MAX_TOKENS()": "f47c84c5",
			"TOKENS_RESERVED()": "9fd07cf0",
			"approve(address,uint256)": "095ea7b3",
			"balanceOf(address)": "70a08231",
			"baseExtension()": "c6682862",
			"baseUri()": "9abc8320",
			"flipSaleState()": "34918dfd",
			"getApproved(uint256)": "081812fc",
			"isApprovedForAll(address,address)": "e985e9c5",
			"isSaleActive()": "564566a8",
			"mint(uint256)": "a0712d68",
			"name()": "06fdde03",
			"owner()": "8da5cb5b",
			"ownerOf(uint256)": "6352211e",
			"price()": "a035b1fe",
			"renounceOwnership()": "715018a6",
			"safeTransferFrom(address,address,uint256)": "42842e0e",
			"safeTransferFrom(address,address,uint256,bytes)": "b88d4fde",
			"setApprovalForAll(address,bool)": "a22cb465",
			"setBaseURU(string)": "63daa09b",
			"setPrice(uint256)": "91b7f5ed",
			"supportsInterface(bytes4)": "01ffc9a7",
			"symbol()": "95d89b41",
			"tokenURI(uint256)": "c87b56dd",
			"totalSupply()": "18160ddd",
			"transferFrom(address,address,uint256)": "23b872dd",
			"transferOwnership(address)": "f2fde38b",
			"withdrawalAll()": "f44b79b3"
		}
	},
	"abi": [
		{
			"inputs": [],
			"stateMutability": "nonpayable",
			"type": "constructor"
		},
		{
			"inputs": [
				{
					"internalType": "address",
					"name": "operator",
					"type": "address"
				}
			],
			"name": "OperatorNotAllowed",
			"type": "error"
		},
		{
			"anonymous": false,
			"inputs": [
				{
					"indexed": true,
					"internalType": "address",
					"name": "owner",
					"type": "address"
				},
				{
					"indexed": true,
					"internalType": "address",
					"name": "approved",
					"type": "address"
				},
				{
					"indexed": true,
					"internalType": "uint256",
					"name": "tokenId",
					"type": "uint256"
				}
			],
			"name": "Approval",
			"type": "event"
		},
		{
			"anonymous": false,
			"inputs": [
				{
					"indexed": true,
					"internalType": "address",
					"name": "owner",
					"type": "address"
				},
				{
					"indexed": true,
					"internalType": "address",
					"name": "operator",
					"type": "address"
				},
				{
					"indexed": false,
					"internalType": "bool",
					"name": "approved",
					"type": "bool"
				}
			],
			"name": "ApprovalForAll",
			"type": "event"
		},
		{
			"anonymous": false,
			"inputs": [
				{
					"indexed": true,
					"internalType": "address",
					"name": "previousOwner",
					"type": "address"
				},
				{
					"indexed": true,
					"internalType": "address",
					"name": "newOwner",
					"type": "address"
				}
			],
			"name": "OwnershipTransferred",
			"type": "event"
		},
		{
			"anonymous": false,
			"inputs": [
				{
					"indexed": true,
					"internalType": "address",
					"name": "from",
					"type": "address"
				},
				{
					"indexed": true,
					"internalType": "address",
					"name": "to",
					"type": "address"
				},
				{
					"indexed": true,
					"internalType": "uint256",
					"name": "tokenId",
					"type": "uint256"
				}
			],
			"name": "Transfer",
			"type": "event"
		},
		{
			"inputs": [],
			"name": "MAX_MINT_PER_TX",
			"outputs": [
				{
					"internalType": "uint256",
					"name": "",
					"type": "uint256"
				}
			],
			"stateMutability": "view",
			"type": "function"
		},
		{
			"inputs": [],
			"name": "MAX_TOKENS",
			"outputs": [
				{
					"internalType": "uint256",
					"name": "",
					"type": "uint256"
				}
			],
			"stateMutability": "view",
			"type": "function"
		},
		{
			"inputs": [],
			"name": "TOKENS_RESERVED",
			"outputs": [
				{
					"internalType": "uint256",
					"name": "",
					"type": "uint256"
				}
			],
			"stateMutability": "view",
			"type": "function"
		},
		{
			"inputs": [
				{
					"internalType": "address",
					"name": "to",
					"type": "address"
				},
				{
					"internalType": "uint256",
					"name": "tokenId",
					"type": "uint256"
				}
			],
			"name": "approve",
			"outputs": [],
			"stateMutability": "nonpayable",
			"type": "function"
		},
		{
			"inputs": [
				{
					"internalType": "address",
					"name": "owner",
					"type": "address"
				}
			],
			"name": "balanceOf",
			"outputs": [
				{
					"internalType": "uint256",
					"name": "",
					"type": "uint256"
				}
			],
			"stateMutability": "view",
			"type": "function"
		},
		{
			"inputs": [],
			"name": "baseExtension",
			"outputs": [
				{
					"internalType": "string",
					"name": "",
					"type": "string"
				}
			],
			"stateMutability": "view",
			"type": "function"
		},
		{
			"inputs": [],
			"name": "baseUri",
			"outputs": [
				{
					"internalType": "string",
					"name": "",
					"type": "string"
				}
			],
			"stateMutability": "view",
			"type": "function"
		},
		{
			"inputs": [],
			"name": "flipSaleState",
			"outputs": [],
			"stateMutability": "nonpayable",
			"type": "function"
		},
		{
			"inputs": [
				{
					"internalType": "uint256",
					"name": "tokenId",
					"type": "uint256"
				}
			],
			"name": "getApproved",
			"outputs": [
				{
					"internalType": "address",
					"name": "",
					"type": "address"
				}
			],
			"stateMutability": "view",
			"type": "function"
		},
		{
			"inputs": [
				{
					"internalType": "address",
					"name": "owner",
					"type": "address"
				},
				{
					"internalType": "address",
					"name": "operator",
					"type": "address"
				}
			],
			"name": "isApprovedForAll",
			"outputs": [
				{
					"internalType": "bool",
					"name": "",
					"type": "bool"
				}
			],
			"stateMutability": "view",
			"type": "function"
		},
		{
			"inputs": [],
			"name": "isSaleActive",
			"outputs": [
				{
					"internalType": "bool",
					"name": "",
					"type": "bool"
				}
			],
			"stateMutability": "view",
			"type": "function"
		},
		{
			"inputs": [
				{
					"internalType": "uint256",
					"name": "_numTokens",
					"type": "uint256"
				}
			],
			"name": "mint",
			"outputs": [],
			"stateMutability": "payable",
			"type": "function"
		},
		{
			"inputs": [],
			"name": "name",
			"outputs": [
				{
					"internalType": "string",
					"name": "",
					"type": "string"
				}
			],
			"stateMutability": "view",
			"type": "function"
		},
		{
			"inputs": [],
			"name": "owner",
			"outputs": [
				{
					"internalType": "address",
					"name": "",
					"type": "address"
				}
			],
			"stateMutability": "view",
			"type": "function"
		},
		{
			"inputs": [
				{
					"internalType": "uint256",
					"name": "tokenId",
					"type": "uint256"
				}
			],
			"name": "ownerOf",
			"outputs": [
				{
					"internalType": "address",
					"name": "",
					"type": "address"
				}
			],
			"stateMutability": "view",
			"type": "function"
		},
		{
			"inputs": [],
			"name": "price",
			"outputs": [
				{
					"internalType": "uint256",
					"name": "",
					"type": "uint256"
				}
			],
			"stateMutability": "view",
			"type": "function"
		},
		{
			"inputs": [],
			"name": "renounceOwnership",
			"outputs": [],
			"stateMutability": "nonpayable",
			"type": "function"
		},
		{
			"inputs": [
				{
					"internalType": "address",
					"name": "from",
					"type": "address"
				},
				{
					"internalType": "address",
					"name": "to",
					"type": "address"
				},
				{
					"internalType": "uint256",
					"name": "tokenId",
					"type": "uint256"
				}
			],
			"name": "safeTransferFrom",
			"outputs": [],
			"stateMutability": "nonpayable",
			"type": "function"
		},
		{
			"inputs": [
				{
					"internalType": "address",
					"name": "from",
					"type": "address"
				},
				{
					"internalType": "address",
					"name": "to",
					"type": "address"
				},
				{
					"internalType": "uint256",
					"name": "tokenId",
					"type": "uint256"
				},
				{
					"internalType": "bytes",
					"name": "data",
					"type": "bytes"
				}
			],
			"name": "safeTransferFrom",
			"outputs": [],
			"stateMutability": "nonpayable",
			"type": "function"
		},
		{
			"inputs": [
				{
					"internalType": "address",
					"name": "operator",
					"type": "address"
				},
				{
					"internalType": "bool",
					"name": "approved",
					"type": "bool"
				}
			],
			"name": "setApprovalForAll",
			"outputs": [],
			"stateMutability": "nonpayable",
			"type": "function"
		},
		{
			"inputs": [
				{
					"internalType": "string",
					"name": "_baseUri",
					"type": "string"
				}
			],
			"name": "setBaseURU",
			"outputs": [],
			"stateMutability": "nonpayable",
			"type": "function"
		},
		{
			"inputs": [
				{
					"internalType": "uint256",
					"name": "_price",
					"type": "uint256"
				}
			],
			"name": "setPrice",
			"outputs": [],
			"stateMutability": "nonpayable",
			"type": "function"
		},
		{
			"inputs": [
				{
					"internalType": "bytes4",
					"name": "interfaceId",
					"type": "bytes4"
				}
			],
			"name": "supportsInterface",
			"outputs": [
				{
					"internalType": "bool",
					"name": "",
					"type": "bool"
				}
			],
			"stateMutability": "view",
			"type": "function"
		},
		{
			"inputs": [],
			"name": "symbol",
			"outputs": [
				{
					"internalType": "string",
					"name": "",
					"type": "string"
				}
			],
			"stateMutability": "view",
			"type": "function"
		},
		{
			"inputs": [
				{
					"internalType": "uint256",
					"name": "",
					"type": "uint256"
				}
			],
			"name": "tokenURI",
			"outputs": [
				{
					"internalType": "string",
					"name": "",
					"type": "string"
				}
			],
			"stateMutability": "pure",
			"type": "function"
		},
		{
			"inputs": [],
			"name": "totalSupply",
			"outputs": [
				{
					"internalType": "uint256",
					"name": "",
					"type": "uint256"
				}
			],
			"stateMutability": "view",
			"type": "function"
		},
		{
			"inputs": [
				{
					"internalType": "address",
					"name": "from",
					"type": "address"
				},
				{
					"internalType": "address",
					"name": "to",
					"type": "address"
				},
				{
					"internalType": "uint256",
					"name": "tokenId",
					"type": "uint256"
				}
			],
			"name": "transferFrom",
			"outputs": [],
			"stateMutability": "nonpayable",
			"type": "function"
		},
		{
			"inputs": [
				{
					"internalType": "address",
					"name": "newOwner",
					"type": "address"
				}
			],
			"name": "transferOwnership",
			"outputs": [],
			"stateMutability": "nonpayable",
			"type": "function"
		},
		{
			"inputs": [],
			"name": "withdrawalAll",
			"outputs": [],
			"stateMutability": "payable",
			"type": "function"
		}
	]
}